:020000040800F2
:10000000000002209D2E0108491700084B17000828
:100010004D1700084F170008511700080000000096
:1000200000000000000000000000000001A5000822
:100030005317000800000000A1A5000805A600084D
:10004000ED2E0108ED2E0108ED2E0108ED2E010820
:10005000ED2E0108ED2E0108ED2E0108ED2E010810
:10006000ED2E0108ED2E0108ED2E010855170008B0
:100070006517000875170008851700089517000810
:10008000A5170008B5170008ED2E0108ED2E010890
:10009000ED2E0108ED2E0108ED2E0108ED2E0108D0
:1000A000ED2E0108ED2E0108ED2E0108ED2E0108C0
:1000B000ED2E0108ED2E0108ED2E0108ED2E0108B0
:1000C000ED2E0108ED2E0108ED2E0108C5170008E0
:1000D000D5170008ED2E0108ED2E0108ED2E0108C0
:1000E000ED2E0108ED2E010800000000ED2E0108A4
:1000F000ED2E0108ED2E0108ED2E0108E517000890
:10010000ED2E0108ED2E0108ED2E0108F51700086F
:10011000ED2E0108ED2E0108ED2E0108051800084E
:10012000151800082518000835180008451800089B
:100130005518000865180008ED2E0108ED2E01087D
:10014000ED2E0108ED2E0108000000000000000067
:10015000751800088518000895180008ED2E01088C
:10016000ED2E0108ED2E0108ED2E0108ED2E0108FF
:10017000ED2E0108ED2E0108ED2E01080000000013
:10018000ED2E0108ED2E0108ED2E0108ED2E0108DF
:10019000A5180008ED2E0108ED2E0108ED2E01082E
:1001A000ED2E0108ED2E0108ED2E0108ED2E0108BF
:1001B000ED2E0108ED2E0108ED2E0108ED2E0108AF
:1001C000ED2E0108ED2E0108ED2E0108ED2E01089F
:1001D000ED2E0108ED2E0108ED2E0108ED2E01088F
:1001E000ED2E0108ED2E0108ED2E0108ED2E01087F
:1001F000ED2E0108ED2E0108ED2E0108ED2E01086F
:10020000ED2E0108ED2E0108ED2E0108ED2E01085E
:10021000ED2E0108ED2E0108ED2E0108ED2E01084E
:10022000ED2E0108ED2E0108ED2E01080000000062
:10023000ED2E0108ED2E0108ED2E0108ED2E01082E
:10024000ED2E0108ED2E0108ED2E0108ED2E01081E
:10025000ED2E0108ED2E0108ED2E0108ED2E01080E
:10026000ED2E0108ED2E0108ED2E0108ED2E0108FE
:10027000ED2E0108ED2E0108ED2E0108ED2E0108EE
:10028000ED2E0108ED2E0108ED2E01080000000002
:08029000ED2E0108ED2E01081E
:1002A00010B5054C237833B9044B13B10448AFF3B0
:1002B00000800123237010BD98000024000000007E
:1002C000BC3D010808B5034B1BB103490348AFF31C
:1002D000008008BD000000009C000024BC3D010817
:1002E00053B94AB9002908BF00281CBF4FF0FF319D
:1002F0004FF0FF3000F072B9ADF1080C6DE904CE9B
:1003000000F006F8DDF804E0DDE9022304B07047F0
:100310002DE9F047089E04468846002B4BD18A42BF
:10032000154667D9B2FA82F24AB1C2F1200701FA42
:1003300002F320FA07F7954047EA030894404FEA92
:10034000154E230CB8FBFEF71FFA85FC0EFB178831
:1003500043EA084307FB0CF1994209D9EB1807F16E
:10036000FF3080F01B81994240F21881023F2B44FC
:100370005B1AA4B2B3FBFEF00EFB103344EA034455
:1003800000FB0CFCA44509D92C1900F1FF3380F0C7
:100390000781A44540F2048102382C4440EA07401A
:1003A000A4EB0C0400271EB1D4400023C6E900438F
:1003B0003946BDE8F0878B4209D9002E00F0EB806A
:1003C0000027C6E9000138463946BDE8F087B3FA90
:1003D00083F7002F47D18B4202D3824200F2FA808A
:1003E000841A61EB030301209846002EE0D0C6E991
:1003F0000048DDE702B9FFDEB2FA82F2002A40F0DF
:100400008F80491B4FEA154E1FFA85F80127B1FB73
:10041000FEFC230C0EFB1C1143EA014308FB0CF10C
:10042000994207D9EB180CF1FF3002D2994200F241
:10043000CD808446591AA3B2B1FBFEF00EFB101416
:1004400043EA044408FB00F8A04507D92C1900F141
:10045000FF3302D2A04500F2B6801846A4EB080490
:1004600040EA0C409FE7C7F1200CBB4022FA0CFE8B
:100470004EEA030E01FA07F420FA0CF521FA0CF308
:100480004FEA1E482543B3FBF8F92C0C08FB19333F
:100490001FFA8EFA44EA034309FB0AF49C4202FA6B
:1004A00007F200FA07F10BD91EEB030309F1FF3045
:1004B00080F087809C4240F28480A9F10209734455
:1004C0001B1BADB2B3FBF8F008FB103345EA034445
:1004D00000FB0AFAA24508D91EEB040400F1FF3321
:1004E0006BD2A24569D90238744440EA0940A0FBA6
:1004F0000289A4EB0A044C45C2464B4654D351D062
:10050000002E69D0B1EB0A0564EB030404FA0CFC7D
:10051000FD40FC404CEA0505C6E90054002747E7CA
:10052000C2F1200320FA03F7954001FA02F021FA04
:1005300003F34FEA154E3843010CB3FBFEF71FFAE5
:1005400085F80EFB173341EA034107FB08F38B42A2
:1005500004FA02F407D9691807F1FF3C2FD28B4245
:100560002DD9023F2944CB1A81B2B3FBFEF00EFB1A
:10057000103341EA034100FB08F38B4207D96918A5
:1005800000F1FF3C17D28B4215D902382944C91A11
:1005900040EA07473BE73746304609E70746E7E6C4
:1005A0001846FBE64145ABD2B8EB020A69EB0E02F6
:1005B00001381346A4E76046E9E7184695E7674621
:1005C000D1E781467CE702382C4447E7ACF1020CC6
:1005D0002B442FE7384608E73746E9E6704700BF67
:1005E00001F0FF01102A2BDB10F0070F08D010F8E4
:1005F000013B013A8B422DD010F0070F42B3F6D1E8
:10060000F0B441EA012141EA014122F007047FF000
:1006100000070023F0E80256083C85EA010586EA57
:10062000010685FA47F5A3FA87F586FA47F6A5FA93
:1006300087F68EB9EED1F0BC01F0FF0102F007029F
:1006400032B110F8013B013A83EA010313B1F8D14A
:100650000020704701387047002D06BF354603382B
:10066000073815F0010F07D1013015F4807F02BF64
:10067000013015F4C03F0130F0BC0138704700BFB5
:1006800008B50848084B03600023037143714361B8
:1006900083610123036202F009FA00B908BD00F08A
:1006A00047FCFBE7705D0024004C025802680A4BCF
:1006B0009A4200D0704782B0A3F50063D3F8E020DF
:1006C00042F40022C3F8E020D3F8E03003F4002322
:1006D0000193019B02B07047004C025800B583B0F3
:1006E0004D4BD3F8D82042F00102C3F8D820D3F8FC
:1006F000D82002F001020092009AD3F8D82042F0EC
:100700000202C3F8D820D3F8D83003F002030193D3
:10071000019B002205210B2002F030F90B2002F092
:100720005FF9002205210C2002F028F90C2002F0CC
:1007300057F9002205210D2002F020F90D2002F0CA
:100740004FF9002205210E2002F018F90E2002F0C8
:1007500047F9002205210F2002F010F90F2002F0C6
:100760003FF900220521102002F008F9102002F0C4
:1007700037F900220521112002F000F9112002F0C2
:100780002FF9002205212F2002F0F8F82F2002F087
:1007900027F900221146382002F0F0F8382002F044
:1007A0001FF900221146392002F0E8F8392002F042
:1007B00017F9002211463A2002F0E0F83A2002F040
:1007C0000FF9002211463B2002F0D8F83B2002F03E
:1007D00007F9002211463C2002F0D0F83C2002F03C
:1007E000FFF800221146442002F0C8F8442002F02D
:1007F000F7F800221146452002F0C0F8452002F02B
:10080000EFF800221146462002F0B8F8462002F028
:10081000E7F803B05DF804FB0044025808B501F0A6
:10082000EBFA012007F03AFDFBE7000008B5044AA7
:100830000021044807F0C8FC034B186008BD00BF46
:10084000D43D01081D080008945D002488B0314B98
:10085000D3F8E02042F01002C3F8E020D3F8E02003
:1008600002F010020092009AD3F8E02042F0200239
:10087000C3F8E020D3F8E02002F020020192019AB0
:10088000D3F8E02042F08002C3F8E020D3F8E02063
:1008900002F080020292029AD3F8E02042F00402B1
:1008A000C3F8E020D3F8E02002F004020392039A98
:1008B000D3F8E02042F00102C3F8E020D3F8E020B2
:1008C00002F001020492049AD3F8E02042F00202FE
:1008D000C3F8E020D3F8E02002F002020592059A66
:1008E000D3F8E02042F00802C3F8E020D3F8E0207B
:1008F00002F008020692069AD3F8E02042F0400285
:10090000C3F8E020D3F8E03003F040030793079BDF
:1009100008B070470044025808B51448144B0360EF
:10092000144B4360002383600122C2600361436172
:100930008361C361036204F01BFB68B900210B48AB
:1009400004F074FB58B90021084804F09DFB48B935
:10095000012004F0C5FB08BD00F0EAFAEEE700F064
:10096000E7FAF0E700F0E4FAF2E700BF305E0024B7
:10097000005400404212400008B51248124B036078
:10098000124B4360002383600122C2600361436114
:100990008361C361036204F0EBFA50B90021094896
:1009A00004F044FB40B90021064804F06DFB30B967
:1009B00008BD00F0BDFAF1E700F0BAFAF3E700F085
:1009C000B7FAF5E77C5E002400580040FFECC01049
:1009D00008B51248124B0360124B4360002383603A
:1009E0000122C260036143618361C361036204F059
:1009F000BFFA50B90021094804F018FB40B90021A2
:100A0000064804F041FB30B908BD00F091FAF1E767
:100A100000F08EFAF3E700F08BFAF5E7985D00241A
:100A2000005C0040FFECC01008B51248124B036098
:100A3000124B4360002383600122C2600361436163
:100A40008361C361036204F093FA50B9002109483D
:100A500004F0ECFA40B90021064804F015FB30B967
:100A600008BD00F065FAF1E700F062FAF3E700F084
:100A70005FFAF5E7E45D0024001C0058FFECC010AD
:100A800070B58EB0002309930A930B930C930D93CA
:100A900003685D4A93420BD05C4A93422CD05C4A77
:100AA00093424ED05B4A934200F088800EB070BDF6
:100AB000594CD4F8E03043F00203C4F8E030D4F8E5
:100AC000E03003F002030093009BC023099312233C
:100AD0000A9304230D9309A9504804F03BF9D4F874
:100AE000E83043F40013C4F8E830D4F8E83003F4F5
:100AF00000130193019BD9E7474CD4F8E03043F051
:100B00000203C4F8E030D4F8E03003F002030293AB
:100B1000029B4FF44063099312230A9304230D931D
:100B200009A93E4804F016F9D4F8E83043F48003EC
:100B3000C4F8E830D4F8E83003F480030393039B4F
:100B4000B4E7354CD4F8E03043F00403C4F8E030A7
:100B5000D4F8E03003F004030493049BD4F8E030AD
:100B600043F00103C4F8E030D4F8E03003F00103AF
:100B70000593059B4FF40073099312260A960425EA
:100B80000D9509A9264804F0E5F84FF48073099300
:100B90000A9600230B930C930D9509A9214804F0A4
:100BA000D9F8D4F8E83043F40003C4F8E830D4F8B6
:100BB000E83003F400030693069B77E7164CD4F85D
:100BC000E03043F02003C4F8E030D4F8E03003F024
:100BD00020030793079B4FF44043099312230A9382
:100BE00004230D9309A9104804F0B4F8D4F8F430A4
:100BF00043F08003C4F8F430D4F8F43003F08003F9
:100C00000893089B52E700BF005400400058004082
:100C1000005C0040001C00580044025800040258C8
:100C200000080258000002580014025808B508488D
:100C3000084B03600023436040F6FF73C36083608A
:100C400004F066FA00B908BD00F072F9FBE700BFD6
:100C5000C85E002400480058F0B585B00024009418
:100C600001940294039401F0C9FE01258DF800500F
:100C70008DF801401A4F01970E238DF808308DF83A
:100C800009408DF80A5003268DF80B608DF80C5042
:100C90008DF80D408DF80E408DF80F40684601F03C
:100CA000CFFE8DF800508DF80150019707238DF885
:100CB00008308DF809408DF80A408DF80B608DF8EA
:100CC0000C508DF80D508DF80E408DF80F50684681
:100CD00001F0B6FE042001F0A1FE05B0F0BD00BF9A
:100CE0000000043070B5CCB04C22002139A812F0BD
:100CF0003DF92022002131A812F038F9BC22002150
:100D000002A812F033F9022004F02EFA0023019316
:100D1000294BDA6A22F00102DA62DB6A03F001038E
:100D20000193264B9A6942F440429A619B6903F40D
:100D300040430193019B214B9B6913F4005FFAD060
:100D4000092339934FF4A0233A9301233E930225BC
:100D50004295439544954026459646954795489536
:100D60000C23499300244A944B9439A804F0C4FA04
:100D70003F233193032332933394082334933596DE
:100D800036964FF4806337933896294631A804F09D
:100D9000CDFE0B4B0293149419941A941D941F9436
:100DA0002094229427944FF400732E9302A805F008
:100DB00083F94CB070BD00BF0004005800480258D1
:100DC0001BB0400210B582B0FFF746FFBFF34F8F54
:100DD000BFF36F8F4E4B0021C3F85012BFF34F8FFC
:100DE000BFF36F8F5A6942F400325A61BFF34F8FDD
:100DF000BFF36F8FC3F88410BFF34F8FD3F88040D9
:100E0000C4F34E310FE01A4643F6E07303EA411390
:100E100043EA82733E48C0F86032531E002AF2D182
:100E20004B1E19B11946C4F3C902EDE7BFF34F8F4A
:100E3000436943F480334361BFF34F8FBFF36F8F38
:100E40004FF6FF7300E01346324A126812F4004F67
:100E500002D05A1E002BF6DC01F02EFDFFF742FFF8
:100E60002C4BD3F8E02042F00072C3F8E020D3F816
:100E7000E03003F000730193019B002004F060F860
:100E80000021084604F06CF84FF6FF7300E01346AB
:100E9000204A126812F4004F02D15A1E002BF6DCD1
:100EA000FFF7D4FCFFF71AFCFFF7EAFBFFF734FD6E
:100EB000FFF762FDFFF78CFD00F03CF800F012F93F
:100EC00000F03EF900F06AF900F096F900F0F2FC4B
:100ED00000F024FD00F056FDFFF7A6FDFFF7A6FE8B
:100EE00000F084FD00F0D4F8002001F081FC012026
:100EF00001F07EFC012001F0CBFC002001F0C8FCD9
:100F000007F008F9FFF792FC07F024F9FEE700BFAD
:100F100000ED00E00044025808B50268034B9A4215
:100F200000D008BD01F0F6FCFBE700BF0014004054
:100F30007047000008B50A480A4B0360FF2343606E
:100F4000012282600023C360026143618361C36147
:100F5000036204F07BF900B908BDFFF7E9FFFBE786
:100F6000D85E0024005000522DE9F0418AB00023E1
:100F70000593069307930893099302683E4B9A42A0
:100F800002D00AB0BDE8F0813C4BD3F8D42042F443
:100F90008042C3F8D420D3F8D42002F480420092D7
:100FA000009AD3F8E02042F01002C3F8E020D3F812
:100FB000E02002F010020192019AD3F8E02042F002
:100FC0002002C3F8E020D3F8E02002F020020292D1
:100FD000029AD3F8E02042F00802C3F8E020D3F8E8
:100FE000E02002F008020392039AD3F8E02042F0D6
:100FF0004002C3F8E020D3F8E03003F0400304934C
:10100000049B04230593022506950926099605A944
:101010001B4803F09FFE4FF4886305930695002458
:10102000079408940996DFF8648005A9404603F008
:1010300091FE4FF4007305930695079408940A27D0
:10104000099705A9404603F085FE4FF40063059318
:10105000069507940894099605A90A4803F07AFEB4
:1010600040230593069507940894099705A9064817
:1010700003F070FE85E700BF0050005200440258A4
:1010800000100258000C02580018025800140258B0
:1010900008B50A480A4B0360002343607F22826040
:1010A000FF22C26003618361C361436105F010FFE9
:1010B00000B908BDFFF73CFFFBE700BF245F002439
:1010C000004000580268054B9A4200D07047044A1D
:1010D000136F43F400431367F8E700BF0040005864
:1010E0000044025808B51448144B03604FF48003C1
:1010F0004360002383600322C260036143614FF0B9
:10110000806282614FF08052C261036243628362F7
:10111000C3624FF0804242638363C36303644364EA
:101120008364C36403654365836505F08FFF00B97D
:1011300008BDFFF7FDFEFBE7C06200240030014060
:1011400008B51448144B03604FF480034360002338
:1011500083600322C260036143614FF08062826159
:101160004FF08052C261036243628362C3624FF0F8
:10117000804242638363C363036443648364C364E0
:1011800003654365836505F061FF00B908BDFFF79E
:10119000CFFEFBE7485F00240038004008B5144844
:1011A000144B03604FF480034360002383600322E9
:1011B000C260036143614FF0806282614FF08052F0
:1011C000C261036243628362C3624FF08042426342
:1011D0008363C363036443648364C36403654365D7
:1011E000836505F033FF00B908BDFFF7A1FEFBE7FB
:1011F000C0600024003C004008B51348134B036056
:101200004FF480034360002383600322C2600361C4
:1012100043614FF080628261C36103624362836213
:10122000C3624FF0804242638363C36303644364D9
:101230008364C36403654365836505F007FF00B9F4
:1012400008BDFFF775FEFBE738620024003401405B
:1012500070B590B0044600230B930C930D930E933E
:101260000F930368814A93420DD0814A934200F064
:101270008380804A934200F019817F4A934200F0B4
:10128000908110B070BD7D4BD3F8F02042F48052B5
:10129000C3F8F020D3F8F02002F480520092009AB4
:1012A000D3F8E02042F00102C3F8E020D3F8E020B8
:1012B00002F001020192019AD3F8E02042F0080204
:1012C000C3F8E020D3F8E03003F008030293029B58
:1012D00060230B9302250C9505260F960BA96848F1
:1012E00003F038FD80230B930C9500250D950E958A
:1012F0000F960BA9634803F02DFD6348634B036011
:10130000252343608560C5604FF4806303614561B8
:101310008561C5614FF440330362456201F078FD99
:1013200020BB594BE3679C6359485A4B0360262303
:101330004360402383600023C3604FF480620261F6
:1013400043618361C3614FF440320262436201F042
:101350005FFD70B94E4BA3679C63002205212320DB
:1013600001F00CFB232001F03BFB8AE7FFF7E0FDD7
:10137000D7E7FFF7DDFDEDE7404BD3F8E82042F477
:101380008042C3F8E820D3F8E82002F480420392B8
:10139000039AD3F8E02042F00402C3F8E020D3F827
:1013A000E02002F004020492049AD3F8E02042F014
:1013B0000102C3F8E020D3F8E03003F00103059305
:1013C000059B0C230B9302250C9505260F960BA964
:1013D000314803F0BFFC4FF400730B930C950025CC
:1013E0000D950E950F960BA9254803F0B3FC2B48DD
:1013F0002B4B0360272343608560C5604FF48063F7
:10140000036145618561C5614FF400330362456244
:1014100001F0FEFC20BB214BE3679C632148224B7B
:10142000036028234360402383600023C3604FF49C
:101430008062026143618361C3614FF400320262E2
:10144000436201F0E5FC70B9164BA3679C63002270
:101450000521242001F092FA242001F0C1FA10E7BE
:10146000FFF766FDD7E7FFF763FDEDE700300140CA
:1014700000380040003C0040003401400044025865
:1014800000000258000C025848630024100002407B
:10149000386400242800024000080258D05F00246D
:1014A00040000240C0630024580002406D4BD3F856
:1014B000E82042F40042C3F8E820D3F8E82002F420
:1014C00000420692069AD3F8E02042F00202C3F8E6
:1014D000E020D3F8E02002F002020792079AD3F846
:1014E000E02042F00402C3F8E020D3F8E03003F03B
:1014F00004030893089B04230B9302250C950723F0
:101500000F930BA9584803F025FC4FF440630B934D
:101510000C9500250D950E9506230F930BA95348A6
:1015200003F018FC5248534B03603D234360856031
:10153000C5604FF48063036145618561C5614FF407
:1015400080330362456201F063FC20BB484BE367D4
:101550009C634948494B03603E23436040238360BA
:101560000023C3604FF48062026143618361C36101
:101570004FF480320262436201F04AFC70B93E4B84
:10158000A3679C6300220521332001F0F7F9332083
:1015900001F026FA75E6FFF7CBFCD7E7FFF7C8FCAA
:1015A000EDE7304BD3F8F02042F40052C3F8F020BE
:1015B000D3F8F02002F400520992099AD3F8E020FF
:1015C00042F01002C3F8E020D3F8E03003F010033B
:1015D0000A930A9B4FF483530B9302230C93052326
:1015E0000F930BA9264803F0B5FB2648264B036052
:1015F0005323436000238360C3604FF48062026121
:1016000043618361C3610362436201F001FC10BB6B
:101610001C4BE3679C631D481D4B036054234360D0
:10162000402383600023C3604FF480620261436102
:101630008361C3610362436201F0EAFB70B9134B3B
:10164000A3679C6300220521542001F097F95420E0
:1016500001F0C6F915E6FFF76BFCD9E7FFF768FC68
:10166000EDE700BF00440258000402580008025889
:10167000B0640024700002404861002488000240E9
:101680000010025848600024A0000240C0610024FD
:10169000B800024000B583B00A4BD3F8F42042F002
:1016A0000202C3F8F420D3F8F43003F002030193EC
:1016B000019B00220F216FF0010001F05FF903B0E0
:1016C0005DF804FB0044025800B58BB000220146CF
:1016D000372001F053F9372001F082F9164BD3F887
:1016E000E82042F02002C3F8E820D3F8E83003F005
:1016F00020030093009B01A902A804F0A7FB04F0BB
:1017000081FB43000D48A0FB03239B0C013B0C48CD
:101710000C4A026040F2E732C2604360002303617A
:10172000836005F0EBFF18B101200BB05DF804FBFE
:10173000034805F06FFEF8E70044025883DE1B43C0
:1017400028650024001400407047FEE7FEE7FEE72E
:10175000FEE7704708B5024801F06EFE08BD00BF05
:101760004863002408B5024801F066FE08BD00BFCA
:101770003864002408B5024801F05EFE08BD00BFD1
:10178000D05F002408B5024801F056FE08BD00BF36
:10179000C063002408B5024801F04EFE08BD00BF3A
:1017A000B064002408B5024801F046FE08BD00BF41
:1017B0004861002408B5024801F03EFE08BD00BFA4
:1017C0004860002408B5024805F0ECFC08BD00BFE5
:1017D000C062002408B5024805F0E4FC08BD00BF63
:1017E000485F002408B5024801F026FE08BD00BF8E
:1017F000C061002408B5024805F0D4FC08BD00BF54
:10180000C060002408B5024805F02AFE08BD00BFEC
:101810002865002408B5024801F00EFE08BD00BF8F
:10182000D068002408B5024801F006FE08BD00BFDC
:10183000E067002408B5024801F0FEFD08BD00BFC6
:101840006466002408B5024801F0F6FD08BD00BF3B
:101850006867002408B5024801F0EEFD08BD00BF2E
:101860007465002408B5024803F016F808BD00BFEF
:10187000B86C002408B5024801F0DEFD08BD00BFC9
:101880004869002408B5024801F0D6FD08BD00BF34
:10189000EC65002408B5024801F0CEFD08BD00BF8C
:1018A0005868002408B5024805F07CFC08BD00BF5C
:1018B0003862002408B51748174B03604FF4E13332
:1018C000436000238360C36003610C224261836133
:1018D000C36103624362836206F045FB70B9002175
:1018E0000C4806F0CCFB60B900210A4806F0ECFB7E
:1018F00050B9084806F0A4FB48B908BDFFF718FB2B
:10190000EDE7FFF715FBEFE7FFF712FBF1E7FFF756
:101910000FFBF2E7C06900240010014008B517482A
:10192000174B03604FF4E133436000238360C360CF
:1019300003610C2242618361C3610362436283627B
:1019400006F011FB70B900210C4806F098FB60B955
:1019500000210A4806F0B8FB50B9084806F070FBB1
:1019600048B908BDFFF7E4FAEDE7FFF7E1FAEFE762
:10197000FFF7DEFAF1E7FFF7DBFAF2E7D86A0024B7
:101980000044004008B51748174B03604FF4E1339B
:10199000436000238360C36003610C224261836162
:1019A000C36103624362836206F0DDFA70B900210D
:1019B0000C4806F064FB60B900210A4806F084FB7D
:1019C00050B9084806F03CFB48B908BDFFF7B0FA2B
:1019D000EDE7FFF7ADFAEFE7FFF7AAFAF1E7FFF758
:1019E000A7FAF2E7DC6600240048004008B5174873
:1019F000174B03604FF4E133436000238360C360FF
:101A000003610C2242618361C361036243628362AA
:101A100006F0A9FA70B900210C4806F030FB60B955
:101A200000210A4806F050FB50B9084806F008FBB0
:101A300048B908BDFFF77CFAEDE7FFF779FAEFE761
:101A4000FFF776FAF1E7FFF773FAF2E74C6A002442
:101A50000014014070B58EB00446002309930A9328
:101A60000B930C930D9303689C4A93420CD09C4AB1
:101A7000934265D09B4A934200F0D3809A4A9342A6
:101A800000F054810EB070BD984BD3F8F02042F0B6
:101A90001002C3F8F020D3F8F02002F010020092F8
:101AA000009AD3F8E02042F00202C3F8E020D3F815
:101AB000E03003F002030193019B4FF4404309938C
:101AC00002230A9304230D9309A9894803F042F9DC
:101AD0008848894B03602923436000238360C360E7
:101AE0004FF48062026143618361C3614FF440320D
:101AF0000262436201F08CF9E0B97E4BA3679C63FC
:101B00007E487F4B03602A23436040238360002389
:101B1000C3604FF48062026143618361C3614FF42B
:101B200040320262436201F073F930B9734B63676C
:101B30009C63A7E7FFF7FCF9DFE7FFF7F9F9F5E7A3
:101B40006A4BD3F8E82042F40032C3F8E820D3F817
:101B5000E82002F400320292029AD3F8E02042F028
:101B60000102C3F8E020D3F8E02002F00102039262
:101B7000039AD3F8E02042F00802C3F8E020D3F83B
:101B8000E03003F008030493049B08230993022523
:101B90000A9507260D9609A95A4803F0DBF8202379
:101BA00009930A9500250B950C950D9609A95648A1
:101BB00003F0D0F85548564B03602B2343608560F3
:101BC000C5604FF48063036145618561C5614FF471
:101BD00000330362456201F01BF9E0B94B4BA36788
:101BE0009C634C484C4B03602C2343604023836030
:101BF0000023C3604FF48062026143618361C3616B
:101C00004FF400320262436201F002F930B9414BF5
:101C100063679C6336E7FFF78BF9DFE7FFF788F927
:101C2000F5E7324BD3F8E82042F48022C3F8E820ED
:101C3000D3F8E82002F480220592059AD3F8E02038
:101C400042F00802C3F8E020D3F8E03003F00803C4
:101C50000693069B4FF44073099302230A930723CC
:101C60000D9309A9284803F075F82C482C4B036004
:101C70002D23436000238360C3604FF480620261C0
:101C800043618361C3614FF480320262436201F0B9
:101C9000BFF8E0B9214BA3679C632248224B036045
:101CA0002E234360402383600023C3604FF480628F
:101CB000026143618361C3614FF480320262436217
:101CC00001F0A6F830B9174B63679C63DAE6FFF7BB
:101CD0002FF9DFE7FFF72CF9F5E700BF001001400F
:101CE00000440040004800400014014000440258F5
:101CF00000040258D068002410040240E067002469
:101D00002804024000000258000C025874650024A8
:101D1000700402404869002488040240646600247C
:101D20004004024068670024580402402B4BD3F85B
:101D3000F02042F02002C3F8F020D3F8F02002F0A7
:101D400020020792079AD3F8E02042F00402C3F879
:101D5000E020D3F8E03003F004030893089BC0238D
:101D6000099302230A9307230D9309A91C4802F043
:101D7000F1FF1C481C4B0360472343600023836032
:101D8000C3604FF48062026143618361C361036297
:101D9000436201F03DF8D0B9124BA3679C6313482E
:101DA000134B036048234360402383600023C360D8
:101DB0004FF48062026143618361C36103624362E5
:101DC00001F026F830B9094B63679C635AE6FFF7C8
:101DD000AFF8E1E7FFF7ACF8F5E700BF00440258C1
:101DE00000080258EC650024A00402405868002452
:101DF000B80402407047000030B585B000210846A5
:101E000008F0E2FE1D49002008601D4A10601D4BCD
:101E100018601D4C1D4D02951D4D019500902046EA
:101E200009F00EFC204609F09DFC94F8313013F0C7
:101E3000040F1FD1144809F0B9FC134C1549204672
:101E400009F01AFD144D20220021284611F08EF8C9
:101E50002A1F124B45F8043C4FF480635361102352
:101E6000936121460E4806F0AFF920460FF0F8F9CD
:101E700005B030BD204609F07BFCDEE7C06B0024D6
:101E8000C46B0024C86B0024886B002441AB00089D
:101E900095230008F51D0008686B0024D03F010859
:101EA000E52300080020704710B590B0002403948B
:101EB0003022214604A811F059F8214602290ED8F3
:101EC0004A1C02EB4203980004AB184401EB4101A9
:101ED0008B0010A90B4443F8280C1146EEE704A927
:101EE000184802F028FC48BB164C03A9204602F013
:101EF00073FC204602F08BFC039B049ABFF34F8FC8
:101F000004E01149C1F85C222032203B002BF8DCB0
:101F1000BFF34F8FBFF36F8F0C4809F069FA034688
:101F200070B10B4A0261BDF80C100191049A009245
:101F30004122002009F06AFD10B010BD0020FBE72F
:101F40000020F9E7B86C002400ED00E0F83D01083E
:101F5000D121000838B505464FF0FF310B4B18680A
:101F600006F0FCFA0028F7D101E0002CF4D0284656
:101F7000FFF79AFF04460028F7D02B6929469847B7
:101F80000028F2D0204609F0ADFDEEE7B4000024B1
:101F900030B58DB00C4630220021684610F0E6FFC7
:101FA0002246002303E01168F1B10133126822B325
:101FB000032B2DD855685800184481000CA8014403
:101FC00041F8305C508941F82C0C002BEBD0591EA5
:101FD00003EB430085006D4401EB410188000CA92F
:101FE000084440F8285CDEE703EB430081000CA8BE
:101FF0000144002041F8280CD7E7238906494B60AB
:10200000C1F808D01422054802F0B4FA002001E01B
:102010006FF00B000DB030BD286D0024B86C0024AB
:102020002DE9F041A4B005465D4E5E4B33600024BF
:102030008DF8004080238DF80130E1238DF80230C7
:102040008DF803408DF804408DF80540C6F804D0A3
:1020500001233372544BF360544B336140F2F45319
:102060007361304602F032F90746DFF860813022B2
:102070002146404610F07AFF212348F8043C4FF4F3
:102080004033C8F810304A4809F08EF9062385F825
:10209000303073681A7885F82A205A7885F82B2012
:1020A0009A7885F82C20DA7885F82D201A7985F829
:1020B0002E205B7985F82F3040F2DC532B8595F884
:1020C000313043F00A0385F831300AE0002340F252
:1020D000F451384A01FB04222146314802F08EF9BE
:1020E0000134032CF2D900220121084606F0C6F97A
:1020F000314B1860202200211CA810F037FF2F4B15
:102100001B934FF4AF732093302321931BAA2946CE
:102110002B4806F059F82B4C2B49204600F080FA4A
:10212000204600F09CFAAFBB204600F0FFFA0128E1
:102130001EDD042823D0052825D0032826D04FF4FF
:1021400080464FF40057164C02A9204602F0C6FC08
:102150000897079602A9204602F0B3FD204602F038
:1021600073F9284609F004FB284609F03FFB13E009
:10217000284609F063FB284609F018FB0CE000260E
:102180004FF40057DFE700263746DCE74FF4804680
:102190000027D8E7FEF7CCFE24B0BDE8F08100BFF1
:1021A000B86C00240080024060000430000004305D
:1021B000F83D010800020430B4000024D83F0108B3
:1021C000551F0008986C0024000000242C6D00248A
:1021D00008B50146014809F03DF908BDF83D010880
:1021E00008B500F0A3FB08BD08B5024802F076FD73
:1021F000002008BDB86C002408B513460A46014605
:10220000044802F007FC08B9002008BD4FF0FF3079
:10221000FBE700BFB86C002408B513460A46014628
:10222000044802F027FC08B9002008BD4FF0FF3039
:10223000FBE700BFB86C0024F0B58DB00023079316
:10224000089309930A930B930268484B9A4201D072
:102250000DB0F0BD464BD3F8D82042F40042C3F88D
:10226000D820D3F8D82002F400420092009AD3F884
:10227000D82042F48032C3F8D820D3F8D82002F412
:1022800080320192019AD3F8D82042F40032C3F888
:10229000D820D3F8D82002F400320292029AD3F860
:1022A000E02042F00402C3F8E020D3F8E02002F07E
:1022B00004020392039AD3F8E02042F00102C3F82B
:1022C000E020D3F8E02002F001020492049AD3F84F
:1022D000E02042F00202C3F8E020D3F8E02002F050
:1022E00002020592059AD3F8E02042F04002C3F8BA
:1022F000E020D3F8E03003F040030693069B32233E
:1023000007930227089703260A960B250B9507A922
:10231000184802F01FFD86230793089700240994AC
:102320000A960B9507A9144802F014FD4FF4405388
:102330000793089709940A960B9507A90F4802F08E
:1023400009FD4FF400630793089709940A960B95CB
:1023500007A90B4802F0FEFC224605213D2000F0B3
:102360000DFB3D2000F03CFB72E700BF0080024007
:1023700000440258000802580000025800040258A5
:102380000018025808B5024B186806F02BF908BD72
:10239000B400002410B5044670B1732384F83230C1
:1023A000742384F83330084B6361084BA3612046E3
:1023B000FFF736FE002010BD054B40F24D220549C7
:1023C000054810F0DBFDE8E70D1C0108911F00082F
:1023D000E03F0108004001081040010808B500F086
:1023E000A5FA08BD2DE9F0419AB004460026B04692
:1023F000354621E02A4802F075F8204609F0D6F962
:10240000204609F01BFA14E000264FF4804801250D
:102410000EE04FF400564FF00008012508E00026BA
:10242000B046012504E04FF400564FF480480125E2
:1024300005BB642005F032FF1A4800F077F994F8E4
:10244000313013F0040F01D00128D3D913F0040F59
:10245000EFD10128EDD902380328E9D801A353F8B8
:1024600020F000BF272400080924000813240008D6
:102470001F2400080A4F01A9384602F02FFB0796D7
:10248000CDF8188001A9384602F01BFC384601F04F
:10249000DBFF204609F06CF9204609F0A7F9C8E7F0
:1024A000B86C0024986C002470B50D4616460024C4
:1024B00004E0AFF30080287001340135B442F8DB4A
:1024C000304670BD70B51646002405E04D1C0878F6
:1024D000AFF3008001342946B442F7DB304670BDCB
:1024E00003460B4A126842B1094A106803446A461F
:1024F000934206D8064A13607047054A05491160A1
:10250000F2E7054B0C221A604FF0FF30704700BF16
:10251000BC000024D09E0024C89E00244FF0FF3051
:1025200070474FF400534B60002070470120704704
:10253000002070472E4BD3F8882042F47002C3F875
:1025400088201A6942F010021A612A4B1B6803F0B6
:102550000F03062B06D8274A136823F00F0343F016
:1025600007031360244B1A6842F001021A6000222C
:102570001A611968214A0A401A601E4B1B6803F051
:102580000F03072B06D91B4A136823F00F0343F0F0
:1025900007031360184B00229A61DA611A62184926
:1025A00099621849D962184919635A639963DA63C1
:1025B00019645A64196821F4802119601A66134A53
:1025C000536A43F480435362114B1A68114B134012
:1025D000B3F1005F02D2104B01221A600F4B43F29D
:1025E000D2021A60024B4FF000629A60704700BF3F
:1025F00000ED00E000200052004402587FEDF6EAB2
:10260000000202020000FF0180020101C000005828
:102610000010005C0000FFFF0881005100400052E4
:1026200088B1CA6892B18A689AB10A69A2B10A6887
:1026300082604A68C260CA6842618A6802610A6947
:102640008261002070474FF0FF3070474FF0FF303D
:1026500070474FF0FF3070474FF0FF30704770B554
:1026600082B0044600230193456875B10026A36932
:1026700098470546A3699847401BB0F5FA6FF9D90A
:1026800001236360304602B070BD836803B1984790
:1026900020232360002602E06FF0040601351F2D81
:1026A0000DD8636901AA1221284698470028F3DB58
:1026B000019B03F01F03AB42F0D125600026206888
:1026C0001F2825D836BB23694FF4004200219847C4
:1026D000002825DB636901AA0021206898470028AB
:1026E00021DBA36998470546019B13F4004F11D0E5
:1026F000A3699847401BB0F5FA7F0ED8636901AA19
:102700000021206898470028EEDA6FF0040601E007
:102710006FF00206002EAAD0B4E76FF00106F9E7C9
:102720006FF00306AEE76FF00406ABE710B582B0BA
:10273000044602AA002342F8043D436901210068CF
:102740009847002839DB636901AA0121206898476E
:10275000002835DB019B13F0040F34D0636901AA14
:1027600000212068984700282FDB019B13F4805F2D
:1027700014D0636901AA1F212068984700282DDB27
:10278000019B13F4805F2CD003F01C03182B2BD07B
:10279000082B2BD0142B0ED0052023E003F4045279
:1027A000B2F5045F14D013F4005F13D113F4807FEB
:1027B00012D0042016E0042014E06FF0040011E0B1
:1027C0006FF004000EE001200CE06FF0040009E05F
:1027D000022007E0032005E0052003E06FF004007D
:1027E00000E0062002B010BD0220FBE70320F9E75D
:1027F000022846D870B588B028BB234BD3F8E02018
:1028000042F00202C3F8E020D3F8E03003F0020304
:102810000093009B1D4B33F8106003960122049235
:10282000002405940322069203EB8000856803A927
:10283000284602F08FFA22463146284602F07AFBFB
:10284000204608B070BD01280DD00F4BD3F8E02012
:1028500042F00202C3F8E020D3F8E03003F00203B4
:102860000293029BD6E7084BD3F8E02042F0100217
:10287000C3F8E020D3F8E03003F010030193019B8C
:10288000C8E76FF00100704700440258143E010889
:1028900002280BD810B5074B03EB8004012233F854
:1028A0001010A06802F046FB002010BD6FF0010080
:1028B000704700BF143E010810B5032000F04CF82B
:1028C00003F03EF80F498B69C3F303230E4AD35C30
:1028D00003F01F03D8408B6903F00F03D35C03F0B0
:1028E0001F0320FA03F3094A1360094B1860002004
:1028F000FEF7EAFE10B10124204610BD0446FEF7A3
:10290000C9FEF9E700440258043E010814000024FF
:1029100018000024034B1B78034A11680B44136012
:10292000704700BF1C0000245C6D0024014B186838
:10293000704700BF5C6D0024014B1868000C7047A5
:102940000010005C034A536823F46003184350608E
:10295000704700BF000400580649CB6823F4E063C9
:102960001B041B0C000200F4E0600343024A1A43FC
:10297000CA60704700ED00E00000FA0530B4154B66
:10298000DB68C3F30223C3F10704042C28BF04242B
:102990001D1D062D14D9033B4FF0FF3505FA04F435
:1029A00021EA0401994005FA03F322EA03031943DB
:1029B000002807DB0901C9B2074B195430BC704726
:1029C0000023E9E700F00F000901C9B2034B1954D5
:1029D000F4E700BF00ED00E000E400E014ED00E0EB
:1029E000002807DB00F01F02400901239340024A40
:1029F00042F82030704700BF00E100E0BFF35F8F76
:102A0000044A536A23F480335362034B00225A6012
:102A1000704700BF00ED00E090ED00E040F00100E5
:102A2000054B5860054A536A43F480335362BFF341
:102A30004F8FBFF36F8F704790ED00E000ED00E027
:102A40004278134B9A60037823B9114B0022DA6065
:102A50001A61704743680E4AD360017BC37A1B0634
:102A600043EA0173817A43EAC143417B43EA8143EC
:102A7000817B43EA4143C17B43EA0143417A43EA14
:102A80000123017A43EA410301780B431361704744
:102A900090ED00E0044B1B68C3F30313072B01D038
:102AA000012070470320704700ED00E0002838D077
:102AB00010B50446437F1BB30223637723791BBB06
:102AC0002368194A5A612268936823F018039360B7
:102AD000637913BB23684FF0FF321A612268936851
:102AE00023F0600361690B4393602268936823F0CD
:102AF0008003A1690B43936001236377002010BD1D
:102B00000377FDF7D3FDD7E7E268A168204600F020
:102B10000DF80028DCD00120F1E7236822691A6152
:102B2000DCE70120704700BFB71DC10430B41F248B
:102B3000651E3CB105F01F0321FA03F32C4613F088
:102B4000010FF5D0182A23D8DFE802F00F22222245
:102B5000222222221E222222222222221A22222261
:102B6000222222220D00062D14D803685961016823
:102B70008B6823F018031A438A60002030BC70472A
:102B8000072DF2D90120F9E70F2DEED90120F5E745
:102B90000120F3E70120F1E702682849284B9A4217
:102BA00018BF8A422FD018339A422CD018339A4239
:102BB00029D018339A4226D018339A4223D018339A
:102BC0009A4220D018339A421DD003F556739A4288
:102BD00019D018339A4216D018339A4213D01833AA
:102BE0009A4210D018339A420DD018339A420AD024
:102BF00018339A4207D018339A4204D022F0FF02C9
:102C00008265806D704710B4D3B2103B0D49A1FBB3
:102C100003131B0903F007010B4C615CC165032B17
:102C200006D80A4B13408365806D5DF8044B7047EE
:102C3000064B134004338365F6E700BF10000240E3
:102C400028000240ABAAAAAA283E010800FCFFFF08
:102C500083699BB9836A012B0AD01BB1022B01D077
:102C600000207047C36A13F0807F2ED10020704788
:102C7000C36AB3F1C07F2AD000207047B3F5005F6C
:102C800006D0836A022B2AD9032B16D00020704766
:102C9000836A032B03D8DFE803F01C041C0A00201E
:102CA0007047C36A13F0807F15D100207047C36A54
:102CB000B3F1C07F11D000207047C36A13F0807F4A
:102CC00001D001207047002070470120704701208B
:102CD0007047012070470120704701207047012094
:102CE0007047000003682249224A934218BF8B4272
:102CF00028D01432934225D01432934222D0143279
:102D000093421FD0143293421CD01432934219D0F4
:102D10001432934216D0DAB2103A1749A1FB0212CC
:102D2000120916491944A8291FD9154B13449B00B1
:102D30000366144B436602F01F02012303FA02F2FA
:102D400082667047DBB2083B0F4AA2FB03231B09D4
:102D50000E4A1A44920002660D4A426603F01F03AF
:102D6000012202FA03F3836670470832DDE700BFF1
:102D7000085402581C540258ABAAAAAAF0FBFDBF83
:102D80000082001080080240CDCCCCCC009600160A
:102D90008058025801794A1E072A2CD830B403689B
:102DA000154D164CA34218BFAB4218D01434A342A1
:102DB00015D01434A34212D01434A3420FD01434CB
:102DC000A3420CD01434A34209D01434A34206D039
:102DD0000B4B0B449B00C3660A4B036705E00A4B91
:102DE0000B449B00C366094B0367012303FA02F2FD
:102DF000426730BC70477047085402581C54025850
:102E00003F820010400902403F9600164059025888
:102E100070B50446FFF78AFD002C00F0BD81054621
:102E20002368B749B74A934218BF8B420CBF0122AF
:102E3000002250D030318B424DD018318B424AD0D5
:102E400018318B4247D018318B4244D018318B4215
:102E500041D018318B423ED001F556718B423AD0A9
:102E600018318B4237D018318B4234D018318B4215
:102E700031D018318B422ED018318B422BD01831E3
:102E80008B4228D018318B4225D09F499F4A9342CC
:102E900018BF8B4200F024819D4A934200F02081AC
:102EA0001432934200F01C811432934200F01881D6
:102EB0001432934200F014811432934200F01081D6
:102EC0001432934200F00C8140236365032384F89D
:102ED000353001204AE0002184F83410022184F8C2
:102EE00035107ABB8B4A93422CD01832934229D0AA
:102EF0001832934226D01832934223D0183293428C
:102F000020D0183293421DD002F55672934219D048
:102F10001832934216D01832934213D0183293428B
:102F200010D0183293420DD0183293420AD0183282
:102F3000934207D01832934204D01A6822F001025B
:102F40001A6003E01A6822F001021A6023681A6806
:102F500012F0010F0BD0FFF7E9FC401B0528F5D953
:102F600020236365032384F83530012070BD1A687F
:102F700069481040A168E2680A4321690A4361690F
:102F80000A43A1690A43E1690A43216A0A430243E9
:102F9000616A042900F0998060490868604901402D
:102FA000B1F1005F11D36168A1F12905A1F13F00E2
:102FB000032888BF052D06D9A1F14700012802D9B1
:102FC0004F39032901D842F480121A6026687569C6
:102FD00025F00705636A1D43042B08D1A36A1D432E
:102FE000E36A23B12046FFF733FE002872D17561F2
:102FF0002046FFF7D1FDE36D03F01F023F2393400E
:10300000836023683E493F4A934218BF8B4242D0B7
:10301000183293423FD0183293423CD01832934238
:1030200039D01832934236D01832934233D0183206
:10303000934230D002F5567293422CD0183293420C
:1030400029D01832934226D01832934223D0183216
:10305000934220D0183293421DD0183293421AD096
:103060001832934217D0284A934214D01432934214
:1030700011D0143293420ED0143293420BD014323A
:10308000934208D01432934205D01432934202D0B6
:103090001432934213D12046FFF724FEA368802BFD
:1030A0006DD0236E22791A60636EA26E5A606368D7
:1030B000013B072B66D90023E36623676367002083
:1030C0006065012384F8353050E7E16A206B0143E5
:1030D0000A4361E740236365012084F8350045E732
:1030E000002284F83420022284F835201A680D4921
:1030F0001140A268402A1AD0802A15D0002217E079
:103100001000024028000240085402581C54025883
:1031100030540258400002403F8010FE0010005C16
:103120000000FFFF0F00FEFF4FF4804200E010227E
:10313000E06842EAD002206942EAD002606942EACD
:10314000D002A06942EAD002E06942EAD002206AD5
:1031500042EA10120A431A602268104B1344104AC4
:10316000A2FB03231B099B00E3652046FFF714FD28
:10317000E36D03F01F0201239340436041E7002306
:1031800063608EE72046FFF705FEE36E00221A60BB
:10319000236F626F5A6092E70120E7E6F8ABFDA764
:1031A000CDCCCCCC002800F03A8108B5024690F88E
:1031B0003530DBB2022B03D080234365012008BDEC
:1031C0000368994899498B4218BF83420CBF01217B
:1031D000002100F0E4803030834200F0E0801830BD
:1031E000834200F0DC801830834200F0D880183031
:1031F000834200F0D4801830834200F0D080183031
:10320000834200F0CC8000F55670834200F0C78006
:103210001830834200F0C3801830834200F0BF8032
:103220001830834200F0BB801830834200F0B78032
:103230001830834200F0B3801830834200F0AF8032
:103240001830834200F0AB80196821F00E0119603C
:103250001368A0F5956075498B4218BF83422BD047
:1032600073498B4228D018318B4225D018318B42BC
:1032700022D018318B421FD018318B421CD018310C
:103280008B4219D001F556718B4215D018318B4203
:1032900012D018318B420FD018318B420CD018311C
:1032A0008B4209D018318B4206D018318B4203D0A3
:1032B00018318B4240F0AE80196821F0010119608D
:1032C0001368594859498B4218BF834242D018317C
:1032D0008B423FD018318B423CD018318B4239D0D1
:1032E00018318B4236D018318B4233D018318B4293
:1032F00030D001F556718B422CD018318B4229D039
:1033000018318B4226D018318B4223D018318B4292
:1033100020D018318B421DD018318B421AD0183171
:103320008B4217D043498B4214D014318B4211D0B9
:1033300014318B420ED014318B420BD014318B429E
:1033400008D014318B4205D014318B4202D0143195
:103350008B4217D1116E0B6823F480730B60906D54
:10336000D36D03F01F0101238B404360536E916EB8
:103370005960D36E33B1196821F480711960136FED
:10338000516F5960002382F83430012382F83530C0
:10339000136D002B45D01046984700200FE70420FE
:1033A00082F8350081BB224A93422DD018329342D5
:1033B0002AD01832934227D01832934224D01832A0
:1033C000934221D0183293421ED002F55672934296
:1033D0001AD01832934217D01832934214D01832B0
:1033E000934211D0183293420ED0183293420BD030
:1033F0001832934208D01832934205D01A6822F04E
:1034000001021A600020DAE61A6822F001021A604E
:103410000020D4E6196821F00101196050E701206D
:1034200070470020CBE600BF100002402800024099
:103430004000024008540258F0B583B0044600230F
:103440000193A24B1D68A24BA3FB0535AD0A876D06
:103450003E68D7F800C003689E499F48834218BF62
:103460008B420CBF0120002061D09C4A93425ED069
:10347000183293425BD01832934258D0183293429C
:1034800055D01832934252D0183293424FD002F5A1
:10349000567293424BD01832934248D0183293421E
:1034A00045D01832934242D0183293423FD018325E
:1034B00093423CD01832934239D01832934236D0DE
:1034C0008749884A934218BF8B4212D0864A93425A
:1034D0000FD0143293420CD01432934209D01432DC
:1034E000934206D01432934203D01432934240F0F8
:1034F00062821A68E16D01F01F010420884010EA21
:103500000C0F00F0A88212F0040F00F0A482786083
:1035100012F4004F00F05B8212F4803F40F05182C1
:10352000A36C002B00F047822046984743E2E26DEF
:1035300002F01F0108228A40324241D070BB674A24
:1035400093422BD01832934228D01832934225D080
:103550001832934222D0183293421FD0183293422D
:103560001CD002F55672934218D01832934215D0EF
:103570001832934212D0183293420FD0183293422D
:103580000CD01832934209D01832934206D0183228
:10359000934203D01A68C2F3C00202E01A68C2F371
:1035A00080026AB11A6822F004021A60E36D03F027
:1035B0001F0208239340BB60636D43F00103636502
:1035C000E26D02F01F0226FA02F313F0010F37D06A
:1035D0002368404840498B4218BF83422CD01831A1
:1035E0008B4229D018318B4226D018318B4223D000
:1035F00018318B4220D018318B421DD018318B42AC
:103600001AD001F556718B4216D018318B4213D067
:1036100018318B4210D018318B420DD018318B42AB
:103620000AD018318B4207D018318B4204D01831A0
:103630008B4201D01B6803E05B6913F0800F3BD124
:10364000E36D03F01F03042202FA03F3334251D067
:103650002268204820498A4218BF824246D0183149
:103660008A4243D018318A4240D018318A423DD034
:1036700018318A423AD018318A4237D018318A42FA
:1036800034D001F556718A4230D018318A422DD09B
:1036900018318A422AD018318A4227D018318A42FA
:1036A00024D018318A4221D018318A421ED01831D4
:1036B0008A421BD013681DE0012303FA02F2BA60AC
:1036C000636D43F002036365BAE700BF180000248E
:1036D000B5814E1B1000024028000240400002400D
:1036E000085402581C54025830540258126812F000
:1036F000020F3DD1E36D03F01F03102202FA03F322
:1037000033425FD022689B489B498A4218BF82425D
:1037100034D018318A4231D018318A422ED0183133
:103720008A422BD018318A4228D018318A4225D0BB
:1037300018318A4222D001F556718A421ED01831C2
:103740008A421BD018318A4218D018318A4215D0CB
:1037500018318A4212D018318A420FD018318A4269
:103760000CD018318A4209D01268C2F3800208E0F6
:10377000BB60636D43F004036365BBE71268C2F38B
:10378000C002FAB1BB6023681A6812F4802F0DD012
:103790001B6813F4002F04D1236C9BB1204698477B
:1037A00010E0A36C73B1204698470BE01A6812F43E
:1037B000807F03D11A6822F008021A60236C0BB1D3
:1037C00020469847E36D03F01F03202202FA03F31B
:1037D000334200F08E802268664867498A4218BFEB
:1037E00082422ED018318A422BD018318A4228D0FA
:1037F00018318A4225D018318A4222D018318A42A3
:103800001FD018318A421CD001F556718A4218D057
:1038100018318A4215D018318A4212D018318A42A2
:103820000FD018318A420CD018318A4209D0183191
:103830008A4206D018318A4203D01268C2F340028D
:1038400002E01268C2F30012002A52D0BB6094F862
:103850003530DBB2042B0ED023681A6812F4802FA7
:1038600035D01B6813F4002F2CD1636C002B40D093
:10387000204698473DE02268136823F01603136042
:103880002268536923F080035361236CB3B122682B
:10389000136823F008031360E36D03F01F023F2356
:1038A0009340BB60002384F83430012384F8353022
:1038B000236D002B7FD0204698477CE0A36C002B23
:1038C000E5D1E9E7E36BA3B12046984711E01A6818
:1038D00012F4807F09D11A6822F010021A600023C6
:1038E00084F83430012384F83530E36B0BB1204683
:1038F0009847636D002B5ED0636D13F0010F56D0B7
:10390000042384F8353023681A491B4A934218BFB0
:103910008B4233D01832934230D0183293422DD09C
:10392000183293422AD01832934227D01832934249
:1039300024D01832934221D002F5567293421DD002
:10394000183293421AD01832934217D01832934249
:1039500014D01832934211D0183293420ED018323C
:1039600093420BD01832934208D01A6822F0010219
:103970001A6007E010000240280002401A6822F096
:1039800001021A60019B01330193AB4204D8236802
:103990001B6813F0010FF5D1002384F8343023683D
:1039A0001B6813F0010F08D0032384F83530E36C53
:1039B0000BB12046984703B0F0BD012384F83530A1
:1039C000F5E7236C002BF6D020469847F3E712F07A
:1039D000200F35D123686449644A934218BF8B4253
:1039E0002AD01832934227D01832934224D018326A
:1039F000934221D0183293421ED0183293421BD0EA
:103A00001832934218D002F55672934214D01832ED
:103A1000934211D0183293420ED0183293420BD0F9
:103A20001832934208D01832934205D0183293428C
:103A300002D01832934209D11A6822F008021A60A3
:103A4000236C002BB7D020469847B4E71A6822F0C1
:103A500004021A60F4E70220884010EA0C0F60D0DC
:103A600012F0020F5DD0786012F4004F0ED012F405
:103A7000803F05D1636C002B9DD0204698479AE784
:103A8000E36B002B97D02046984794E712F0200F65
:103A90003BD123683449354A934218BF8B422AD020
:103AA0001832934227D01832934224D018329342CE
:103AB00021D0183293421ED0183293421BD01832B4
:103AC000934218D002F55672934214D018329342A2
:103AD00011D0183293420ED0183293420BD01832C4
:103AE000934208D01832934205D01832934202D044
:103AF0001832934210D11A6822F014021A6000237F
:103B000084F83430012384F83530E36B002B3FF424
:103B100052AF204698474EE71A6822F00A021A6010
:103B2000EDE7082000FA01F111EA0C0F3FF443AF72
:103B300012F0080F3FF43FAF1A6822F00E021A602D
:103B4000E36D03F01F03012202FA03F37B60626559
:103B5000002384F8343084F83520E36C002B3FF4E4
:103B60002AAF2046984726E710000240280002406E
:103B700030B48B680A6813430A7943EAC2630A7B4C
:103B800043EAC2534A7B43EA82538A7B43EA425365
:103B9000CA7B43EA02530A7C002A40F0B0804FF40B
:103BA000002213434A7C002A40F0AB804FF40032DD
:103BB00013438A7C43EA02434A6913438A691343E5
:103BC0000A7F43EA02334A7F43EAC2238A7F002AFC
:103BD00040F099804FF480621343CA7F43EA422346
:103BE00091F82020002A40F090804FF48072134317
:103BF0004A6A134391F8282043EA0213CA6A13431E
:103C00000468226822F07F4222F47B0222F4FE4202
:103C100022F07C0213432360CA6B91F838301B06F4
:103C200043EA426391F8302043EA824391F831201D
:103C300043EA424391F83220002A68D14FF480329F
:103C400013434A6B13430468626822F07C5222F4E7
:103C5000EF2222F4FF6222F007021343636091F81F
:103C600040204B6C43EA02220468E5682B4B2B4052
:103C70001343E36091F854200B6D43EA420391F83B
:103C80004C20002A45D1802213438A6C43EA024328
:103C90000468226F22F0F2021204120C134323670D
:103CA00091F8563091F8552043EA42020468D4F85E
:103CB000903023F003031343C4F890300268D2F825
:103CC000003D23F072038C6D2343C2F8003DCB6DA1
:103CD00091F86020FAB10022134391F8612043EA81
:103CE000021391F8622043EAC2030168D1F8302D33
:103CF00022F07B021343C1F8303D30BC70470022F4
:103D00004FE7002254E7002266E700226FE7002217
:103D100096E70022B8E74022DEE700BFF0FEFFFF93
:103D200070B4026802F5805214681E4B23400C6880
:103D3000234313600A798B6843EA02330A7B43EA20
:103D4000C232056841F204042E59174B3340134325
:103D50002B514C7B0B6A43EA0444026802F58852FB
:103D60001568124B2B40234313600B690A7D43EA0D
:103D700002134A7F43EA0232056841F204142E59C5
:103D80000B4B334013432B510A7F8B6943EAC272BA
:103D9000006841F208114458064B23401343435036
:103DA00070BC7047FD87FFFFFE2FFFFF00C0FEFFC6
:103DB000EFEFC0FFFFFFC07F70B5A2B00646012540
:103DC0008DF83350002412948DF841408DF8434013
:103DD0008DF828508DF856508DF832508DF84C40A3
:103DE0008DF884504FF400530F938DF85C40189475
:103DF0008DF885408DF886404FF4C36316938DF897
:103E000030400B948DF835508DF836408DF8404099
:103E10001D941B9414948DF864408DF87A408DF8AD
:103E20004250202320938DF844508DF855404FF098
:103E3000405309934FF480430E938DF83140022391
:103E40001F938DF878408DF879408DF854408DF8A7
:103E500034501A948DF8705009A9FFF789FE8DF837
:103E60000450029500948DF81C408DF80D408DF89B
:103E70000C404FF4001306938DF8144004938DF812
:103E80001D404FF40673089369463046FFF748FF1C
:103E900022B070BD30B400230DE0C56803EB4302CF
:103EA000D4002A190021295151609160D160991DD7
:103EB00040F821200133032BEFD9002383620268ED
:103EC00041F22C130321D150C168026841F214134E
:103ED000D150C268036803F589531A6030BC70473B
:103EE00030B4002111E0056901EB4103DC002B191E
:103EF00000222A515A609A60DA601A615A6101F10F
:103F00000A0200EB8202536001310329EBD900233E
:103F1000C36303644364C3648364026841F230137F
:103F20000321D1500169026841F21C13D150036989
:103F30004833016841F228128B5030BC70470000B2
:103F4000F0B59446876A00EB87039B69D1F808E0D7
:103F5000DA68002AC0F27B810A6812F0040F2CD0C4
:103F6000DC68AC4A22404C6A2243DA60DA6842F4E8
:103F70008032DA600468226E42F4801222660A6897
:103F800012F0080F19D09A6892B2CC6A42EA044241
:103F90009A60DA6842F40032DA60DA6822F4402289
:103FA0000C6B2243DA600468626E42F4801262662F
:103FB0000468226D42F0806222650A6812F0100FD8
:103FC00009D09C68944A22408C6922439A60DA683E
:103FD00042F08062DA600A6812F0140F1CD0DA68CE
:103FE00042F08042DA60DA6842F00042DA607D1C1A
:103FF000032D00D9FD1E00EB85039B69DA68002ABA
:1040000001DB01260AE000EB87008269D36823F018
:104010000043D360022014E13D4600260136DEF85D
:1040200000201A609A687C4C1440DEF80420224379
:104030009A60DEF80820002A45D014685C609C680D
:10404000DFF8D8E104EA0E0E54684EEA04449C609E
:104050000C6814F0100F3ED0DC6824F4F00E0C6AEB
:104060004EEAC444DC60DC68DFF8B4E104EA0E0E1A
:10407000CC694EEA0404DC60DC6844F48024DC6033
:104080000C6814F0040F06D09C6824F4404E8C6A2F
:104090004EEA04049C60DC6844F00054DC60DC6898
:1040A00024F08044DC60DC6844F00044DC600C6890
:1040B00014F0020F6BD0DC6824F0607ECC684EEA0E
:1040C0000404DC6063E000225A609C68534A22408A
:1040D0009A607246BCE7DC68DFF848E104EA0E0E3D
:1040E0004C684EEA0404DC600C6814F0010F06D042
:1040F000DC6824F4403E4C694EEA0404DC600C6841
:1041000014F0200FBCD0DC6824F0406E0C694EEA3D
:104110000404DC60B4E700EB87039969002204E043
:1041200000EB8301896901321F46964208D9CB68AA
:1041300023F00043CB607B1C032BF1D9FB1EEFE780
:1041400002207EE000225A609D68344A2A409A602C
:1041500072464DE0DD68DFF8CCE005EA0E0E4D68F2
:104160004EEA0505DD600D6815F0010F06D0DD682B
:1041700025F4403E4D694EEA0505DD60DD6845F0F9
:104180000045DD60DD6825F08045DD6025469468EA
:10419000002C49D0DC6824F08054DC606C1C032CBB
:1041A00000D9EC1E00EB84039B69DD6825F0005507
:1041B000DD60DD68002DAEDB0136D2F808E0DEF808
:1041C00000201A609A68144D1540DEF804202A4336
:1041D0009A60DEF80820002AB4D015685D609D68FA
:1041E000DFF838E005EA0E0E55684EEA05459D6099
:1041F0000D6815F0100FADD0DD68DFF824E005EA9A
:104200000E0ECD694EEA0505DD60DD6845F48025BA
:10421000DD60B3E70000FFFF00C0FFFFFFFF00C04D
:104220000000FCFF0080FFFFBCF1000F0AD09A687D
:1042300042F000429A60DA6842F08052DA608562A9
:104240000020F0BD9A6822F000429A60F3E7022055
:10425000F7E700BF38B505460368D3F8004224F4F9
:10426000706401F0ADFD114B0344114A934211D922
:10427000104B0344104A934212D9104B0344104A86
:10428000934209D90F4B03440F4A93420BD944F48C
:10429000806401E044F400742B68C3F8004238BD28
:1042A00044F44074F8E744F48074F5E700D3CEFE9C
:1042B000BFE1E40040F1E9FD3F787D0100796CFC4D
:1042C000FF596202001F0AFA7FF0FA02002800F08C
:1042D0008C8030B583B00446436D8BB32323636574
:1042E000434BD3F8F42042F00202C3F8F420D3F891
:1042F000F43003F002030193019B237A1BBB0020DF
:10430000FEF720FB236803F580531A6842F0010290
:104310001A60FEF70BFB0546236803F580531B6804
:1043200013F0010F14D0FEF701FB401BB0F5FA7F2C
:10433000F2D90423E365E0236365012003B030BDB7
:10434000FDF77AFFCAE74FF40000FEF7FBFAD9E762
:104350002046FFF77FFF01F033FD264BA3FB002330
:104360009B0C2268013BC2F8DC302046FFF724FD9D
:10437000226802F58852136823F4E01343F4002303
:104380001360636913F0030F04D00120E065E0239C
:104390006365D3E7206841F208114558164A2A4060
:1043A00042EA430343502046FFF774FD2046FFF7DF
:1043B00097FD626851791379226843EA0123C2F8B4
:1043C00000336268D17893781B0443EA0163517823
:1043D00043EA0123117822680B43C2F8043300201A
:1043E000E06510236365A365A8E70120704700BF5F
:1043F0000044025883DE1B430180FFFF30B401F10B
:104400000A0400EB84046468032994BF002101219D
:10441000002A08BF012199B922602261E26842F0B6
:104420008072E2602BB1A3606361E36843F00073C4
:10443000E360E36843F00043E360002030BC704772
:104440000123C3651846F9E7436D102B01D0012005
:10445000704710B423234365002309E003F10A02E7
:1044600000EB82025168CA6842F08042CA600133A0
:10447000032BF3D90123C3640268136843F00203DA
:1044800013600268136843F0010313600268D2F8F6
:10449000003D43F00103C2F8003D016841F20412FF
:1044A0008B5843F001038B50016841F208128B587E
:1044B00043F001038B50036803F58B531A6842F4F1
:1044C00081721A60016841F234128C584DF2410336
:1044D00023438B50102343652223836500205DF81E
:1044E000044B7047436D002B3FD010B4232343652A
:1044F000016841F234128C581D4B23408B500168E7
:1045000041F204128B5823F001038B50016841F2F1
:1045100008128B5823F001038B500268136823F0B4
:10452000010313600268D2F8003D43F00103C2F8B2
:10453000003D0268136823F002031360002309E0C2
:1045400003F10A0200EB82025168CA6822F080423D
:10455000CA600133032BF3D90023C36410224265E0
:10456000826518465DF8044B70470120704700BF14
:10457000BE2FFFFFF8B529B10B46416D102907D0BA
:104580000120F8BDC36D43F00103C3650120F8E7C6
:104590001946154604460022FFF7D2FC80BBA36AE9
:1045A0009A1D54F822600133A362032B01D9043B06
:1045B000A362A26A2368063254F8222003F58953C5
:1045C0001A60FEF7B3F90746F368002B2ADA23686E
:1045D00003F58B51096811F4805F17D1B5F1FF3FE6
:1045E000F2D0FEF7A3F9C01BA84201D8002DEBD1F1
:1045F000E36D43F00403E365E02363650120C0E756
:10460000E36D43F00203E3650120BAE7E26D42F097
:104610000802E26503F58B531B682366E02363659C
:104620000120AEE70020ACE7C16B00EB8103DB6A41
:10463000426C002A7DD1F0B417461446154625E099
:104640000134012C18D04B1C032B00D9CB1E00EBDE
:104650008302D26AD168002909DBD26812F0804F48
:1046600005D0012282649A18032A07D9033BC36349
:104670000764446401205AE00F46E4E71346F6E776
:1046800000EB8403DB6A0F4621460124DE68002E1E
:1046900019DB032D17D80135DE6816F0805FCFD106
:1046A000DB6813F0005F04D04C1C032CE8D9CC1E4F
:1046B000E6E701344E1C032E00D9CE1E00EB860324
:1046C000DB6A3146E2E7002C2ED0C163076400EBC1
:1046D0008703DB6A04E000EB8103DB6A0F460132EB
:1046E000A2421DD2196919604FF08071D9605969D1
:1046F00021B19960D96841F00071D960D96841F061
:104700000041D960C16C19B1D96841F08041D960CC
:10471000611E9142E3D9791C0329DCD9F91EDAE73D
:10472000016841F228128B50002343641846F0BC04
:1047300070470020704770B50546066C00EB860395
:10474000DB6A29B10C46426C2AB10021084611E00F
:104750000120E8653BE0FFF767FF002838D02E6CAA
:1047600005EB8603DB6AF0E705EB8203DB6AA468EE
:10477000013016466A6C013A824212D91A692260E7
:104780006A6962605A6922B1A4685A6922606A69DA
:104790006260D968C1F30E01721C032AE4D9F21ECB
:1047A000E2E7DA68C2F30E02511A1A6922606A69F6
:1047B0008A420AD2586968B16260A2685B69136074
:1047C0006B69C91A5160002001E06160002070BD72
:1047D0000120FCE70120FAE770B504460D46066C9F
:1047E000436C73B1636C33445A1E032A00D95A1FB9
:1047F00004EB8204E36ADB68C3F30E032B60002042
:1048000070BDFFF711FF0028ECD10120F8E730B4AC
:10481000056C00EB8503DB6A446C002C34D0826CA1
:1048200002B10134002204E000EB8103DB6A0D4693
:10483000013294421ED9196919604FF08071D96014
:10484000596929B159699960D96841F00071D960F5
:10485000D96841F00041D960C16C19B1D96841F003
:104860008041D960611E9142E2D9691C0329DBD9DC
:10487000E91ED9E7016841F228128B5000234364F6
:104880008364184630BC70470120FBE770477047CF
:10489000704770477047704710B50446036803F5CA
:1048A0008B52126812F0400F05D041F234129B581F
:1048B00013F0400F56D1236803F58B52126812F0A3
:1048C000010F05D041F234129B5813F0010F52D161
:1048D000236803F58B52126812F4804F24D041F202
:1048E00034129A5812F4804F1ED0E26D42F0080242
:1048F000E26503F58B52126812F4805F45D003F530
:104900008B52126822F46F6222F00D02D204D20C94
:10491000226641F234115A5822F440425A50E023A0
:1049200063652046FFF7B3FF2268D2F8B03003F486
:10493000C043B3F5C04F32D02368D3F8B02012F093
:10494000100F37D12368D3F8B02012F0200F3CD1DC
:10495000FEF7A0F8032843D02C4B9B6A13F4800F7A
:104960004BD110BDFDF70EFD236803F58B5348F2C4
:1049700040021A609FE72046FFF788FF236803F58F
:104980008B5348F201021A60A2E703F58B531A68B1
:1049900002F4CD4222664FF4CD421A60C1E7D2F84C
:1049A000B8306366E02363652046FFF771FF00239C
:1049B0006366C1E7D3F8C03003F06003A366204606
:1049C000FFF767FF0023A366BCE7D3F8C03003F00E
:1049D0000F03E3662046FFF75DFF0023E366B7E7BA
:1049E0000B4B9B6A13F4800FBBD0094B4FF4800232
:1049F0009A622046FFF74FFFB3E7044B4FF4800263
:104A00009A622046FFF747FFABE700BFC00000589F
:104A10008000005870B50668D6F8004214F0010F07
:104A200001D0012070BD1D460446D6F8003223F0A7
:104A3000787343EA415121F4F81141EA024242F00D
:104A40000D02C6F80022FDF771FF06462268D2F873
:104A5000001211F0010F07D0FDF768FF801BB0F5C1
:104A60007A7FF3D90120DDE7D2F804329BB22B60C4
:104A70000020D7E738B50568D5F8004214F0010FDB
:104A800001D0012038BD0446D5F8000220F078702E
:104A900040EA415121F4F81141EA024222F00C02AD
:104AA00042F005029BB20C49C1F80432C1F8002261
:104AB000FDF73CFF05462368D3F8003213F0010FE1
:104AC00007D0FDF733FF401BB0F57A7FF3D9012003
:104AD000D8E70020D6E700BF00800240002900F0A0
:104AE000EE800268126802F00C02CA620268126864
:104AF000C2F3001281F828200268126802F06002F6
:104B00004A620268126812F4807F0CBF0122002200
:104B100081F8202002681268C2F34022CA77026836
:104B2000126812F4806F0CBF012200228A7702689B
:104B30001268C2F3C0224A7702681268C2F30032D8
:104B40000A770268126802F400528A6102681268E9
:104B500002F480424A6102681268C2F300428A7419
:104B60000268126812F4003F0CBF012200224A744E
:104B70000268126812F4002F0CBF012200220A748E
:104B800002681268C2F30052CA7302681268C2F364
:104B900040528A7302681268C2F380524A730268F4
:104BA0001268C2F3C0520A730268126802F0E0622F
:104BB0008A6002681268C2F3C0620A7102681268F1
:104BC00002F0E0420A6002685268C2F30D024A63D2
:104BD0000268526812F4803F0CBF0122002281F863
:104BE000322002685268C2F3404281F831200268E4
:104BF0005268C2F3804281F8302002685268C2F3E2
:104C0000006281F8382002685268C2F34462CA63C5
:104C10000268D268C2F3002281F840200268D2689C
:104C200002F00F024A640268126FC2F3400281F878
:104C300054200268126F12F0800F0CBF0122002274
:104C400081F84C200268126F02F070020A65026857
:104C5000126F120C8A640268D2F8902002F00102EE
:104C600081F856200268D2F89020C2F3400281F801
:104C700055200268D2F8002D02F072028A6502689F
:104C8000D2F8302D02F02302CA650268D2F8302D26
:104C9000C2F3C00281F862200268D2F8302DC2F35C
:104CA000001281F861200268D2F8302D12F0400F16
:104CB0000CBF0122002281F86020002070470120F3
:104CC000704749B108B5826D102A01D0012008BD96
:104CD000FEF74EFF0020FAE70120704738B5054681
:104CE0000368D3F8004224F4706401F069F8114BB2
:104CF0000344114A934211D9104B0344104A934282
:104D000012D9104B0344104A934209D90F4B034464
:104D10000F4A93420BD944F4806401E044F40074D8
:104D20002B68C3F8004238BD44F44074F8E744F4FB
:104D30008074F5E700D3CEFEBFE1E40040F1E9FD69
:104D40003F787D0100796CFCFF596202001F0AFA6E
:104D50007FF0FA02F0B583B000233AE0092400E0C6
:104D60000024B4403C4302356E4E46F825406E4C5C
:104D70002568D44304EA05064F6817F4803F01D044
:104D800042EA0506684D2E606E6804EA06054F6823
:104D900017F4003F01D042EA0605634E75604FF0FC
:104DA000B0452D6804EA05064F6817F4801F01D04E
:104DB00042EA05064FF0B0452E606D682C404E6803
:104DC00016F4001F01D042EA05044FF0B0425460CF
:104DD00001330A6832FA03F400F0A28001249C40F7
:104DE0002240F5D04D686E1E112D18BF012E01D93D
:104DF000122D12D186685F000325BD4026EA050604
:104E0000CD68BD4035438560466826EA04064D6896
:104E1000C5F300149C4034434460C6685F0003251A
:104E2000BD40EC4326408D68BD403543C5604D68AC
:104E3000122D18BF022D13D1DE08083650F826E0D7
:104E400003F007054FEA850C0F2505FA0CF52EEA4D
:104E5000050E0D6905FA0CF545EA0E0540F82650D9
:104E6000056825404C6804F00304BC402C430460F2
:104E70004C6814F0805FABD02C4CD4F8F45045F063
:104E80000205C4F8F450D4F8F44004F0020401948C
:104E9000019C9D08AE1C234C54F8267003F00304BB
:104EA000A6000F24B44027EA0407214CA0423FF497
:104EB00057AF04F58064A04222D004F58064A0427C
:104EC00020D004F58064A0421ED004F58064A04286
:104ED0001CD004F58064A0421AD004F58064A0427E
:104EE00018D004F58064A04216D004F58064A04276
:104EF00014D004F58064A0423FF430AF0A2430E7B8
:104F000001242EE702242CE703242AE7042428E7BF
:104F1000052426E7062424E7072422E7082420E7BF
:104F200003B0F0BD0004005880000058004402584F
:104F30000000025812B9090481617047816170470D
:104F40002030054B53F82020044B9A4201D0012019
:104F500070470020704700BF0064025800030080C3
:104F600041F44071014B43F820107047006402582F
:104F7000002857D010B5044690F84130002B41D09E
:104F8000242384F841302268136823F0010313605E
:104F90006368226823F0706313612268936823F4C6
:104FA00000439360E368012B31D0A368226843F487
:104FB00004439360E368022B2FD0226851681A4B98
:104FC0000B4353602268D36823F40043D360236902
:104FD00062691343A169226843EA0123D360E3694C
:104FE000216A22680B4313602268136843F00103AF
:104FF000136000206064202384F84130206384F82B
:10500000420010BD80F84030FBF73AFDB8E7A368D6
:10501000226843F400439360CCE723684FF40062B6
:105020005A60CAE7012070470080000290F84130C2
:10503000DBB2202B24D190F84030012B22D0012369
:1050400080F84030242380F841300268136823F050
:10505000010313600268136823F48053136002682D
:105060001368194311600268136843F00103136069
:10507000202380F84130002380F8403018467047E4
:10508000022070470220704790F84130DBB2202B9D
:1050900022D190F84030012B20D0012380F84030FD
:1050A000242380F841300268136823F00103136061
:1050B0000268136823F4706343EA012111600268F7
:1050C000136843F001031360202380F8413000236C
:1050D00080F8403018467047022070470220704721
:1050E00082B0094BD3F8F42042F00202C3F8F42056
:1050F000D3F8F43003F002030193019B034A536891
:105100001843506002B07047004402580004005831
:1051100040B338B5044603684CF6CC421A600368C5
:1051200045F255521A60036842685A600368826803
:105130009A60FDF7FBFB05462368DA6832B1FDF79C
:10514000F5FB401B3028F7D9032038BD1969E26808
:10515000914202D01A610020F7E74AF6AA221A60AB
:105160000020F2E70120704738B5234BDB6803F0DD
:105170000703062B07D0204BDB6803F03F03834275
:1051800037D0012038BD04461B4AD36823F03F03C3
:105190000343D360FDF7CAFB0546174B5B6813F466
:1051A000005F07D1FDF7C2FB401BB0F57A7FF4D951
:1051B0000120E7E72E2C18BF1E2C08D02D2C14BF81
:1051C000002301231D2C02D00BB90020DAE7FDF7E4
:1051D000ADFB0446084BDB6813F4803F07D1FDF7B5
:1051E000A5FB001BB0F57A7FF4D90120CAE70020A7
:1051F000C8E70020C6E700BF004802582DE9F0418B
:1052000005460F4616469846069C2B689B683B420F
:1052100014BF01230023B34213D0B4F1FF3FF4D0F5
:10522000FDF784FBA0EB0800A04201D8002CECD1D4
:10523000042385F841306B6C43F001036B6401205B
:1052400000E00020BDE8F0818164704730B583B094
:105250000446FDF76BFB002C47D0054694F841301F
:10526000002B39D021680B6823F47063A268013ADF
:1052700043EA02230B60A36C00932B4600222021FB
:105280002046FFF7BBFF014618BB20680368184A99
:105290001A406568E36843EA0563E5692B43256ABC
:1052A0002B431343036020684268124B1340256967
:1052B000626942EA0542A5692A43134343602268B2
:1052C000136843F00103136000236364012384F82F
:1052D0004130084603B030BD2046FBF745FE41F2A1
:1052E00088312046FFF7B0FFBCE70121F1E700BF9E
:1052F0002FFFFF00FEF8E0FF002800F00C8338B518
:105300000446036813F0010F25D09D4A136903F08A
:105310003803926A102B15D0182B0FD06368B3F5A1
:10532000803F3FD0002B53D1954B1A6822F4803236
:105330001A601A6822F480221A6038E002F0030230
:10534000022AEBD18E4B1B6813F4003F03D0636835
:10535000002B00F0E282236813F0020F00F08B8034
:10536000874A1369926A13F038035AD0182B55D024
:10537000E368002B00F0C88081490A6822F0190216
:1053800013430B60FDF7D2FA05467D4B1B6813F003
:10539000040F40F09780FDF7C9FA401B0228F4D9AA
:1053A0000320BFE2764A136843F4803313606368D6
:1053B0002BB3FDF7BBFA0546714B1B6813F4003F96
:1053C000C9D1FDF7B3FA401B6428F5D90320A9E23F
:1053D000B3F5A02F09D06A4B1A6822F480321A6004
:1053E0001A6822F480221A60E1E7654B1A6842F4D9
:1053F00080221A601A6842F480321A60D7E7FDF7FB
:1054000095FA05465E4B1B6813F4003FA3D0FDF7E9
:105410008DFA401B6428F5D9032083E212F0030FB4
:10542000A6D1574B1B6813F0040F03D0E368002B81
:1054300000F07582FDF780FA41F20303984212D81A
:105440002269402A07D04E494B6823F47C3343EA53
:1054500002334B600FE04A4A536823F47C3343F431
:105460000033536007E0464A536823F0FE43216946
:1054700043EA01635360236813F0100F00F08A8041
:105480003F4A136903F03803926A082B54D0182B53
:105490004ED0E369002B00F0BA80394A136843F01C
:1054A00080031360FDF742FA0546354B1B6813F481
:1054B000807F40F08A80FDF739FA401B0228F4D93A
:1054C00003202FE2FDF738FA41F20303984212D885
:1054D0002269402A07D02A494B6823F47C3343EAE7
:1054E00002334B60C7E7264A536823F47C3343F406
:1054F00000335360BFE7224A536823F0FE4321691B
:1055000043EA01635360B6E71D4A136823F00103C1
:105510001360FDF70BFA0546194B1B6813F0040FD7
:10552000A9D0FDF703FA401B0228F5D90320F9E1C1
:1055300002F00302012AACD1114B1B6813F4807FE7
:1055400004D0E369802B01D00120EBE1FDF7F4F9F1
:1055500041F20303984215D8226A202A07D008494D
:105560004B6823F0F84343EA82634B6012E0044A3D
:10557000536823F0F84343F0804353600AE000BFD0
:10558000004402589A4AD36823F07C53216A43EAC4
:105590000163D360236813F0080F60D06369002BA8
:1055A00049D0934A536F43F001035367FDF7BEF9A7
:1055B00005468F4B5B6F13F0020F50D1FDF7B6F924
:1055C000401B0228F5D90320ACE1FDF7B5F941F203
:1055D0000303984212D8226A202A07D084494B68D4
:1055E00023F0F84343EA82634B60D3E7804A536871
:1055F00023F0F84343F080435360CBE77C4AD36801
:1056000023F07C53216A43EA0163D360C2E7784AFE
:10561000136823F080031360FDF788F90546744B87
:105620001B6813F4807FB5D0FDF780F9401B02287A
:10563000F5D9032076E16E4A536F23F001035367D7
:10564000FDF774F905466A4B5B6F13F0020F06D045
:10565000FDF76CF9401B0228F5D9032062E12368AD
:1056600013F0200F29D0A3699BB1614A136843F45A
:1056700080531360FDF75AF905465D4B1B6813F420
:10568000005F1AD1FDF752F9401B0228F5D903201B
:1056900048E1574A136823F480531360FDF746F935
:1056A0000546534B1B6813F4005F06D0FDF73EF927
:1056B000401B0228F5D9032034E1236813F0040FBE
:1056C00021D1636A002B00F02C81494A126902F053
:1056D0003802182A00F0EE80022B75D0444A136875
:1056E00023F080731360FDF721F90446404B1B68DB
:1056F00013F0007F00F0DC80FDF718F9001B022892
:10570000F4D903200EE13B4A136843F4807313601D
:10571000FDF70CF90546374B1B6813F4807F06D163
:10572000FDF704F9401B6428F5D90320FAE0A368CB
:10573000012B0AD00BBB2E4B1A6F22F001021A6705
:105740001A6F22F004021A6704E0294A136F43F02B
:1057500001031367A36833B3FDF7E8F80546244B4C
:105760001B6F13F0020FACD1FDF7E0F8401B41F2C4
:1057700088339842F3D90320D4E0052B09D01C4B81
:105780001A6F22F001021A671A6F22F004021A67D8
:10579000E0E7174B1A6F42F004021A671A6F42F0E3
:1057A00001021A67D6E7FDF7C1F80546104B1B6FDB
:1057B00013F0020F85D0FDF7B9F8401B41F2883392
:1057C0009842F3D90320ADE0094A136823F08073AF
:1057D0001360FDF7ABF80546054B1B6813F0007F1F
:1057E0000AD0FDF7A3F8401B0228F5D9032099E061
:1057F00000440258004802584E4B996A4E4A0A40EB
:10580000A16AE06A41EA00110A439A62226B013AF6
:10581000C2F30802616B0139490289B20A43A16BE4
:105820000139090401F4FE010A43E16B013909065B
:1058300001F0FE410A431A63DA6A22F00102DA62D9
:10584000596B3E4A0A40A16C42EAC1025A63DA6AC5
:1058500022F00C02216C0A43DA62DA6A22F00202B8
:10586000616C0A43DA62DA6A42F48032DA62DA6A36
:1058700042F40032DA62DA6A42F48022DA62DA6AE8
:1058800042F00102DA621A6842F080721A60FDF793
:105890004DF80446274B1B6813F0007F06D1FDF737
:1058A00045F8001B0228F5D903203BE0002039E031
:1058B000002037E01F4A916A106B012B33D001F0B2
:1058C0000303A26A934201D001202BE0C1F305112A
:1058D000E36A994201D0012024E0C0F30802236B5F
:1058E000013B9A4201D001201CE0C0F34622636BC9
:1058F000013B9A4201D0012014E0C0F30642A36BA1
:10590000013B9A4211D1C0F30660E36B013B984220
:105910000DD0012006E001207047012002E00120A7
:1059200000E0002038BD0120FCE70120FAE700205C
:10593000F8E700BF004402580CFCFFFF0700FFFF20
:10594000724B1B6903F03803102B00F0DB80182B1F
:1059500010D00BB16E4870476C4B1B6813F0200FD2
:1059600000F0D280694B1868C0F3C100694B23FA7C
:1059700000F07047654A916A01F00301906AC0F334
:105980000510D36A03F00103526BC2F3CC0203FB90
:1059900002F307EE903AF8EE677A002800F0B5803F
:1059A000012966D0F9B1022900F08F8007EE100AB4
:1059B000F8EE476A9FED586A86EE267A534B1B6BCA
:1059C000C3F3080306EE903AF8EE666A9FED536A59
:1059D00067EE867A76EEA77AF7EE006A77EEA67A19
:1059E00027EE277A61E0494B1B6813F0200F23D084
:1059F00046490A68C2F3C102464BD34007EE103A4B
:105A0000F8EE476A07EE100AB8EE476A86EE867A25
:105A10000B6BC3F3080306EE903AF8EE666A9FED4F
:105A20003F6A67EE867A76EEA77AF7EE006A77EE3F
:105A3000A67A27EE277A38E007EE100AF8EE476AD2
:105A40009FED376A86EE267A304B1B6BC3F3080353
:105A500006EE903AF8EE666A9FED306A67EE867A57
:105A600076EEA77AF7EE006A77EEA67A27EE277A27
:105A70001BE007EE100AF8EE476A9FED276A86EEF4
:105A8000267A224B1B6BC3F3080306EE903AF8EE1E
:105A9000666A9FED226A67EE867A76EEA77AF7EE5F
:105AA000006A77EEA67A27EE277A184B1B6BC3F3B2
:105AB0004623013307EE903AF8EE677AC7EE276A7D
:105AC000FCEEE67A17EE900A704707EE100AF8EE41
:105AD000476A9FED146A86EE267A0C4B1B6BC3F364
