:020000040800F2
:10000000000002203D840008C5160008C71600083D
:10001000C9160008CB160008CD1600080000000025
:10002000000000000000000000000000A17F0008A8
:10003000CF1600080000000041800008D11600081B
:100040008D8400088D8400088D8400088D8400084C
:100050008D8400088D8400088D8400088D8400083C
:100060008D8400088D8400088D840008D516000852
:10007000E5160008F5160008051700081517000812
:1000800025170008351700088D8400088D840008A6
:100090008D8400088D8400088D8400088D840008FC
:1000A0008D8400088D8400088D8400088D840008EC
:1000B0008D8400088D8400088D8400088D840008DC
:1000C0008D8400088D8400088D8400084517000881
:1000D000551700088D8400088D8400088D84000861
:1000E0008D8400088D840008000000008D840008C5
:1000F0008D8400088D8400088D8400086517000831
:100100008D8400088D8400088D8400087517000810
:100110008D8400088D8400088D8400088D8400087B
:100120008D8400088D840008851700089517000845
:100130008D8400088D8400088D8400088D8400085B
:100140008D8400088D84000800000000000000007D
:100150008D8400088D8400088D8400088D8400083B
:100160008D8400088D8400088D8400088D8400082B
:100170008D8400088D8400088D8400080000000034
:100180008D8400088D8400088D8400088D8400080B
:10019000A51700088D8400088D8400088D84000850
:1001A0008D8400088D8400088D8400088D840008EB
:1001B0008D8400088D8400088D8400088D840008DB
:1001C0008D8400088D8400088D8400088D840008CB
:1001D0008D8400088D8400088D8400088D840008BB
:1001E0008D8400088D8400088D8400088D840008AB
:1001F0008D8400088D8400088D8400088D8400089B
:100200008D8400088D8400088D8400088D8400088A
:100210008D8400088D8400088D8400088D8400087A
:100220008D8400088D8400088D8400080000000083
:100230008D8400088D8400088D8400088D8400085A
:100240008D8400088D8400088D8400088D8400084A
:100250008D8400088D8400088D8400088D8400083A
:100260008D8400088D8400088D8400088D8400082A
:100270008D8400088D8400088D8400088D8400081A
:100280008D8400088D8400088D8400080000000023
:080290008D8400088D84000834
:1002A00010B5054C237833B9044B13B10448AFF3B0
:1002B00000800123237010BDD40000200000000046
:1002C0000085000808B5034B1BB103490348AFF391
:1002D000008008BD00000000D80000200085000854
:1002E00053B94AB9002908BF00281CBF4FF0FF319D
:1002F0004FF0FF3000F072B9ADF1080C6DE904CE9B
:1003000000F006F8DDF804E0DDE9022304B07047F0
:100310002DE9F047089E04468846002B4BD18A42BF
:10032000154667D9B2FA82F24AB1C2F1200701FA42
:1003300002F320FA07F7954047EA030894404FEA92
:10034000154E230CB8FBFEF71FFA85FC0EFB178831
:1003500043EA084307FB0CF1994209D9EB1807F16E
:10036000FF3080F01B81994240F21881023F2B44FC
:100370005B1AA4B2B3FBFEF00EFB103344EA034455
:1003800000FB0CFCA44509D92C1900F1FF3380F0C7
:100390000781A44540F2048102382C4440EA07401A
:1003A000A4EB0C0400271EB1D4400023C6E900438F
:1003B0003946BDE8F0878B4209D9002E00F0EB806A
:1003C0000027C6E9000138463946BDE8F087B3FA90
:1003D00083F7002F47D18B4202D3824200F2FA808A
:1003E000841A61EB030301209846002EE0D0C6E991
:1003F0000048DDE702B9FFDEB2FA82F2002A40F0DF
:100400008F80491B4FEA154E1FFA85F80127B1FB73
:10041000FEFC230C0EFB1C1143EA014308FB0CF10C
:10042000994207D9EB180CF1FF3002D2994200F241
:10043000CD808446591AA3B2B1FBFEF00EFB101416
:1004400043EA044408FB00F8A04507D92C1900F141
:10045000FF3302D2A04500F2B6801846A4EB080490
:1004600040EA0C409FE7C7F1200CBB4022FA0CFE8B
:100470004EEA030E01FA07F420FA0CF521FA0CF308
:100480004FEA1E482543B3FBF8F92C0C08FB19333F
:100490001FFA8EFA44EA034309FB0AF49C4202FA6B
:1004A00007F200FA07F10BD91EEB030309F1FF3045
:1004B00080F087809C4240F28480A9F10209734455
:1004C0001B1BADB2B3FBF8F008FB103345EA034445
:1004D00000FB0AFAA24508D91EEB040400F1FF3321
:1004E0006BD2A24569D90238744440EA0940A0FBA6
:1004F0000289A4EB0A044C45C2464B4654D351D062
:10050000002E69D0B1EB0A0564EB030404FA0CFC7D
:10051000FD40FC404CEA0505C6E90054002747E7CA
:10052000C2F1200320FA03F7954001FA02F021FA04
:1005300003F34FEA154E3843010CB3FBFEF71FFAE5
:1005400085F80EFB173341EA034107FB08F38B42A2
:1005500004FA02F407D9691807F1FF3C2FD28B4245
:100560002DD9023F2944CB1A81B2B3FBFEF00EFB1A
:10057000103341EA034100FB08F38B4207D96918A5
:1005800000F1FF3C17D28B4215D902382944C91A11
:1005900040EA07473BE73746304609E70746E7E6C4
:1005A0001846FBE64145ABD2B8EB020A69EB0E02F6
:1005B00001381346A4E76046E9E7184695E7674621
:1005C000D1E781467CE702382C4447E7ACF1020CC6
:1005D0002B442FE7384608E73746E9E6704700BF67
:1005E00008B50848084B0360002303714371436159
:1005F00083610123036201F0E3FB00B908BD00F051
:10060000DDFCFBE7F4490020004C025802680A4B6D
:100610009A4200D0704782B0A3F50063D3F8E0207F
:1006200042F40022C3F8E020D3F8E03003F40023C2
:100630000193019B02B07047004C025800B583B093
:10064000354BD3F8D82042F00102C3F8D820D3F8B4
:10065000D82002F001020092009AD3F8D82042F08C
:100660000202C3F8D820D3F8D83003F00203019374
:10067000019B002205210B2001F04CFB0B2001F017
:100680007BFB002205210C2001F044FB0C2001F033
:1006900073FB002205210D2001F03CFB0D2001F031
:1006A0006BFB002205210E2001F034FB0E2001F02F
:1006B00063FB002205210F2001F02CFB0F2001F02D
:1006C0005BFB00220521102001F024FB102001F02B
:1006D00053FB00220521112001F01CFB112001F029
:1006E0004BFB002205212F2001F014FB2F2001F0ED
:1006F00043FB002205213A2001F00CFB3A2001F0D7
:100700003BFB002205213B2001F004FB3B2001F0D4
:1007100033FB03B05DF804FB0044025810B51748E2
:10072000174B0360426800231370426880215170A8
:100730004268E12191704268D37042681371426847
:100740005371012303720F4BC3600F4B036140F2DF
:10075000F453436102F0BAFD60B90C4C3022002121
:10076000204607F0C4FE212344F8043C4FF44033F4
:10077000236110BD00F022FCEFE700BF184A002003
:100780000080024074000020140000208C4A0020E9
:1007900070B58CB000230793089309930A930B93C9
:1007A0000268374B9A4201D00CB070BD354BD3F87C
:1007B000D82042F40042C3F8D820D3F8D82002F45D
:1007C00000420192019AD3F8D82042F48032C3F853
:1007D000D820D3F8D82002F480320292029AD3F8BB
:1007E000D82042F40032C3F8D820D3F8D82002F43D
:1007F00000320392039AD3F8E02042F00402C3F8D7
:10080000E020D3F8E02002F004020492049AD3F826
:10081000E02042F00102C3F8E020D3F8E02002F02B
:1008200001020592059AD3F8E02042F04002C3F895
:10083000E020D3F8E03003F040030693069B322318
:100840000793022608960B250B9507A90E4802F080
:10085000D5FD862307930896002409940A940B95E6
:1008600007A90A4802F0CAFD4FF46053079308969F
:1008700009940A940B9507A9054802F0BFFD93E778
:10088000008002400044025800080258000002584C
:100890000018025808B5012006F05AF8FBE70000DE
:1008A00008B5044A0021044805F0E8FF034B18602E
:1008B00008BD00BF1885000895080008BC4A002044
:1008C00088B02B4BD3F8E02042F01002C3F8E020B0
:1008D000D3F8E02002F010020192019AD3F8E02050
:1008E00042F02002C3F8E020D3F8E02002F020021A
:1008F0000292029AD3F8E02042F00402C3F8E0200A
:10090000D3F8E02002F004020392039AD3F8E02027
:1009100042F00102C3F8E020D3F8E02002F0010227
:100920000492049AD3F8E02042F00202C3F8E020D7
:10093000D3F8E02002F002020592059AD3F8E020F5
:1009400042F00802C3F8E020D3F8E02002F00802E9
:100950000692069AD3F8E02042F04002C3F8E02065
:10096000D3F8E03003F040030793079B08B07047CB
:100970000044025810B59AB00024169417941894A5
:1009800019945422214601A807F0B1FD1A481B4BC7
:1009900003604460846002F055FF20BB4FF6FD7396
:1009A000169300231793052118910823199316AA6B
:1009B000114802F0B3FFC8B90023019302930393D7
:1009C00004930122059206930793089309930A93CF
:1009D0000B930C930D9301AA0521074802F0B7FF72
:1009E00038B91AB010BD00F0E9FAD7E700F0E6FA1E
:1009F000E2E700F0E3FAF4E7C04A002000740140A7
:100A000002680A4B9A4200D0704782B0084BD3F874
:100A1000F02042F00052C3F8F020D3F8F03003F099
:100A200000530193019B02B0704700BF0074014066
:100A30000044025808B51448144B0360144B43603B
:100A4000002383600122C260036143618361C3614B
:100A5000036202F0CDFF68B900210B4803F026F8CD
:100A600058B90021084803F04FF848B9012003F0B5
:100A700077F808BD00F0A2FAEEE700F09FFAF0E781
:100A800000F09CFAF2E700BFAC4C0020005400409C
:100A9000290B300008B51548154B0360A3F13E53F0
:100AA000A3F57D23A3F64423436000238360012242
:100AB000C260036143618361C361036202F098FF16
:100AC00050B90021094802F0F1FF40B90021074860
:100AD00003F01AF830B908BD00F070FAF1E700F041
:100AE0006DFAF3E700F06AFAF5E700BFF84C002072
:100AF0000058004008B51548154B0360A3F13E535C
:100B0000A3F57D23A3F644634360002383600122A1
:100B1000C260036143618361C361036202F068FFE5
:100B200050B90021094802F0C1FF40B9002107482F
:100B300002F0EAFF30B908BD00F040FAF1E700F03A
:100B40003DFAF3E700F03AFAF5E700BF9C4B0020CE
:100B5000005C004008B51548154B0360A3F18F43B6
:100B6000A3F57923A3F64463436000238360012245
:100B7000C260036143618361C361036202F038FFB5
:100B800050B90021094802F091FF40B900210748FF
:100B900002F0BAFF30B908BD00F010FAF1E700F03A
:100BA0000DFAF3E700F00AFAF5E700BFE84B002082
:100BB000001C005870B58EB0002309930A930B9364
:100BC0000C930D930368794A93420CD0784A934270
:100BD00065D0784A934200F08780774A934200F0CC
:100BE000C0800EB070BD0446744DD5F8E03043F0BF
:100BF0000203C5F8E030D5F8E03003F002030093BB
:100C0000009BC023099312230A9304230D9309A97F
:100C10006B4802F0F3FBD5F8E83043F40013C5F855
:100C2000E830D5F8E83003F400130193019B6548E0
:100C3000654B03602123436000238360C3604FF44E
:100C40008062026143618361C3614FF400320262DA
:100C5000436201F067FAE0B95A4BE3639C635B4877
:100C60005B4B036022234360402383600023C36007
:100C70004FF48062026143618361C3614FF40032CB
:100C80000262436201F04EFA30B9504BA3639C6399
:100C9000A7E700F093F9DFE700F090F9F5E7474C9C
:100CA000D4F8E03043F00203C4F8E030D4F8E03088
:100CB00003F002030293029B4FF440630993122353
:100CC0000A9304230D9309A93D4802F097FBD4F839
:100CD000E83043F48003C4F8E830D4F8E83003F493
:100CE00080030393039B7CE7344CD4F8E03043F05B
:100CF0000403C4F8E030D4F8E03003F004030493B4
:100D0000049BD4F8E03043F00103C4F8E030D4F899
:100D1000E03003F001030593059B4FF40073099342
:100D200012260A9604250D9509A92A4802F066FBA9
:100D30004FF4807309930A9600230B930C930D953F
:100D400009A9254802F05AFBD4F8E83043F400031F
:100D5000C4F8E830D4F8E83003F400030693069BA7
:100D60003FE7164CD4F8E03043F02003C4F8E030FD
:100D7000D4F8E03003F020030793079B4FF440437F
:100D8000099312230A9304230D9309A9134802F02F
:100D900035FBD4F8F43043F08003C4F8F430D4F8D1
:100DA000F43003F080030893089B1AE700540040D6
:100DB00000580040005C0040001C005800440258ED
:100DC00000040258444D002040040240344C0020EE
:100DD000580402400008025800000258001402584B
:100DE00008B50848084B03600023436040F6FF73D2
:100DF000C360836002F0CCFE00B908BD00F0DEF8ED
:100E0000FBE700BFBC4D00200048005810B5CCB037
:100E10004C22002139A807F06AFB2022002131A8CA
:100E200007F065FBBC22002102A807F060FB02204E
:100E300002F0DAFE002301932B4BDA6A22F0010262
:100E4000DA62DB6A03F001030193284A936923F411
:100E5000404343F480439361936903F44043019317
:100E6000019B224B9B6913F4005FFAD00A2339934C
:100E700001233C9340223D923E930223429300245F
:100E800043940422449209224592469347934893FF
:100E90000C2249924A934FF440634B9339A802F0D5
:100EA0006BFF3F23319332943394349435943694CA
:100EB00037943894214631A803F078FB0C4B029309
:100EC000149419941A944FF080531D931F942094F6
:100ED000229427944FF400732E932F9402A803F0CA
:100EE00001FE4CB010BD00BF00040058004802587D
:100EF0001BB0401200B583B04FF6FF7300E01346FD
:100F00002D4A126812F4004F02D05A1E002BF6DC54
:100F100000F0AAFEFFF77AFF274BD3F8E02042F05B
:100F20000072C3F8E020D3F8E03003F000730193BF
:100F3000019B002002F044FD0021084602F050FD14
:100F40004FF6FF7300E013461B4A126812F4004F7D
:100F500002D15A1E002BF6DCFFF7B2FCFFF76EFB46
:100F6000FFF73EFBFFF766FDFFF794FDFFF7C2FDBD
:100F700000F026F800F09EF800F0C6F800F0ECF85B
:100F800000F016F900F040F900F014FC00F046FC07
:100F900000F078FCFFF7C2FBFFF7ECFCFFF7DAFD8F
:100FA000FFF71EFF00F0A2FC05F024FCFFF778FC21
:100FB00005F040FCFEE700BF004402587047000007
:100FC00008B50A480A4B0360FF2343600122826090
:100FD0000023C360026143618361C361036202F065
:100FE00075FE00B908BDFFF7E9FFFBE7CC4D002017
:100FF00000500052F0B589B0002303930493059389
:10100000069307930268274B9A4201D009B0F0BDBE
:10101000254BD3F8D42042F48042C3F8D420D3F82F
:10102000D42002F480420092009AD3F8E02042F0EB
:101030002002C3F8E020D3F8E02002F02002019261
:10104000019AD3F8E02042F04002C3F8E020D3F840
:10105000E03003F040030293029B4FF49863039344
:101060000225049509230793104F03A9384602F07F
:10107000C5F94FF440730393049500240594069436
:101080000A26079603A9384602F0B8F940230393CD
:10109000049505940694079603A9054802F0AEF955
:1010A000B4E700BF00500052004402580014025838
:1010B0000018025808B50A480A4B03600023436031
:1010C0007F228260FF22C26003618361C36143614A
:1010D00004F014FC00B908BDFFF770FFFBE700BF88
:1010E000184E0020004000580268054B9A4200D07C
:1010F0007047044A136F43F400431367F8E700BFD7
:10110000004000580044025808B51148114B0360D4
:101110000023436083600322C260036143614FF098
:1011200080628261036243628362C362436383635A
:10113000C363036443648364C36403654365836575
:1011400004F09AFC00B908BDFFF738FFFBE700BFC9
:10115000B45100200030014008B51348134B036020
:101160004FF480034360002383600322C260036165
:1011700043614FF080628261C361036243628362B4
:10118000C3624FF0804242638363C363036443647A
:101190008364C36403654365836504F06DFC00B933
:1011A00008BDFFF70BFFFBE73C4E00200038004076
:1011B00008B51348134B03604FF4800343600023CA
:1011C00083600322C260036143614FF080628261E9
:1011D000C361036243628362C3624FF08042426331
:1011E0008363C363036443648364C36403654365C7
:1011F000836504F041FC00B908BDFFF7DFFEFBE7A3
:10120000B44F0020003C004008B51348134B036066
:101210004FF480034360002383600322C2600361B4
:1012200043614FF080628261C36103624362836203
:10123000C3624FF0804242638363C36303644364C9
:101240008364C36403654365836504F015FC00B9DA
:1012500008BDFFF7B3FEFBE72C510020003401402E
:1012600070B590B0044600230B930C930D930E932E
:101270000F9303687F4A93420DD07F4A934200F058
:1012800083807E4A934200F015817D4A934200F0AC
:10129000888110B070BD7B4BD3F8F02042F48052AF
:1012A000C3F8F020D3F8F02002F480520092009AA4
:1012B000D3F8E02042F00102C3F8E020D3F8E020A8
:1012C00002F001020192019AD3F8E02042F00802F4
:1012D000C3F8E020D3F8E03003F008030293029B48
:1012E00060230B9302250C9505260F960BA96648E3
:1012F00002F084F880230B930C9500250D950E9534
:101300000F960BA9614802F079F86148614B0360C0
:10131000252343608560C5604FF4806303614561A8
:101320008561C5614FF440330362456200F0FAFE07
:1013300020BB574BE3679C635748584B03602623F9
:101340004360402383600023C3604FF480620261E6
:1013500043618361C3614FF440320262436200F033
:10136000E1FE70B94C4BA3679C630022052123204A
:1013700000F0D0FC232000F0FFFC8AE7FFF71EFE00
:10138000D7E7FFF71BFEEDE73E4BD3F8E82042F42A
:101390008042C3F8E820D3F8E82002F480420392A8
:1013A000039AD3F8E02042F00402C3F8E020D3F817
:1013B000E02002F004020492049AD3F8E02042F004
:1013C0000102C3F8E020D3F8E03003F001030593F5
:1013D000059B0C230B9302250C9505260F960BA954
:1013E0002F4802F00BF84FF400730B930C95002577
:1013F0000D950E950F960BA9234801F0FFFF294884
:10140000294B0360272343608560C5604FF48063E8
:10141000036145618561C5610562456200F082FE38
:1014200010BB204BE3679C632048214B03602823BB
:101430004360402383600023C3604FF480620261F5
:1014400043618361C3610362436200F06BFE70B964
:10145000164BA3679C6300220521242000F05AFC50
:10146000242000F089FC14E7FFF7A8FDD9E7FFF777
:10147000A5FDEDE70030014000380040003C004091
:10148000003401400044025800000258000C025889
:101490003C520020100002402C5300202800024043
:1014A00000080258C44E002040000240B452002000
:1014B000580002406A4BD3F8E82042F40042C3F8D7
:1014C000E820D3F8E82002F400420692069AD3F806
:1014D000E02042F00202C3F8E020D3F8E02002F05E
:1014E00002020792079AD3F8E02042F00402C3F800
:1014F000E020D3F8E03003F004030893089B0423B2
:101500000B9302250C9507230F930BA9554801F067
:1015100075FF4FF440630B930C9500250D950E95C8
:1015200006230F930BA9504801F068FF4F48504B1A
:1015300003603D2343608560C5604FF480630361B1
:1015400045618561C5610562456200F0EBFD10BB38
:10155000464BE3679C634748474B03603E23436029
:10156000402383600023C3604FF4806202614361C3
:101570008361C3610362436200F0D4FD70B93D4BE7
:10158000A3679C6300220521332000F0C3FB3320B6
:1015900000F0F2FB7DE6FFF711FDD9E7FFF70EFD46
:1015A000EDE72F4BD3F8F02042F40052C3F8F020BF
:1015B000D3F8F02002F400520992099AD3F8E020FF
:1015C00042F01002C3F8E020D3F8E03003F010033B
:1015D0000A930A9B64230B9302230C9305230F9316
:1015E0000BA9264801F00AFF2548264B0360532328
:1015F000436000238360C3604FF4806202614361F3
:101600008361C3610362436200F08CFD10BB1C4B1D
:10161000E3679C631C481D4B0360542343604023D5
:1016200083600023C3604FF4806202614361836181
:10163000C3610362436200F075FD70B9124BA3678A
:101640009C6300220521542000F064FB542000F02C
:1016500093FB1EE6FFF7B2FCD9E7FFF7AFFCEDE71F
:10166000004402580004025800080258A453002005
:10167000700002403C5000208800024000100258D8
:101680003C4F0020A0000240B4500020B8000240AF
:1016900000B583B00A4BD3F8F42042F00202C3F83D
:1016A000F420D3F8F43003F002030193019B0022ED
:1016B0000F216FF0010000F02DFB03B05DF804FB7B
:1016C000004402587047FEE7FEE7FEE7FEE770477A
:1016D0007047000008B5024801F038F808BD00BFA7
:1016E0003C52002008B5024801F030F808BD00BFA8
:1016F0002C53002008B5024801F028F808BD00BFAF
:10170000C44E002008B5024801F020F808BD00BF13
:10171000B452002008B5024801F018F808BD00BF17
:10172000A453002008B5024801F010F808BD00BF1E
:101730003C50002008B5024801F008F808BD00BF81
:101740003C4F002008B5024804F042FA08BD00BF33
:10175000B451002008B5024804F03AFA08BD00BFB1
:101760003C4E002008B5024800F0F0FF08BD00BF65
:10177000B450002008B5024804F02AFA08BD00BFA2
:10178000B44F002008B5024800F0E0FF08BD00BFDC
:10179000444D002008B5024800F0D8FF08BD00BF46
:1017A000344C002008B5024804F012FA08BD00BF0E
:1017B0002C51002008B51748174B03604FF4E13354
:1017C000436000238360C36003610C224261836134
:1017D000C36103624362836204F035FF70B9002184
:1017E0000C4804F0BCFF60B900210A4804F0DCFF9B
:1017F00050B9084804F094FF48B908BDFFF7DEFB74
:10180000EDE7FFF7DBFBEFE7FFF7D8FBF1E7FFF7CB
:10181000D5FBF2E7A85400200010014008B5174896
:10182000174B03604FF4E133436000238360C360D0
:1018300003610C2242618361C3610362436283627C
:1018400004F001FF70B900210C4804F088FF60B972
:1018500000210A4804F0A8FF50B9084804F060FFCE
:1018600048B908BDFFF7AAFBEDE7FFF7A7FBEFE7D5
:10187000FFF7A4FBF1E7FFF7A1FBF2E7C05500205B
:101880000044004008B51748174B03604FF4E1339C
:10189000436000238360C36003610C224261836163
:1018A000C36103624362836204F0CDFE70B900211C
:1018B0000C4804F054FF60B900210A4804F074FF9A
:1018C00050B9084804F02CFF48B908BDFFF776FB73
:1018D000EDE7FFF773FBEFE7FFF770FBF1E7FFF7CB
:1018E0006DFBF2E71C5400200048004008B5174883
:1018F000174B03604FF4E133436000238360C36000
:1019000003610C2242618361C361036243628362AB
:1019100004F099FE70B900210C4804F020FF60B972
:1019200000210A4804F040FF50B9084804F0F8FECE
:1019300048B908BDFFF742FBEDE7FFF73FFBEFE7D4
:10194000FFF73CFBF1E7FFF739FBF2E734550020E6
:101950000014014030B591B000230B930C930D930C
:101960000E930F930368684A93420BD0674A9342E1
:101970002DD0674A934265D0664A934200F0878033
:1019800011B030BD644BD3F8F02042F01002C3F820
:10199000F020D3F8F02002F010020192019AD3F85F
:1019A000E02042F00202C3F8E020D3F8E03003F078
:1019B00002030293029B4FF440430B9302230C93C8
:1019C00004230F930BA9554801F018FDD8E7524B9B
:1019D000D3F8E82042F40032C3F8E820D3F8E82036
:1019E00002F400320392039AD3F8E02042F001029D
:1019F000C3F8E020D3F8E02002F001020492049A38
:101A0000D3F8E02042F00802C3F8E020D3F8E03039
:101A100003F008030593059B08230B9302250C95FF
:101A200007240F940BA93E4801F0E8FC20230B93F8
:101A30000C9500230D930E930F940BA9394801F0D8
:101A4000DDFC9DE7344BD3F8E82042F48022C3F854
:101A5000E820D3F8E82002F480220692069AD3F810
:101A6000E02042F00802C3F8E020D3F8E03003F0B1
:101A700008030793079B4FF440730B9302230C93C7
:101A800007230F930BA9274801F0B8FC78E7224BF6
:101A9000D3F8F02042F02002C3F8F020D3F8F02071
:101AA00002F020020892089AD3F8E02042F00402E3
:101AB000C3F8E020D3F8E02002F004020992099A6A
:101AC000D3F8E02042F04002C3F8E020D3F8E03041
:101AD00003F040030A930A9B80230B9302250C9585
:101AE00007240F940BA9104801F088FC4FF48043A1
:101AF0000B930C9500230D930E930F940BA90B4899
:101B000001F07CFC3CE700BF0010014000440040B5
:101B100000480040001401400044025800040258EC
:101B200000000258000C0258000802580018025821
:101B30002E4BD3F8882042F47002C3F888201A692B
:101B400042F010021A612A4B1B6803F00F03062BA8
:101B500006D8274A136823F00F0343F007031360E6
:101B6000244B1A6842F001021A6000221A611968B7
:101B7000214A0A401A601E4B1B6803F00F03072B13
:101B800006D91B4A136823F00F0343F007031360C1
:101B9000184B00229A61DA611A6218499962184951
:101BA000D962184919635A639963DA6319645A64EC
:101BB000196821F4802119601A66134A536A43F4A4
:101BC00080435362114B1A68114B1340B3F1005F0D
:101BD00002D2104B01221A600F4B43F2D2021A605C
:101BE000024B4FF000629A60704700BF00ED00E0CA
:101BF00000200052004402587FEDF6EA0002020283
:101C00000000FF0180020101C00000580010005CCC
:101C10000000FFFF0881005100400052104B1B786C
:101C20000BB90120704710B504464FF47A70B0FB31
:101C3000F3F30C4A1068B0FBF3F000F0ABF868B9AE
:101C40000F2C01D901200AE0002221464FF0FF307D
:101C500000F060F8024B5C60002000E0012010BD45
:101C6000080000200400002010B5032000F040F818
:101C700002F0A6FB0F498B69C3F303230E4AD35C22
:101C800003F01F03D8408B6903F00F03D35C03F00C
:101C90001F0320FA03F3094A1360094B18600F2051
:101CA000FFF7BCFF10B10124204610BD0446FFF72A
:101CB000EFFCF9E7004402583C85000800000020D2
:101CC00004000020014B1868704700BF4C560020EC
:101CD000014B1868000C70470010005C034A536801
:101CE00023F4600318435060704700BF000400589D
:101CF0000649CB6823F4E0631B041B0C000200F4CC
:101D0000E0600343024A1A43CA60704700ED00E0F6
:101D10000000FA0530B4154BDB68C3F30223C3F1AE
:101D20000704042C28BF04241D1D062D14D9033BD1
:101D30004FF0FF3505FA04F421EA0401994005FA51
:101D400003F322EA03031943002807DB0901C9B2A0
:101D5000074B195430BC70470023E9E700F00F002F
:101D60000901C9B2034B1954F4E700BF00ED00E0CC
:101D700000E400E014ED00E0002807DB00F01F02A3
:101D8000400901239340024A42F82030704700BFC7
:101D900000E100E00138B0F1807F0AD2064B5860C4
:101DA000064AF02182F823100020986007221A606A
:101DB00070470120704700BF10E000E000ED00E038
:101DC000002838D010B50446437F1BB30223637745
:101DD00023791BBB2368194A5A612268936823F050
:101DE00018039360637913BB23684FF0FF321A61C5
:101DF0002268936823F0600361690B439360226853
:101E0000936823F08003A1690B43936001236377F8
:101E1000002010BD0377FEF7F9FBD7E7E268A16861
:101E2000204600F00DF80028DCD00120F1E72368FF
:101E300022691A61DCE70120704700BFB71DC104A9
:101E400030B41F24651E3CB105F01F0321FA03F3D3
:101E50002C4613F0010FF5D0182A23D8DFE802F042
:101E60000F222222222222221E2222222222222269
:101E70001A222222222222220D00062D14D80368C3
:101E8000596101688B6823F018031A438A600020A7
:101E900030BC7047072DF2D90120F9E70F2DEED99C
:101EA0000120F5E70120F3E70120F1E70268284966
:101EB000284B9A4218BF8A422FD018339A422CD00E
:101EC00018339A4229D018339A4226D018339A42AE
:101ED00023D018339A4220D018339A421DD003F5EC
:101EE00056739A4219D018339A4216D018339A4230
:101EF00013D018339A4210D018339A420DD01833A9
:101F00009A420AD018339A4207D018339A4204D022
:101F100022F0FF028265806D704710B4D3B2103B8F
:101F20000D49A1FB03131B0903F007010B4C615C76
:101F3000C165032B06D80A4B13408365806D5DF89D
:101F4000044B7047064B134004338365F6E700BF2C
:101F50001000024028000240ABAAAAAA4C85000843
:101F600000FCFFFF83699BB9836A012B0AD01BB178
:101F7000022B01D000207047C36A13F0807F2ED15E
:101F800000207047C36AB3F1C07F2AD00020704799
:101F9000B3F5005F06D0836A022B2AD9032B16D033
:101FA00000207047836A032B03D8DFE803F01C048A
:101FB0001C0A00207047C36A13F0807F15D10020EF
:101FC0007047C36AB3F1C07F11D000207047C36A65
:101FD00013F0807F01D0012070470020704701205E
:101FE0007047012070470120704701207047012091
:101FF000704701207047000003682249224A93423B
:1020000018BF8B4228D01432934225D01432934209
:1020100022D0143293421FD0143293421CD0143277
:10202000934219D01432934216D0DAB2103A1749BB
:10203000A1FB0212120916491944A8291FD9154BF0
:1020400013449B000366144B436602F01F020123F6
:1020500003FA02F282667047DBB2083B0F4AA2FB2A
:1020600003231B090E4A1A44920002660D4A426677
:1020700003F01F03012202FA03F38366704708325C
:10208000DDE700BF085402581C540258ABAAAAAAA4
:10209000F0FBFDBF0082001080080240CDCCCCCC0C
:1020A000009600168058025801794A1E072A2CD83B
:1020B00030B40368154D164CA34218BFAB4218D07C
:1020C0001434A34215D01434A34212D01434A342C2
:1020D0000FD01434A3420CD01434A34209D01434CA
:1020E000A34206D00B4B0B449B00C3660A4B03670D
:1020F00005E00A4B0B449B00C366094B03670123B1
:1021000003FA02F2426730BC704770470854025825
:102110001C5402583F820010400902403F960016AE
:102120004059025870B50446FFF7CCFD002C00F072
:10213000BD8105462368B749B74A934218BF8B4211
:102140000CBF0122002250D030318B424DD01831CB
:102150008B424AD018318B4247D018318B4244D041
:1021600018318B4241D018318B423ED001F5567167
:102170008B423AD018318B4237D018318B4234D051
:1021800018318B4231D018318B422ED018318B420E
:102190002BD018318B4228D018318B4225D09F4943
:1021A0009F4A934218BF8B4200F024819D4A93427C
:1021B00000F020811432934200F01C8114329342CB
:1021C00000F018811432934200F0148114329342CB
:1021D00000F010811432934200F00C8140236365BB
:1021E000032384F8353001204AE0002184F83410BC
:1021F000022184F835107ABB8B4A93422CD01832D6
:10220000934229D01832934226D01832934223D0D9
:102210001832934220D0183293421DD002F55672E4
:10222000934219D01832934216D01832934213D0E9
:102230001832934210D0183293420DD01832934284
:102240000AD01832934207D01832934204D01A6849
:1022500022F001021A6003E01A6822F001021A60FB
:1022600023681A6812F0010F0BD0FFF72BFD401BFB
:102270000528F5D920236365032384F83530012030
:1022800070BD1A6869481040A168E2680A43216974
:102290000A4361690A43A1690A43E1690A43216A61
:1022A0000A430243616A042900F099806049086882
:1022B00060490140B1F1005F11D36168A1F12905C6
:1022C000A1F13F00032888BF052D06D9A1F14700E1
:1022D000012802D94F39032901D842F480121A602B
:1022E0002668756925F00705636A1D43042B08D12C
:1022F000A36A1D43E36A23B12046FFF733FE00289B
:1023000072D175612046FFF7D1FDE36D03F01F0226
:102310003F239340836023683E493F4A934218BF5E
:102320008B4242D0183293423FD0183293423CD075
:102330001832934239D01832934236D01832934231
:1023400033D01832934230D002F5567293422CD0DB
:102350001832934229D01832934226D01832934231
:1023600023D01832934220D0183293421DD0183215
:1023700093421AD01832934217D0284A934214D06D
:102380001432934211D0143293420ED0143293423D
:102390000BD01432934208D01432934205D0143239
:1023A000934202D01432934213D12046FFF724FE09
:1023B000A368802B6DD0236E22791A60636EA26EA3
:1023C0005A606368013B072B66D90023E3662367E5
:1023D000636700206065012384F8353050E7E16AC7
:1023E000206B01430A4361E740236365012084F8C1
:1023F000350045E7002284F83420022284F8352095
:102400001A680D491140A268402A1AD0802A15D0B6
:10241000002217E010000240280002400854025831
:102420001C54025830540258400002403F8010FEB5
:102430000010005C0000FFFF0F00FEFF4FF4804221
:1024400000E01022E06842EAD002206942EAD002AD
:10245000606942EAD002A06942EAD002E06942EA39
:10246000D002206A42EA10120A431A602268104B16
:102470001344104AA2FB03231B099B00E36520467B
:10248000FFF714FDE36D03F01F0201239340436047
:1024900041E7002363608EE72046FFF705FEE36E09
:1024A00000221A60236F626F5A6092E70120E7E60C
:1024B000F8ABFDA7CDCCCCCC002800F03A8108B514
:1024C000024690F83530DBB2022B03D080234365FF
:1024D000012008BD0368994899498B4218BF83427F
:1024E0000CBF0121002100F0E4803030834200F075
:1024F000E0801830834200F0DC801830834200F026
:10250000D8801830834200F0D4801830834200F025
:10251000D0801830834200F0CC8000F556708342A2
:1025200000F0C7801830834200F0C3801830834227
:1025300000F0BF801830834200F0BB801830834227
:1025400000F0B7801830834200F0B3801830834227
:1025500000F0AF801830834200F0AB80196821F0A2
:102560000E0119601368A0F5956075498B4218BF7C
:1025700083422BD073498B4228D018318B4225D00F
:1025800018318B4222D018318B421FD018318B4228
:102590001CD018318B4219D001F556718B4215D0E1
:1025A00018318B4212D018318B420FD018318B4228
:1025B0000CD018318B4209D018318B4206D018311B
:1025C0008B4203D018318B4240F0AE80196821F065
:1025D000010119601368594859498B4218BF834259
:1025E00042D018318B423FD018318B423CD0183149
:1025F0008B4239D018318B4236D018318B4233D0D0
:1026000018318B4230D001F556718B422CD01831E5
:102610008B4229D018318B4226D018318B4223D0DF
:1026200018318B4220D018318B421DD018318B428B
:102630001AD018318B4217D043498B4214D0143131
:102640008B4211D014318B420ED014318B420BD0FF
:1026500014318B4208D014318B4205D014318B4297
:1026600002D014318B4217D1116E0B6823F48073A2
:102670000B60906DD36D03F01F0101238B4043600D
:10268000536E916E5960D36E33B1196821F4807125
:102690001960136F516F5960002382F834300123A1
:1026A00082F83530136D002B45D010469847002036
:1026B0000FE7042082F8350081BB224A93422DD0D7
:1026C000183293422AD01832934227D018329342BC
:1026D00024D01832934221D0183293421ED002F5F2
:1026E000567293421AD01832934217D0183293423E
:1026F00014D01832934211D0183293420ED01832AF
:1027000093420BD01832934208D01832934205D02E
:102710001A6822F001021A600020DAE61A6822F034
:1027200001021A600020D4E6196821F00101196045
:1027300050E7012070470020CBE600BF10000240A8
:10274000280002404000024008540258F0B583B00F
:10275000044600230193A24B1D68A24BA3FB053541
:10276000AD0A876D3E68D7F800C003689E499F4850
:10277000834218BF8B420CBF0120002061D09C4ACD
:1027800093425ED0183293425BD01832934258D0B5
:102790001832934255D01832934252D01832934295
:1027A0004FD002F5567293424BD01832934248D024
:1027B0001832934245D01832934242D01832934295
:1027C0003FD0183293423CD01832934239D018325D
:1027D000934236D08749884A934218BF8B4212D021
:1027E000864A93420FD0143293420CD01432934253
:1027F00009D01432934206D01432934203D01432DB
:10280000934240F062821A68E16D01F01F010420DA
:10281000884010EA0C0F00F0A88212F0040F00F0BC
:10282000A482786012F4004F00F05B8212F4803FC3
:1028300040F05182A36C002B00F04782204698475D
:1028400043E2E26D02F01F0108228A40324241D089
:1028500070BB674A93422BD01832934228D018326B
:10286000934225D01832934222D0183293421FD07F
:10287000183293421CD002F55672934218D0183287
:10288000934215D01832934212D0183293420FD08F
:10289000183293420CD01832934209D01832934226
:1028A00006D01832934203D01A68C2F3C00202E085
:1028B0001A68C2F380026AB11A6822F004021A6030
:1028C000E36D03F01F0208239340BB60636D43F088
:1028D00001036365E26D02F01F0226FA02F313F0B2
:1028E000010F37D02368404840498B4218BF8342CC
:1028F0002CD018318B4229D018318B4226D0183178
:102900008B4223D018318B4220D018318B421DD0FE
:1029100018318B421AD001F556718B4216D01831FE
:102920008B4213D018318B4210D018318B420DD00E
:1029300018318B420AD018318B4207D018318B42A4
:1029400004D018318B4201D01B6803E05B6913F09F
:10295000800F3BD1E36D03F01F03042202FA03F35F
:10296000334251D02268204820498A4218BF82420F
:1029700046D018318A4243D018318A4240D01831AB
:102980008A423DD018318A423AD018318A4237D033
:1029900018318A4234D001F556718A4230D018314C
:1029A0008A422DD018318A422AD018318A4227D043
:1029B00018318A4224D018318A4221D018318A42F3
:1029C0001ED018318A421BD013681DE0012303FA80
:1029D00002F2BA60636D43F002036365BAE700BFB9
:1029E00004000020B5814E1B100002402800024068
:1029F00040000240085402581C54025830540258F7
:102A0000126812F0020F3DD1E36D03F01F03102294
:102A100002FA03F333425FD022689B489B498A4203
:102A200018BF824234D018318A4231D018318A42DC
:102A30002ED018318A422BD018318A4228D0183132
:102A40008A4225D018318A4222D001F556718A4235
:102A50001ED018318A421BD018318A4218D0183142
:102A60008A4215D018318A4212D018318A420FD0CA
:102A700018318A420CD018318A4209D01268C2F348
:102A8000800208E0BB60636D43F004036365BBE74D
:102A90001268C2F3C002FAB1BB6023681A6812F46C
:102AA000802F0DD01B6813F4002F04D1236C9BB131
:102AB0002046984710E0A36C73B1204698470BE07E
:102AC0001A6812F4807F03D11A6822F008021A6093
:102AD000236C0BB120469847E36D03F01F032022BF
:102AE00002FA03F3334200F08E8022686648674999
:102AF0008A4218BF82422ED018318A422BD0183118
:102B00008A4228D018318A4225D018318A4222D0F0
:102B100018318A421FD018318A421CD001F55671F3
:102B20008A4218D018318A4215D018318A4212D000
:102B300018318A420FD018318A420CD018318A429B
:102B400009D018318A4206D018318A4203D012685F
:102B5000C2F3400202E01268C2F30012002A52D00F
:102B6000BB6094F83530DBB2042B0ED023681A68B2
:102B700012F4802F35D01B6813F4002F2CD1636C16
:102B8000002B40D0204698473DE02268136823F090
:102B9000160313602268536923F080035361236C8A
:102BA000B3B12268136823F008031360E36D03F0E8
:102BB0001F023F239340BB60002384F8343001237D
:102BC00084F83530236D002B7FD0204698477CE079
:102BD000A36C002BE5D1E9E7E36BA3B1204698474E
:102BE00011E01A6812F4807F09D11A6822F01002ED
:102BF0001A60002384F83430012384F83530E36B05
:102C00000BB120469847636D002B5ED0636D13F0C7
:102C1000010F56D0042384F8353023681A491B4A23
:102C2000934218BF8B4233D01832934230D01832BF
:102C300093422DD0183293422AD01832934227D093
:102C40001832934224D01832934221D002F55672A2
:102C500093421DD0183293421AD01832934217D0A3
:102C60001832934214D01832934211D01832934242
:102C70000ED0183293420BD01832934208D01A6803
:102C800022F001021A6007E0100002402800024012
:102C90001A6822F001021A60019B01330193AB42D2
:102CA00004D823681B6813F0010FF5D1002384F8C2
:102CB000343023681B6813F0010F08D0032384F815
:102CC0003530E36C0BB12046984703B0F0BD0123CB
:102CD00084F83530F5E7236C002BF6D02046984772
:102CE000F3E712F0200F35D123686449644A934218
:102CF00018BF8B422AD01832934227D01832934201
:102D000024D01832934221D0183293421ED0183268
:102D100093421BD01832934218D002F55672934258
:102D200014D01832934211D0183293420ED0183278
:102D300093420BD01832934208D01832934205D0F8
:102D40001832934202D01832934209D11A6822F005
:102D500008021A60236C002BB7D020469847B4E7CE
:102D60001A6822F004021A60F4E70220884010EA90
:102D70000C0F60D012F0020F5DD0786012F4004F9B
:102D80000ED012F4803F05D1636C002B9DD02046FD
:102D900098479AE7E36B002B97D02046984794E733
:102DA00012F0200F3BD123683449354A934218BFB3
:102DB0008B422AD01832934227D01832934224D023
:102DC0001832934221D0183293421ED018329342C7
:102DD0001BD01832934218D002F55672934214D089
:102DE0001832934211D0183293420ED018329342C7
:102DF0000BD01832934208D01832934205D01832C3
:102E0000934202D01832934210D11A6822F0140271
:102E10001A60002384F83430012384F83530E36BE2
:102E2000002B3FF452AF204698474EE71A6822F035
:102E30000A021A60EDE7082000FA01F111EA0C0F0E
:102E40003FF443AF12F0080F3FF43FAF1A6822F08F
:102E50000E021A60E36D03F01F03012202FA03F36E
:102E60007B606265002384F8343084F83520E36C9D
:102E7000002B3FF42AAF2046984726E71000024077
:102E80002800024030B48B680A6813430A7943EA89
:102E9000C2630A7B43EAC2534A7B43EA82538A7B7A
:102EA00043EA4253CA7B43EA02530A7C002A40F0B9
:102EB000B0804FF4002213434A7C002A40F0AB80DC
:102EC0004FF4003213438A7C43EA02434A691343B6
:102ED0008A6913430A7F43EA02334A7F43EAC223E3
:102EE0008A7F002A40F099804FF480621343CA7FA2
:102EF00043EA422391F82020002A40F090804FF4CA
:102F0000807213434A6A134391F8282043EA02135C
:102F1000CA6A13430468226822F07F4222F47B02CB
:102F200022F4FE4222F07C0213432360CA6B91F824
:102F300038301B0643EA426391F8302043EA82436B
:102F400091F8312043EA424391F83220002A68D1B7
:102F50004FF4803213434A6B13430468626822F0D3
:102F60007C5222F4EF2222F4FF6222F00702134384
:102F7000636091F840204B6C43EA02220468E568E4
:102F80002B4B2B401343E36091F854200B6D43EA25
:102F9000420391F84C20002A45D1802213438A6CC9
:102FA00043EA02430468226F22F0F2021204120C78
:102FB0001343236791F8563091F8552043EA4202B3
:102FC0000468D4F8903023F003031343C4F890301E
:102FD0000268D2F8003D23F072038C6D2343C2F8DF
:102FE000003DCB6D91F86020FAB10022134391F8B7
:102FF000612043EA021391F8622043EAC2030168A8
:10300000D1F8302D22F07B021343C1F8303D30BCA3
:10301000704700224FE7002254E7002266E70022B3
:103020006FE7002296E70022B8E74022DEE700BF04
:10303000F0FEFFFF70B4026802F5805214681E4B68
:1030400023400C68234313600A798B6843EA0233F8
:103050000A7B43EAC232056841F204042E59174B39
:10306000334013432B514C7B0B6A43EA0444026800
:1030700002F588521568124B2B40234313600B69ED
:103080000A7D43EA02134A7F43EA0232056841F2AD
:1030900004142E590B4B334013432B510A7F8B6979
:1030A00043EAC272006841F208114458064B2340BB
:1030B0001343435070BC7047FD87FFFFFE2FFFFF97
:1030C00000C0FEFFEFEFC0FFFFFFC07F70B5A2B0F2
:1030D000064601258DF83350002412948DF84140A6
:1030E0008DF843408DF828508DF856508DF83250A9
:1030F0008DF84C408DF884504FF400530F938DF8A9
:103100005C4018948DF885408DF886404FF4C36379
:1031100016938DF830400B948DF835508DF836406D
:103120008DF840401D941B9414948DF864408DF8E4
:103130007A408DF84250202320938DF844508DF82A
:1031400055404FF0405309934FF480430E938DF850
:10315000314002231F938DF878408DF879408DF827
:1031600054408DF834501A948DF8705009A9FFF727
:1031700089FE8DF80450029500948DF81C408DF85E
:103180000D408DF80C404FF4001306938DF8144059
:1031900004938DF81D404FF406730893694630463A
:1031A000FFF748FF22B070BD30B400230DE0C568C2
:1031B00003EB4302D4002A19002129515160916088
:1031C000D160991D40F821200133032BEFD9002352
:1031D0008362026841F22C130321D150C168026856
:1031E00041F21413D150C268036803F589531A6081
:1031F00030BC704730B4002111E0056901EB410398
:10320000DC002B1900222A515A609A60DA601A6198
:103210005A6101F10A0200EB820253600131032975
:10322000EBD90023C36303644364C364836402680B
:1032300041F230130321D1500169026841F21C139D
:10324000D15003694833016841F228128B5030BCD9
:103250007047000038B505460368D3F8004224F4EF
:10326000706401F0EDFA114B0344114A934211D9F5
:10327000104B0344104A934212D9104B0344104A96
:10328000934209D90F4B03440F4A93420BD944F49C
:10329000806401E044F400742B68C3F8004238BD38
:1032A00044F44074F8E744F48074F5E700D3CEFEAC
:1032B000BFE1E40040F1E9FD3F787D0100796CFC5D
:1032C000FF596202001F0AFA7FF0FA02002800F09C
:1032D0008C8030B583B00446436D8BB32323636584
:1032E000434BD3F8F42042F00202C3F8F420D3F8A1
:1032F000F43003F002030193019B237A1BBB0020EF
:10330000FEF7ECFC236803F580531A6842F00102D3
:103310001A60FEF7D7FC0546236803F580531B6847
:1033200013F0010F14D0FEF7CDFC401BB0F5FA7F6F
:10333000F2D90423E365E0236365012003B030BDC7
:10334000FDF726FACAE74FF40000FEF7C7FCD9E7FD
:103350002046FFF77FFF01F073FA264BA3FB002303
:103360009B0C2268013BC2F8DC302046FFF7AEFE22
:10337000226802F58852136823F4E01343F4002313
:103380001360636913F0030F04D00120E065E023AC
:103390006365D3E7206841F208114558164A2A4070
:1033A00042EA430343502046FFF7FEFE2046FFF764
:1033B00021FF626851791379226843EA0123C2F838
:1033C00000336268D17893781B0443EA0163517833
:1033D00043EA0123117822680B43C2F8043300202A
:1033E000E06510236365A365A8E70120704700BF6F
:1033F0000044025883DE1B430180FFFFF0B583B019
:1034000000233AE0092400E00024B4403C430235A4
:103410006E4E46F825406E4C2568D44304EA0506F6
:103420004F6817F4803F01D042EA0506684D2E60D0
:103430006E6804EA06054F6817F4003F01D042EABF
:103440000605634E75604FF0B0452D6804EA050629
:103450004F6817F4801F01D042EA05064FF0B045CF
:103460002E606D682C404E6816F4001F01D042EAB1
:1034700005044FF0B042546001330A6832FA03F495
:1034800000F0A28001249C402240F5D04D686E1EC1
:10349000112D18BF012E01D9122D12D186685F009F
:1034A0000325BD4026EA0506CD68BD40354385604D
:1034B000466826EA04064D68C5F300149C40344370
:1034C0004460C6685F000325BD40EC4326408D681C
:1034D000BD403543C5604D68122D18BF022D13D174
:1034E000DE08083650F826E003F007054FEA850CA1
:1034F0000F2505FA0CF52EEA050E0D6905FA0CF5F7
:1035000045EA0E0540F82650056825404C6804F051
:103510000304BC402C4304604C6814F0805FABD0C3
:103520002C4CD4F8F45045F00205C4F8F450D4F80B
:10353000F44004F002040194019C9D08AE1C234C4D
:1035400054F8267003F00304A6000F24B44027EAC1
:103550000407214CA0423FF457AF04F58064A04219
:1035600022D004F58064A04220D004F58064A042FB
:103570001ED004F58064A0421CD004F58064A042F3
:103580001AD004F58064A04218D004F58064A042EB
:1035900016D004F58064A04214D004F58064A042E3
:1035A0003FF430AF0A2430E701242EE702242CE751
:1035B00003242AE7042428E7052426E7062424E731
:1035C000072422E7082420E703B0F0BD00040058D8
:1035D00080000058004402580000025810B40468EB
:1035E000226822F007028B68134323F01803CA688D
:1035F0001343236003680A685A6103684A689A6142
:103600005DF8044B704770B406684C1CE4013559F2
:1036100025F0070593682B4323F01803D5682B4347
:10362000335103681468C9010B44C3F8944003681C
:1036300052681944C1F8982070BC704730B40468CF
:103640002268D4F8A05322F020024B69134323F4DC
:1036500000628B69134323F48062CB69134323F028
:10366000C0620B6A134323F000624B6A134323F0DA
:1036700040438A6A43EA820323F000530A6B1343F0
:1036800025F48035CA6A154323600368C3F8A05344
:1036900030BC70472DE9F04105684B1CDB01EC584C
:1036A00024F07044EC500768FB5807EBC114D4F8C1
:1036B000E8C0D4F8E450D7F8A06323F0200453699D
:1036C000234323F400649369234323F48064D36980
:1036D000234323F0C064136A234323F00064536A36
:1036E000234323F07044936A234323F40033146B81
:1036F000B4F1005F38D023F04003D2F834E04EEA52
:10370000030323F48023146D234323F0FC73946C90
:1037100043EA04082CF01F0C946B04F01F0444EAE5
:103720000C0424F00044D36B1C43BEF1000F03D102
:1037300025F48075136C1D43D2F844C0BCF5606F4E
:1037400018BFBCF5F05F02D1BEF1400F03D125F4E4
:10375000F0554CEA0505D2F84CC004290CD8DFE836
:1037600001F00621272D330043F40033C3E726F48C
:103770000036D26A46EA42064A1CD20147F8028065
:103780000368C9010B44C3F8E84003680B44C3F85D
:10379000E45003681944C1F8D4C00368C3F8A063B7
:1037A000BDE8F08126F48026D26A46EA8206E3E785
:1037B00026F40026D26A46EAC206DDE726F4801621
:1037C000D26A46EA0216D7E726F40016D26A46EA1B
:1037D0004216D1E7052933D8DFE801F00B131B238C
:1037E0002B030268D2F8843343F00103C2F8843318
:1037F00070470268D2F8843343F00203C2F884337E
:1038000070470268D2F8843343F00403C2F884336B
:1038100070470268D2F8843343F00803C2F8843357
:1038200070470268D2F8843343F01003C2F884333F
:1038300070470268D2F8843343F02003C2F884331F
:1038400070470000002863D010B582B00446022300
:1038500080F8C1300023C0F8C430C0F8C830C0F8C8
:10386000CC30C0F8D030C0F8D430C0F8D83083683D
:1038700013F0010F12D00268264B9A4225D021681E
:103880000A6822F44042236903F44043134323F4BB
:103890004053626902F4405213430B602046FDF727
:1038A000AFF8A36813F0020F08D021680A6822F469
:1038B0004072E36803F4407313430B60012384F800
:1038C000C130002284F8C0201DE0134BD3F8F02053
:1038D00042F00052C3F8F020D3F8F03003F0005368
:1038E0000193019BCBE7D000811A8B002344002178
:1038F0009961D961196259629962831A98002044CA
:1039000001630132D2B2052AEDD9002002B010BD08
:1039100001207047007401400044025890F8C13003
:10392000DBB2022B11D010B50446022380F8C1305F
:10393000052906D0FFF767FE012384F8C130002077
:1039400010BD1146FFF74AFEF6E70220704790F8D7
:10395000C130DBB2022B2ED090F8C030012B2CD01E
:1039600070B516460D460446012380F8C030022388
:1039700080F8C13005291AD0FFF78CFE3168EA00C3
:10398000521B93002344196272685A62B2689A62A9
:10399000F268DA6232691A6329462046FFF71AFF95
:1039A000012384F8C130002084F8C00070BD1146A6
:1039B000FFF744FEE2E70220704702207047000054
:1039C0002030054B53F82020044B9A4201D00120AF
:1039D00070470020704700BF006402580003008059
:1039E00041F44071014B43F82010704700640258C5
:1039F000002857D010B5044690F84130002B41D034
:103A0000242384F841302268136823F001031360F3
:103A10006368226823F0706313612268936823F45B
:103A200000439360E368012B31D0A368226843F41C
:103A300004439360E368022B2FD0226851681A4B2D
:103A40000B4353602268D36823F40043D360236997
:103A500062691343A169226843EA0123D360E369E1
:103A6000216A22680B4313602268136843F0010344
:103A7000136000206064202384F84130206384F8C0
:103A8000420010BD80F84030FDF794F8B8E7A36815
:103A9000226843F400439360CCE723684FF400624C
:103AA0005A60CAE7012070470080000290F8413058
:103AB000DBB2202B24D190F84030012B22D00123FF
:103AC00080F84030242380F841300268136823F0E6
:103AD000010313600268136823F4805313600268C3
:103AE0001368194311600268136843F001031360FF
:103AF000202380F84130002380F84030184670477A
:103B0000022070470220704790F84130DBB2202B32
:103B100022D190F84030012B20D0012380F8403092
:103B2000242380F841300268136823F001031360F6
:103B30000268136823F4706343EA0121116002688C
:103B4000136843F001031360202380F84130002301
:103B500080F84030184670470220704702207047B6
:103B600082B0094BD3F8F42042F00202C3F8F420EB
:103B7000D3F8F43003F002030193019B034A536826
:103B80001843506002B070470044025800040058C7
:103B900040B338B5044603684CF6CC421A6003685B
:103BA00045F255521A60036842685A600368826899
:103BB0009A60FEF787F805462368DA6832B1FEF7A7
:103BC00081F8401B3028F7D9032038BD1969E26815
:103BD000914202D01A610020F7E74AF6AA221A6041
:103BE0000020F2E70120704738B5234BDB6803F073
:103BF0000703062B07D0204BDB6803F03F0383420B
:103C000037D0012038BD04461B4AD36823F03F0358
:103C10000343D360FEF756F80546174B5B6813F471
:103C2000005F07D1FEF74EF8401BB0F57A7FF4D95C
:103C30000120E7E72E2C18BF1E2C08D02D2C14BF16
:103C4000002301231D2C02D00BB90020DAE7FEF778
:103C500039F80446084BDB6813F4803F07D1FEF7C0
:103C600031F8001BB0F57A7FF4D90120CAE70020B3
:103C7000C8E70020C6E700BF004802582DE9F04120
:103C800005460F4616469846069C2B689B683B42A5
:103C900014BF01230023B34213D0B4F1FF3FF4D08B
:103CA000FEF710F8A0EB0800A04201D8002CECD1E0
:103CB000042385F841306B6C43F001036B640120F1
:103CC00000E00020BDE8F0818164704730B583B02A
:103CD0000446FDF7F7FF002C47D0054694F8413025
:103CE000002B39D021680B6823F47063A268013A75
:103CF00043EA02230B60A36C00932B460022202191
:103D00002046FFF7BBFF014618BB20680368184A2E
:103D10001A406568E36843EA0563E5692B43256A51
:103D20002B431343036020684268124B13402569FC
:103D3000626942EA0542A5692A4313434360226847
:103D4000136843F00103136000236364012384F8C4
:103D50004130084603B030BD2046FDF74BF941F233
:103D600088312046FFF7B0FFBCE70121F1E700BF33
:103D70002FFFFF00FEF8E0FF002800F00C8338B5AD
:103D80000446036813F0010F25D09D4A136903F020
:103D90003803926A102B15D0182B0FD06368B3F537
:103DA000803F3FD0002B53D1954B1A6822F48032CC
:103DB0001A601A6822F480221A6038E002F00302C6
:103DC000022AEBD18E4B1B6813F4003F03D06368CB
:103DD000002B00F0E282236813F0020F00F08B80CA
:103DE000874A1369926A13F038035AD0182B55D0BA
:103DF000E368002B00F0C88081490A6822F01902AC
:103E000013430B60FDF75EFF05467D4B1B6813F007
:103E1000040F40F09780FDF755FF401B0228F4D9AE
:103E20000320BFE2764A136843F48033136063686B
:103E30002BB3FDF747FF0546714B1B6813F4003F9A
:103E4000C9D1FDF73FFF401B6428F5D90320A9E243
:103E5000B3F5A02F09D06A4B1A6822F480321A6099
:103E60001A6822F480221A60E1E7654B1A6842F46E
:103E700080221A601A6842F480321A60D7E7FDF790
:103E800021FF05465E4B1B6813F4003FA3D0FDF7EE
:103E900019FF401B6428F5D9032083E212F0030FB9
:103EA000A6D1574B1B6813F0040F03D0E368002B17
:103EB00000F07582FDF70CFF41F20303984212D81F
:103EC0002269402A07D04E494B6823F47C3343EAE9
:103ED00002334B600FE04A4A536823F47C3343F4C7
:103EE0000033536007E0464A536823F0FE432169DC
:103EF00043EA01635360236813F0100F00F08A80D7
:103F00003F4A136903F03803926A082B54D0182BE8
:103F10004ED0E369002B00F0BA80394A136843F0B1
:103F200080031360FDF7CEFE0546354B1B6813F486
:103F3000807F40F08A80FDF7C5FE401B0228F4D93F
:103F400003202FE2FDF7C4FE41F20303984212D88A
:103F50002269402A07D02A494B6823F47C3343EA7C
:103F600002334B60C7E7264A536823F47C3343F49B
:103F700000335360BFE7224A536823F0FE432169B0
:103F800043EA01635360B6E71D4A136823F0010357
:103F90001360FDF797FE0546194B1B6813F0040FDD
:103FA000A9D0FDF78FFE401B0228F5D90320F9E1C7
:103FB00002F00302012AACD1114B1B6813F4807F7D
:103FC00004D0E369802B01D00120EBE1FDF780FEF6
:103FD00041F20303984215D8226A202A07D00849E3
:103FE0004B6823F0F84343EA82634B6012E0044AD3
:103FF000536823F0F84343F0804353600AE000BF66
:10400000004402589A4AD36823F07C53216A43EA59
:104010000163D360236813F0080F60D06369002B3D
:1040200049D0934A536F43F001035367FDF74AFEAB
:1040300005468F4B5B6F13F0020F50D1FDF742FE28
:10404000401B0228F5D90320ACE1FDF741FE41F207
:104050000303984212D8226A202A07D084494B6869
:1040600023F0F84343EA82634B60D3E7804A536806
:1040700023F0F84343F080435360CBE77C4AD36896
:1040800023F07C53216A43EA0163D360C2E7784A94
:10409000136823F080031360FDF714FE0546744B8C
:1040A0001B6813F4807FB5D0FDF70CFE401B02287F
:1040B000F5D9032076E16E4A536F23F0010353676D
:1040C000FDF700FE05466A4B5B6F13F0020F06D04A
:1040D000FDF7F8FD401B0228F5D9032062E12368B3
:1040E00013F0200F29D0A3699BB1614A136843F4F0
:1040F00080531360FDF7E6FD05465D4B1B6813F426
:10410000005F1AD1FDF7DEFD401B0228F5D9032020
:1041100048E1574A136823F480531360FDF7D2FD3A
:104120000546534B1B6813F4005F06D0FDF7CAFD2C
:10413000401B0228F5D9032034E1236813F0040F53
:1041400021D1636A002B00F02C81494A126902F0E8
:104150003802182A00F0EE80022B75D0444A13680A
:1041600023F080731360FDF7ADFD0446404B1B68E0
:1041700013F0007F00F0DC80FDF7A4FD001B022897
:10418000F4D903200EE13B4A136843F480731360B3
:10419000FDF798FD0546374B1B6813F4807F06D169
:1041A000FDF790FD401B6428F5D90320FAE0A368D1
:1041B000012B0AD00BBB2E4B1A6F22F001021A679B
:1041C0001A6F22F004021A6704E0294A136F43F0C1
:1041D00001031367A36833B3FDF774FD0546244B51
:1041E0001B6F13F0020FACD1FDF76CFD401B41F2C9
:1041F00088339842F3D90320D4E0052B09D01C4B17
:104200001A6F22F001021A671A6F22F004021A676D
:10421000E0E7174B1A6F42F004021A671A6F42F078
:1042200001021A67D6E7FDF74DFD0546104B1B6FDF
:1042300013F0020F85D0FDF745FD401B41F2883396
:104240009842F3D90320ADE0094A136823F0807344
:104250001360FDF737FD0546054B1B6813F0007F23
:104260000AD0FDF72FFD401B0228F5D9032099E065
:1042700000440258004802584E4B996A4E4A0A4080
:10428000A16AE06A41EA00110A439A62226B013A8C
:10429000C2F30802616B0139490289B20A43A16B7A
:1042A0000139090401F4FE010A43E16B01390906F1
:1042B00001F0FE410A431A63DA6A22F00102DA626F
:1042C000596B3E4A0A40A16C42EAC1025A63DA6A5B
:1042D00022F00C02216C0A43DA62DA6A22F002024E
:1042E000616C0A43DA62DA6A42F48032DA62DA6ACC
:1042F00042F40032DA62DA6A42F48022DA62DA6A7E
:1043000042F00102DA621A6842F080721A60FDF728
:10431000D9FC0446274B1B6813F0007F06D1FDF73C
:10432000D1FC001B0228F5D903203BE0002039E036
:10433000002037E01F4A916A106B012B33D001F047
:104340000303A26A934201D001202BE0C1F30511BF
:10435000E36A994201D0012024E0C0F30802236BF4
:10436000013B9A4201D001201CE0C0F34622636B5E
:10437000013B9A4201D0012014E0C0F30642A36B36
:10438000013B9A4211D1C0F30660E36B013B9842B6
:104390000DD0012006E001207047012002E001203D
:1043A00000E0002038BD0120FCE70120FAE70020F2
:1043B000F8E700BF004402580CFCFFFF0700FFFFB6
:1043C000724B1B6903F03803102B00F0DB80182BB5
:1043D00010D00BB16E4870476C4B1B6813F0200F68
:1043E00000F0D280694B1868C0F3C100694B23FA12
:1043F00000F07047654A916A01F00301906AC0F3CA
:104400000510D36A03F00103526BC2F3CC0203FB25
:1044100002F307EE903AF8EE677A002800F0B580D4
:10442000012966D0F9B1022900F08F8007EE100A49
:10443000F8EE476A9FED586A86EE267A534B1B6B5F
:10444000C3F3080306EE903AF8EE666A9FED536AEE
:1044500067EE867A76EEA77AF7EE006A77EEA67AAE
:1044600027EE277A61E0494B1B6813F0200F23D019
:1044700046490A68C2F3C102464BD34007EE103AE0
:10448000F8EE476A07EE100AB8EE476A86EE867ABB
:104490000B6BC3F3080306EE903AF8EE666A9FEDE5
:1044A0003F6A67EE867A76EEA77AF7EE006A77EED5
:1044B000A67A27EE277A38E007EE100AF8EE476A68
:1044C0009FED376A86EE267A304B1B6BC3F30803E9
:1044D00006EE903AF8EE666A9FED306A67EE867AED
:1044E00076EEA77AF7EE006A77EEA67A27EE277ABD
:1044F0001BE007EE100AF8EE476A9FED276A86EE8A
:10450000267A224B1B6BC3F3080306EE903AF8EEB3
:10451000666A9FED226A67EE867A76EEA77AF7EEF4
:10452000006A77EEA67A27EE277A184B1B6BC3F347
:104530004623013307EE903AF8EE677AC7EE276A12
:10454000FCEEE67A17EE900A704707EE100AF8EED6
:10455000476A9FED146A86EE267A0C4B1B6BC3F3F9
:10456000080306EE903AF8EE666A9FED0C6A67EE75
:10457000867A76EEA77AF7EE006A77EEA67A27EECD
:10458000277AD2E70848704702487047004402582B
:1045900000093D000090D0030024744A0000003957
:1045A0000024744C20BCBE4B40787D01002800F0F4
:1045B000368103469C4A126802F00F028A420CD2EE
:1045C0009948026822F00F020A430260026802F072
:1045D0000F028A4201D00120704770B51A6812F0AC
:1045E000040F0CD01869914A926902F0700290424F
:1045F00005D98E4CA26922F070021043A0611A689E
:1046000012F0080F0CD05869884AD26902F0700283
:10461000904205D9854CE26922F070021043E061B6
:104620001A6812F0100F0CD09869804AD26902F40F
:10463000E062904205D97D4CE26922F4E0621043C9
:10464000E0611A6812F0200F0CD0D869774A126A1C
:1046500002F07002904205D9744C226A22F0700276
:10466000104320621A6812F0020F0CD0D8686F4A0B
:10467000926902F00F02904205D96C4CA26922F0B7
:104680000F021043A0611C460D461B6813F0010F7A
:1046900041D0664A936923F47063A1680B43936128
:1046A0006368022B0AD0032B27D0012B2CD05F4A42
:1046B000126812F0040F06D10120AFE0126812F464
:1046C000003F00F0AE8059490A6922F00702134307
:1046D0000B61FDF7F7FA0646544B1B6903F03803EC
:1046E0006268B3EBC20F16D0FDF7ECFA801B41F203
:1046F00088339842F0D9032090E04C4A126812F0B7
:10470000007FE0D1012089E0484A126812F4807FDE
:10471000D9D1012082E0236813F0020F0CD0E268A7
:10472000424B9B6903F00F039A4205D23F498B69C4
:1047300023F00F031A438A613B4B1B6803F00F03FE
:10474000AB420CD9384A136823F00F032B43136094
:10475000136803F00F03AB4201D001205EE0236831
:1047600013F0040F0CD02269304B9B6903F07003E7
:104770009A4205D22D498B6923F070031A438A614E
:10478000236813F0080F0CD06269284BDB6903F033
:1047900070039A4205D22549CB6923F070031A436E
:1047A000CA61236813F0100F0CD0A2691F4BDB699C
:1047B00003F4E0639A4205D21C49CB6923F4E06319
:1047C0001A43CA61236813F0200F0CD0E269174B1B
:1047D0001B6A03F070039A4205D214490B6A23F056
:1047E00070031A430A62FFF7EBFD10498B69C3F3AC
:1047F00003230F4AD35C03F01F03D8408B6903F0F7
:104800000F03D35C03F01F0320FA03F3094A13607C
:10481000094B1860094B1868FDF700FA70BD0120BC
:1048200070470120FAE700BF002000520044025800
:104830003C85000800000020040000200C0000203F
:1048400008B5FFF7BDFD0B4A9369C3F303230A497B
:10485000CB5C03F01F0320FA03F3926902F00F020E
:10486000885C00F01F0023FA00F0044A1060044A3C
:10487000136008BD004402583C8500080000002079
:104880000400002008B5FFF7DBFF054BDB69C3F32D
:104890000213044AD35C03F01F03D84008BD00BFD5
:1048A000004402583C85000808B5FFF7C9FF054BD6
:1048B000DB69C3F30223044AD35C03F01F03D8402F
:1048C00008BD00BF004402583C850008404B9B6A6D
:1048D00003F00303032B79D070B50E4604463C4A1F
:1048E000136823F080631360FDF7ECF90546384B3D
:1048F0001B6813F0006F06D0FDF7E4F9401B022897
:10490000F5D9032070BD324B9A6A22F47C322168BB
:1049100042EA01329A626268013AC2F30802A1686F
:104920000139490289B20A43E1680139090401F4F5
:10493000FE010A4321690139090601F0FE410A43DB
:104940009A63DA6A22F0C00261690A43DA62DA6ABB
:1049500022F02002A1690A43DA62DA6A22F0100228
:10496000DA62D96B1B4A0A40E16942EAC102DA63A2
:10497000DA6A42F01002DA62C6B91A46DB6A43F418
:104980000023D362124A136843F080631360FDF77B
:1049900099F904460E4B1B6813F0006F14D1FDF714
:1049A00091F9001B0228F5D90320ABE7012E05D0B1
:1049B000074AD36A43F40013D362E3E7044AD36A95
:1049C00043F48013D362DDE700209BE701207047AA
:1049D000004402580700FFFF404B9B6A03F00303AB
:1049E000032B79D070B50E4604463C4A136823F079
:1049F00080531360FDF766F90546384B1B6813F0CA
:104A0000005F06D0FDF75EF9401B0228F5D90320B0
:104A100070BD324B9A6A22F07C72216842EA0152E0
:104A20009A626268013AC2F30802A1680139490238
:104A300089B20A43E1680139090401F4FE010A431D
:104A400021690139090601F0FE410A431A64DA6A54
:104A500022F4406261690A43DA62DA6A22F400727F
:104A6000A1690A43DA62DA6A22F48072DA62596C66
:104A70001B4A0A40E16942EAC1025A64DA6A42F416
:104A80008072DA62C6B91A46DB6A43F48003D362E5
:104A9000124A136843F080531360FDF713F904467C
:104AA0000E4B1B6813F0005F14D1FDF70BF9001BD0
:104AB0000228F5D90320ABE7012E05D0074AD36AB7
:104AC00043F08073D362E3E7044AD36A43F40003FC
:104AD000D362DDE700209BE70120704700440258C5
:104AE0000700FFFFF8B50446036813F0006F2BD0F2
:104AF000436EB3F5801F18D007D9B3F5001F1DD042
:104B0000B3F5401F2ED1002506E05BBB934AD36A64
:104B100043F40033D3620025904A136D23F440130D
:104B2000616E0B431365002610E002210430FFF78D
:104B3000CDFE0546002DEFD02E4607E002212430A1
:104B4000FFF74AFF0546F5E700263546236813F4CC
:104B5000807F17D0636D042B32D8DFE803F0062482
:104B60002A0B0B0001263546F0E77C4AD36A43F452
:104B70000033D3623DBB794A136D23F00703616DA7
:104B80000B431365236813F4007F33D0A36D802B90
:104B900044D01AD80BB3402B1CD10021201DFFF7A5
:104BA00095FE05461EE00021201DFFF78FFE0546FD
:104BB000E0E7002104F12400FFF70EFF0546D9E7E6
:104BC00001263546DEE72E46DCE7C02B0AD0B3F5DA
:104BD000807F07D0012635460CE0604AD36A43F453
:104BE0000033D3620DBB5D4A136D23F4E073A16DF6
:104BF0000B431365236813F4806F2FD0D4F8A430CF
:104C0000B3F5800F3ED012D8D3B1B3F5001F14D145
:104C10000021201DFFF75AFE054616E0002104F191
:104C20002400FFF7D9FE0546DCE72E46E2E7B3F5A0
:104C3000C00F0AD0B3F5000F07D0012635460DE0AE
:104C4000464AD36A43F40033D36215BB434A936D9B
:104C500023F46003D4F8A4100B439365236813F482
:104C6000006F2FD0D4F8A830B3F1007F37D012D81E
:104C7000D3B1B3F1807F14D10021201DFFF726FEB0
:104C8000054616E0002104F12400FFF7A5FE0546C5
:104C9000DBE72E46E2E7B3F1407F0AD0B3F1806F45
:104CA00007D0012635460DE02C4AD36A43F4003381
:104CB000D362DDB9294A936D23F0E063D4F8A810DC
:104CC0000B439365236813F0007F2AD0A36C102B4D
:104CD00012D00DD9202B1DD0302B12D009E000218D
:104CE00004F12400FFF778FE0546E2E72E46E9E7E7
:104CF0003BB10126354614E0184AD36A43F4003329
:104D0000D3626DB9154AD36C23F03003A16C0B4309
:104D1000D36406E00221201DFFF7D8FD0546F0E729
:104D20002E46236813F4805F27D0E36DB3F5005F50
:104D30003ED009D8A3B1B3F5805F0BD10021201D6F
:104D4000FFF7C4FD054610E0B3F5405F0DD0B3F5A5
:104D5000804F0AD0012635460FE000BF00440258BC
:104D6000934AD36A43F40033D36245BB904A136D30
:104D700023F4E043E16D0B431365236813F4005FF4
:104D800033D0236EB3F5003F27D01AD83BB1B3F52B
:104D9000803F1FD10121201DFFF798FD05461DBB57
:104DA000834A136D23F4E023216E0B4313651CE04B
:104DB000002104F12400FFF70FFE0546D5E72E463B
:104DC000DBE7B3F5802FEAD0B3F5A02FE7D0B3F53A
:104DD000403FE4D00126354607E0012104F12400DC
:104DE000FFF7FAFD0546DAE72E46236813F4804FF5
:104DF0002CD0D4F8AC30B3F1005F1FD012D83BB147
:104E0000B3F1805F17D10121201DFFF75FFD05463B
:104E1000DDB9674A936D23F0E043D4F8AC100B433F
:104E2000936513E0B3F1804FF2D0B3F1A04FEFD010
:104E3000B3F1405FECD00126354607E0012104F1D3
:104E40002400FFF7C9FD0546E2E72E46236813F468
:104E5000004F1FD0E36EB3F1805F06D0B3F1005F67
:104E600011D03BB10126354614E0514AD36A43F4D0
:104E70000033D3626DB94E4A136D23F04053E16E97
:104E80000B43136506E00121201DFFF71FFD0546BA
:104E9000F0E72E46236813F0807F1ED0636C032B4F
:104EA00017D8DFE803F007021007414AD36A43F43A
:104EB0000033D36285B93E4AD36C23F00303616C9F
:104EC0000B43D36409E00221201DFFF7FFFC0546D8
:104ED000F0E70126354600E02E46236813F4800FE4
:104EE0001FD1236813F0010F00F09E80A36F282BC1
:104EF00000F29680DFE803F0849494949494949460
:104F00007F949494949494948D949494949494947D
:104F10008494949494949494849494949494949471
:104F20008400244A136843F480731360FCF7CAFEBC
:104F30000746204B1B6813F4807F05D1FCF7C2FEA7
:104F4000C01B6428F5D90325002D50D1184B1B6FC9
:104F5000D4F8B020534013F4407F0CD0144B1A6F98
:104F600022F44072196F41F480311967196F21F4EE
:104F7000803119671A67D4F8B030B3F5807F1BD041
:104F8000002D36D1D4F8B03003F44072B2F5407F32
:104F900023D0074A136923F47C53136104490B6F30
:104FA000D4F8B020C2F30B0213430B6799E700BF9C
:104FB0000044025800480258FCF784FE0746AC4BF8
:104FC0001B6F13F0020FDBD1FCF77CFEC01B41F21C
:104FD00088339842F3D90325D2E7A548026922F421
:104FE0007C52A44901EA131313430361D6E72E460A
:104FF00077E72E4675E70121201DFFF767FC054680
:105000008DB99B4A536D23F03803A16F0B43536551
:105010000AE0012104F12400FFF7DEFC0546EFE77A
:105020000126354600E02E46236813F0020F20D0FB
:10503000636F052B19D8DFE803F00803110808088F
:105040000121201DFFF742FC05468DB9884A536DAA
:1050500023F00703616F0B4353650AE0012104F15C
:105060002400FFF7B9FC0546EFE70126354600E0CE
:105070002E46236813F0040F22D0D4F89030052B6D
:105080001AD8DFE803F00803120808080121201DE0
:10509000FFF71CFC054695B9754A936D23F007038D
:1050A000D4F890100B4393650AE0012104F1240029
:1050B000FFF792FC0546EEE70126354600E02E4656
:1050C000236813F0200F2CD0D4F88C30B3F1005F9C
:1050D0001FD012D83BB1B3F1805F17D10021201D42
:1050E000FFF7F4FB0546DDB9614A536D23F0E04359
:1050F000D4F88C100B43536513E0B3F1804FF2D01A
:10510000B3F1A04FEFD0B3F1405FECD001263546AC
:1051100007E0022104F12400FFF75EFC0546E2E708
:105120002E46236813F0400F2CD0D4F89830B3F5F6
:10513000006F1FD012D83BB1B3F5806F17D100219B
:10514000201DFFF7C3FB0546DDB9494A936D23F4E3
:10515000E053D4F898100B43936513E0B3F5805FE8
:10516000F2D0B3F5A05FEFD0B3F5406FECD00126DD
:10517000354607E0022104F12400FFF72DFC054627
:10518000E2E72E46236813F0800F2CD0D4F89C3031
:10519000B3F5804F1FD012D83BB1B3F5005F17D1E4
:1051A0000021201DFFF792FB0546DDB9304A936DC3
:1051B00023F46043D4F89C100B43936513E0B3F5DC
:1051C000004FF2D0B3F5204FEFD0B3F5C04FECD085
:1051D0000126354607E0022104F12400FFF7FCFB1D
:1051E0000546E2E72E46236813F0080F0CD0D4F8EA
:1051F0008030B3F5805F28D01D4A536D23F44053AF
:10520000D4F880100B435365236813F0100F0CD0B3
:10521000D4F89430B3F5807F20D0154A936D23F4F1
:105220004073D4F894100B439365236813F4002F54
:1052300039D0D4F8A030B3F5803F2CD0B3F5003F7F
:105240001FD0CBB1012635462DE0022104F1240008
:10525000FFF7C2FB0028CFD00126CDE7022104F1E1
:105260002400FFF7B9FB0028D7D00126D5E700BFFF
:1052700000440258CFFFFF000021201DFFF726FB4E
:1052800005467DB9644A936D23F44033D4F8A010E9
:105290000B43936507E0022104F12400FFF79CFB18
:1052A0000546EEE72E46236813F4802F24D0D4F869
:1052B0008430B3F5001F17D0B3F5401F0AD0B3F503
:1052C000801F02D00126354616E0534AD36A43F4C4
:1052D0000033D3627DB9504A536D23F44013D4F8A0
:1052E00084100B43536507E0012104F12400FFF70C
:1052F00073FB0546EEE72E46236813F4803F14D077
:10530000E36C2BB1B3F5803F23D0012635460CE08A
:10531000414AD36A43F40033D36205BB3E4AD36C9F
:1053200023F48033E16C0B43D364236813F0005FF4
:1053300017D1236813F4003F2DD0E36FB3F5807FBE
:105340001BD017D9B3F5007F1CD0B3F5407F12D125
:1053500018E00221201DFFF7B9FA0546DDE72E46C9
:10536000E3E7022104F12400FFF736FB0028E0D038
:105370000126DEE733B101260DE0274AD36A43F464
:105380000033D362002D3DD1234A536D23F4407383
:10539000E16F0B435365236813F4801F06D01E4A48
:1053A000136D23F00043216F0B431365236813F043
:1053B000805F07D0184A136923F48043D4F8B410EF
:1053C0000B431361236813F4001F06D0124A136DB8
:1053D00023F08073A16E0B431365236813F0804F95
:1053E00009D00D4B1A6922F400421A611A69D4F8E7
:1053F000B8100A431A612368002B05DB06B10126A9
:105400003046F8BD2E46C6E7034AD36C23F040531E
:10541000216D0B43D364F1E70044025808B5FFF750
:105420000FFA054B1B6AC3F30213044AD35C03F063
:105430001F03D84008BD00BF004402583C85000847
:1054400010B478498C6A8A6AC2F30532CB6AC3F316
:105450000013C96BC1F3CC0103FB01F3002A00F078
:10546000DB8004F0030407EE903AF8EE677A012C33
:1054700066D0FCB1022C00F0B28007EE102AB8EE24
:10548000477A9FED696AC6EE076A664B9B6BC3F36A
:10549000080307EE103AB8EE477A9FED646A67EEAC
:1054A000867A77EE277AB7EE007A77EE877A66EE1D
:1054B000A76A61E05B4B1B6813F0200F23D0594CA7
:1054C0002168C1F3C1015A4BCB4007EE103AB8EE48
:1054D000477A06EE902AB8EE666AC7EE066AA36BB4
:1054E000C3F3080307EE103AB8EE477A9FED4F6A10
:1054F00067EE867A77EE277AB7EE007A77EE877ACC
:1055000066EEA76A38E007EE102AB8EE477A9FEDFC
:10551000496AC6EE076A434B9B6BC3F3080307EE69
:10552000103AB8EE477A9FED416A67EE867A77EED9
:10553000277AB7EE007A77EE877A66EEA76A1BE0E5
:1055400007EE102AB8EE477A9FED376AC6EE076A73
:10555000344B9B6BC3F3080307EE103AB8EE477A5F
:105560009FED326A67EE867A77EE277AB7EE007A99
:1055700077EE877A66EEA76A2A4A936BC3F34623CF
:1055800007EE103AB8EE477AB7EE006A37EE067AC1
:10559000C6EE877AFCEEE77AC0ED007A936BC3F330
:1055A000064307EE103AB8EE477A37EE067AC6EEB3
:1055B000877AFCEEE77AC0ED017A936BC3F306635A
:1055C00007EE903AF8EE677A77EE867A86EEA77A5B
:1055D000BCEEC77A80ED027A5DF8044B704707EEA7
:1055E000102AB8EE477A9FED146AC6EE076A0D4B93
:1055F0009B6BC3F3080307EE103AB8EE477A9FEDB2
:105600000B6A67EE867A77EE277AB7EE007A77EE46
:10561000877A66EEA76AAFE7002303604360836082
:10562000DAE700BF004402580024744A0000003941
:105630000090D0030024744C20BCBE4B10B47849B9
:105640008C6A8A6AC2F30552CB6AC3F30023496CA1
:10565000C1F3CC0103FB01F3002A00F0DB8004F06E
:10566000030407EE903AF8EE677A012C66D0FCB19D
:10567000022C00F0B28007EE102AB8EE477A9FEDB8
:10568000696AC6EE076A664B1B6CC3F3080307EE34
:10569000103AB8EE477A9FED646A67EE867A77EE45
:1056A000277AB7EE007A77EE877A66EEA76A61E02E
:1056B0005B4B1B6813F0200F23D0594C2168C1F3BA
:1056C000C1015A4BCB4007EE103AB8EE477A06EECE
:1056D000902AB8EE666AC7EE066A236CC3F3080325
:1056E00007EE103AB8EE477A9FED4F6A67EE867A7A
:1056F00077EE277AB7EE007A77EE877A66EEA76ABA
:1057000038E007EE102AB8EE477A9FED496AC6EEF8
:10571000076A434B1B6CC3F3080307EE103AB8EE5D
:10572000477A9FED416A67EE867A77EE277AB7EE81
:10573000007A77EE877A66EEA76A1BE007EE102AFA
:10574000B8EE477A9FED376AC6EE076A344B1B6C9A
:10575000C3F3080307EE103AB8EE477A9FED326ABA
:1057600067EE867A77EE277AB7EE007A77EE877A59
:1057700066EEA76A2A4A136CC3F3462307EE103A73
:10578000B8EE477AB7EE006A37EE067AC6EE877A49
:10579000FCEEE77AC0ED007A136CC3F3064307EE24
:1057A000103AB8EE477A37EE067AC6EE877AFCEE04
:1057B000E77AC0ED017A136CC3F3066307EE903A03
:1057C000F8EE677A77EE867A86EEA77ABCEEC77A2D
:1057D00080ED027A5DF8044B704707EE102AB8EEB0
:1057E000477A9FED146AC6EE076A0D4B1B6CC3F334
:1057F000080307EE103AB8EE477A9FED0B6A67EEA2
:10580000867A77EE277AB7EE007A77EE877A66EEB9
:10581000A76AAFE70023036043608360DAE700BF55
:10582000004402580024744A000000390090D0035C
:105830000024744C20BCBE4B38B504460268D368C3
:1058400023F0A003D360FCF73DFA05462368DB682C
:1058500013F0200F07D1FCF735FA401BB0F57A7F23
:10586000F4D9032000E0002038BD70B50368DA6881
:1058700012F0400F02D00026304670BD04464FF0B3
:10588000FF32DA60FCF71EFA054600262368DB6863
:1058900013F0400FF0D1FCF715FA401BB0F57A7FFA
:1058A000F4D9032684F82160F0E7000010B504461F
:1058B000114BDA6822F04002DA609B6813F0200F87
:1058C00007D1FFF7B9FF0346A0B1032384F82130C5
:1058D00010E0094A936823F020039360FFF7ACFFC0
:1058E000034610B1032384F8213003498A6842F04B
:1058F00020028A60184610BD0040005838B50028C4
:1059000046D0044690F82130B3B1022384F8213008
:105910002368CA225A62236853225A622046FFF73C
:10592000A4FF034668B12268FF21516213B9012226
:1059300084F82120184638BD80F82030FBF7D4FBCE
:10594000E3E722689168134B0B40936021688A68F3
:10595000636820690343A069034313438B60A16814
:10596000E368226843EA014313612046FFF79EFF84
:1059700003460028D7D12168CA6C22F00302CA640A
:105980002068C26CE169656929430A43C264CAE7B9
:105990000123CFE7BFFF8FFF10B4026853699169FD
:1059A00041F00801916101688A6942F010028A6140
:1059B00001680A6822F001020A6001680C69294A3C
:1059C00022400A6101688A6822F440428A6090F8A5
:1059D0008120D2B2042A0DD013F0200F0AD0D0F8C3
:1059E000842042F08002C0F8842001688A6942F075
:1059F00020028A6190F88120D2B2032A0DD013F0E0
:105A0000400F0AD0D0F8842042F00402C0F884206D
:105A100001688A6942F040028A6113F4007F0AD06B
:105A2000D0F8842042F00102C0F8842001688A691D
:105A300042F400728A6113F4807F0AD0D0F8843077
:105A400043F00803C0F884300268936943F480731C
:105A500093610023A0F86230A0F86A305DF8044B2F
:105A6000704700BF90FCFFFFC36B5B09C068083044
:105A7000C00803FB00007047002800F0978070B555
:105A800004460023836205684C4B4D4E9D4218BF6F
:105A9000B54214BF0126002607D0A3F574439D42EA
:105AA00003D0C3680F2B00F283802046FFF7DCFF92
:105AB00026B1444B9D4201D008287BD83F4A404B39
:105AC0009D4218BF954203D003F580639D4201D1EA
:105AD000102871D894F88130002B54D0022384F818
