:020000040810E2
:1000000000800410293210089D0610089F06100871
:10001000A1061008A3061008A5061008000000009D
:10002000000000000000000000000000612D10082A
:10003000A706100800000000012E1008652E100809
:1000400079321008793210087932100879321008A4
:100050007932100879321008793210087932100894
:100060007932100879321008793210087932100884
:100070007932100879321008793210087932100874
:100080007932100879321008793210087932100864
:100090007932100879321008793210087932100854
:1000A0007932100879321008793210087932100844
:1000B0007932100879321008793210087932100834
:1000C0007932100879321008793210087932100824
:1000D0007932100879321008793210087932100814
:1000E00079321008793210080000000079321008C7
:1000F000A9061008793210087932100879321008F0
:1001000079321008793210087932100879321008E3
:1001100079321008793210087932100879321008D3
:1001200079321008793210087932100879321008C3
:1001300079321008793210087932100879321008B3
:100140007932100879321008000000000000000029
:100150007932100879321008793210087932100893
:100160007932100879321008793210087932100883
:100170007932100879321008793210080000000036
:100180007932100879321008793210087932100863
:100190007932100879321008793210087932100853
:1001A0007932100879321008793210087932100843
:1001B0007932100879321008793210087932100833
:1001C0007932100879321008793210087932100823
:1001D0007932100879321008793210087932100813
:1001E0007932100879321008793210087932100803
:1001F00079321008793210087932100879321008F3
:1002000079321008793210087932100879321008E2
:1002100079321008793210087932100879321008D2
:100220007932100879321008793210080000000085
:1002300079321008793210087932100879321008B2
:1002400079321008793210087932100879321008A2
:100250007932100879321008793210087932100892
:100260007932100879321008793210087932100882
:100270007932100879321008793210087932100872
:100280007932100879321008793210080000000025
:080290007932100879321008E0
:1002A00010B5054C237833B9044B13B10448AFF3B0
:1002B00000800123237010BD240000100000000006
:1002C000EC32100808B5034B1BB103490348AFF3E8
:1002D000008008BD0000000028000010EC3210086B
:1002E00082B00D4BD3F8D82042F00102C3F8D820D9
:1002F000D3F8D82002F001020092009AD3F8D82057
:1003000042F00202C3F8D820D3F8D83003F0020339
:100310000193019B02B070470044025808B514488D
:10032000144B036000238360C360037443748374BD
:100330000122426182610221C161016242628262E4
:10034000C262026343638363C3630364042242643F
:100350008364C264036542658365C365036643665F
:10036000826600F085FB00B908BD00F0D5F8FBE718
:100370005049001000A0004000B589B0002303934D
:1003800004930593069307930268164B9A4202D092
:1003900009B05DF804FB144BD3F8EC2042F48072F2
:1003A000C3F8EC20D3F8EC2002F480720192019A99
:1003B000D3F8E02042F00102C3F8E020D3F8E030A7
:1003C00003F001030293029B4FF4C05303930223F3
:1003D0000493032306930923079303A9034800F01A
:1003E00091FCD5E700A000400044025800000258EC
:1003F00008B5012001F0A4F9FBE7000008B5044AA4
:100400000021044801F032F9034B186008BD00BF19
:1004100004331008F1031008F049001082B00D4BAE
:10042000D3F8E02042F02002C3F8E020D3F8E02027
:1004300002F020020092009AD3F8E02042F001027C
:10044000C3F8E020D3F8E03003F001030193019BEF
:1004500002B070470044025808B50848084B0360D2
:100460000023436040F6FF73C360836000F042FDE9
:1004700000B908BD00F050F8FBE700BFF4490010D8
:10048000004C005800B583B0204BD3F8E02042F078
:100490000072C3F8E020D3F8E03003F0007301935A
:1004A000019B012000F01EFD00F0AAFD01220221A7
:1004B000002000F04BFD164B1B68C3F30313072B02
:1004C0001BD0144AD2F8143143F00103C2F814319E
:1004D00000F022F9FFF7A2FFFFF702FFFFF71EFF70
:1004E000FFF7BAFF00F01AF800F0E0F801F07AF830
:1004F000FFF784FF01F096F8FEE7064AD2F80431D0
:1005000043F00103C2F80431E2E700BF004402589F
:1005100000ED00E0006402587047000008B5134881
:10052000134B03604FF48003436000238360032276
:10053000C260036143614FF080628261C361036204
:1005400043628362C3624FF0804242638363C3634A
:10055000036443648364C36403654365836500F097
:10056000B3FE00B908BDFFF7D7FFFBE7044A001050
:100570000050014000B589B0002303930493059314
:10058000069307930268154B9A4202D009B05DF8B2
:1005900004FB134BD3F8F02042F48012C3F8F02090
:1005A000D3F8F02002F480120192019AD3F8E020EF
:1005B00042F02002C3F8E020D3F8E03003F020033B
:1005C0000293029B4FF418630393022304930523C1
:1005D000079303A9034800F095FBD7E700500140BB
:1005E000004402580014025800B583B00A4BD3F8F7
:1005F000F42042F00202C3F8F420D3F8F43003F000
:1006000002030193019B00220F216FF0010000F013
:10061000E5F803B05DF804FB0044025800B58BB068
:10062000002201462C2000F0D9F82C2000F00AF915
:10063000164BD3F8F02042F00202C3F8F020D3F8B2
:10064000F03003F002030093009B01A902A800F020
:1006500009FE00F0F5FD43000D48A0FB03239B0CB1
:10066000013B0C480C4A026040F2E732C260436032
:1006700000230361836000F05BFF18B101200BB021
:100680005DF804FB034800F0CBFEF8E70044025895
:1006900083DE1B438C4A0010000401407047FEE7D4
:1006A000FEE7FEE7FEE770477047000008B5034924
:1006B000034800F091FF034B187008BDD84A0010A2
:1006C00004000010DC4A0010024B01221A70187856
:1006D000704700BF00000010024B01221A7018780A
:1006E000704700BF000000100020704700207047D6
:1006F00001207047074BD3F8882042F47002C3F8FA
:1007000088201A6942F010021A614FF001629A6063
:10071000704700BF00ED00E010B582B01E4CD4F869
:10072000D83043F48043C4F8D830D4F8D83003F438
:1007300080430193019B194A136823F47F2323F418
:10074000706343F401431360136843F001031360C3
:10075000032000F031F800F05DFCA369C3F303232C
:100760000F4AD35C03F01F03D840A36903F00F03C3
:10077000D35C03F01F03D8400A4B18600A4B186083
:100780000020FFF74BFF18B10124204602B010BD36
:100790000446FFF729FFF8E70044025800440240EE
:1007A00028331008180000101C000010014B1868B6
:1007B000704700BF444F0010074AD36823F4E0633A
:1007C0001B041B0C000200F4E060184340F0BF6003
:1007D00040F40030D060704700ED00E030B4174BBB
:1007E000DB68C3F30223C3F10704042C28BF0424ED
:1007F0001D1D062D18D9033B4FF0FF3505FA04F4F3
:1008000021EA0401994005FA03F322EA030319439C
:1008100000280BDB0901C9B200F1604000F561401E
:1008200080F8001330BC70470023E5E700F00F00AC
:100830000901C9B2024B1954F4E700BF00ED00E012
:1008400014ED00E0002807DB00F01F02400901233F
:100850009340024A42F82030704700BF00E100E0B8
:10086000044B1B68C3F30313072B01D0012070470F
:100870000320704700ED00E030B4416B0368D3F80B
:10088000842022F47F4222F0FC0242EA8102C3F873
:1008900084200368D3F8842022F47F02846B42EA28
:1008A0000442C3F88420836B0B440168D1F888208C
:1008B00022F47F4222F0FC0242EA8302C1F888203F
:1008C0000168D1F8882022F4FE02C46B42EA044297
:1008D000C1F88820C26B03EB42030168D1F8A02065
:1008E00022F47F4222F0FC0242EA8302C1F8A020F7
:1008F0000168D1F8A02022F4FE02046C42EA04420E
:10090000C1F8A020016C426C02FB01310268D2F8F0
:10091000B03023F47F4323F0FC0343EA8103C2F8A1
:10092000B0300368D3F8B02022F4FE02846C42EAAF
:100930000442C3F8B020836CC26C02FB031103684D
:10094000D3F8AC2022F47F4222F0FC0242EA81027A
:10095000C3F8AC20036D426D02FB03130168D1F8AC
:10096000F02022F47F4222F0FC0242EA8302C1F826
:10097000F0200168D1F8F02022F47C12846D42EA64
:100980000442C1F8F020826D03EB42020168D1F805
:10099000C03023F47F4323F0FC0343EA8203C1F811
:1009A000C0300268D2F8C03023F47C13C16D43EA32
:1009B0000143C2F8C0300268D2F8C03023F07C5343
:1009C000016E43EA0163C2F8C030426B02F180520B
:1009D00002F52C529200C266836B02EB830303671D
:1009E000C16B03EBC1034367046C416C01FB04F171
:1009F00003EB81038367846CC16C01FB04F103EB9F
:100A00008103C367046D416D01FB04F103EB8103B6
:100A1000C0F88030816D03EBC103C0F88430C46D31
:100A2000856E05FB04F403EB8403C0F88830016E87
:100A300001FB05F103EB8103C0F890300B498B42B9
:100A40000DD9D0F89C3043F02003C0F89C3003232C
:100A500080F89830012007E0002342F8043BD0F8EA
:100A600090309342F8D8002030BC7047FCD300404F
:100A700030B595B004464C22A04901A802F022FCF2
:100A8000002C00F0388123689D4A934220D094F8CE
:100A900098300BB32268936923F010039361FFF73A
:100AA00085FE054623689A6912F0080F1AD0FFF7F1
:100AB0007DFE401B0A28F5D9D4F89C3043F0010391
:100AC000C4F89C30032384F89830012015B030BD61
:100AD00003F580736360DAE784F899302046FFF706
:100AE0004BFCD7E79A6942F001029A61FFF75EFE7C
:100AF000054623689A6912F0010F0FD1FFF756FEE1
:100B0000401B0A28F5D9D4F89C3043F00103C4F8FF
:100B10009C30032384F898300120D7E79A6942F08B
:100B200002029A61237C012B40D02268936943F032
:100B300040039361637C012B3ED02268936923F4C8
:100B400080439361A37C012B3CD02268936943F4DA
:100B5000805393612268936923F44073A1680B4327
:100B600093612268936923F0A40393612268136957
:100B700023F010031361E368012B29D0002B2CD044
:100B8000022B00F09B802268936943F080039361FD
:100B90002268136943F010031361E368032B1CD12F
:100BA0002268936943F02003936116E022689369F9
:100BB00023F040039361BDE72268936943F48043C7
:100BC0009361BFE72268936923F480539361C1E77F
:100BD0002268936943F004039361A3695A1EE36991
:100BE000013B1B0243EA4263226A013A13436269F2
:100BF000013A216843EA0243CB61A368B3F5407F21
:100C000062D0236E33B12268D2F8C030616E0B43DC
:100C1000C2F8C030E36D226ED3420DD02168D1F806
:100C2000C83023F00703A26E14A800EB820252F82A
:100C30004C2C1343C1F8C830236C6BB12168D1F838
:100C4000BC3023F00703626C14A800EB820252F858
:100C50004C2C1343C1F8BC30A36C73B12168D1F89C
:100C6000BC3023F07003E26C14A800EB820252F84F
:100C70004C2C43EA0213C1F8BC30236D73B12168D8
:100C8000D1F8BC3023F4E063626D14A800EB82025B
:100C900052F84C2C43EA0223C1F8BC302268184BAE
:100CA0009A4222D00023C4F89430C4F89C30012327
:100CB00084F898302046FFF7DFFD07E72268936944
:100CC00043F02003936188E7A36A013BE26A013A9B
:100CD00043EA0223226B013A43EA0213626A013AB1
:100CE000216843EA0243CB608BE76268936823F094
:100CF00003039360D6E70120E8E600BF48331008FD
:100D000000A00040F0B583B000233AE0092400E0E1
:100D10000024B4403C4302356E4E46F825406E4CEC
:100D20002568D44304EA05064F6817F4803F01D0D4
:100D300042EA0506684D2E606E6804EA06054F68B3
:100D400017F4003F01D042EA0605634E75604FF08C
:100D5000B0452D6804EA05064F6817F4801F01D0DE
:100D600042EA05064FF0B0452E606D682C404E6893
:100D700016F4001F01D042EA05044FF0B04254605F
:100D800001330A6832FA03F400F0A28001249C4087
:100D90002240F5D04D686E1E012E03D9112D01D0D1
:100DA000122D12D186685F000325BD4026EA050694
:100DB000CD68BD4035438560466826EA04064D6827
:100DC000C5F300149C4034434460C5685F000324AD
:100DD000BC40E44325408E68BE402E43C6604D684B
:100DE000022D01D0122D13D1DE08083650F826E06E
:100DF00003F007054FEA850C0F2505FA0CF52EEADE
:100E0000050E0D6905FA0CF545EA0E0540F8265069
:100E100005682C404D6805F00305BD402C43046077
:100E20004C6814F0805FABD02C4CD4F8F45045F0F3
:100E30000205C4F8F450D4F8F44004F0020401941C
:100E4000019C9D08AE1C234C54F8267003F003044B
:100E5000A6000F24B44027EA0407214CA0423FF427
:100E600057AF04F58064A04222D004F58064A0420C
:100E700020D004F58064A0421ED004F58064A04216
:100E80001CD004F58064A0421AD004F58064A0420E
:100E900018D004F58064A04216D004F58064A04206
:100EA00014D004F58064A0423FF430AF0A2430E748
:100EB00001242EE702242CE703242AE7042428E750
:100EC000052426E7062424E7072422E7082420E750
:100ED00003B0F0BD00040058C000005800440258A0
:100EE00000000258024A136818431060704700BFA0
:100EF0001065025840B338B5044603684CF6CC423E
:100F00001A60036845F255521A60036842685A60D5
:100F1000036882689A60FFF749FC05462368DA682F
:100F200032B1FFF743FC401B3028F7D9032038BD0E
:100F30001969E268914202D01A610020F7E74AF687
:100F4000AA221A600020F2E70120704710B50C4673
:100F500029490B6823F00103184308605AB1012A9C
:100F600026D0FFF77DFC03283FD0234A536923F0A6
:100F70000403536110BDFFF773FC0328FAD11E4A26
:100F8000136923F0010313611C4A136943F004033E
:100F90001361BFF34F8FBFF36F8F012C06D020BFBB
:100FA000164A136923F004031361E3E730BFF7E740
:100FB000FFF756FC0128DDD10F4A536923F00203E5
:100FC00053610E4A136943F004031361BFF34F8F5B
:100FD000BFF36F8F012C06D020BF084A136923F09E
:100FE00004031361C6E730BFF7E7034A136923F030
:100FF00004031361BEE700BF0048025800ED00E0A3
:1010000008B5FFF72DFC032802D040BF20BF08BD64
:1010100020BFFCE7724B1B6903F03803102B00F074
:10102000DB80182B10D00BB16E4870476C4B1B68DF
:1010300013F0200F00F0D280694B1868C0F3C10094
:10104000694B23FA00F07047654A916A01F0030189
:10105000906AC0F30510D36A03F00103526BC2F328
:10106000CC0203FB02F307EE903AF8EE677A002811
:1010700000F0B580012966D0F9B1022900F08F8017
:1010800007EE100AF8EE476A9FED586A86EE267A58
:10109000534B1B6BC3F3080306EE903AF8EE666AF7
:1010A0009FED536A67EE867A76EEA77AF7EE006ACE
:1010B00077EEA67A27EE277A61E0494B1B6813F09A
:1010C000200F23D046490A68C2F3C102464BD340E1
:1010D00007EE103AF8EE476A07EE100AB8EE476AD4
:1010E00086EE867A0B6BC3F3080306EE903AF8EEB1
:1010F000666A9FED3F6A67EE867A76EEA77AF7EE2C
:10110000006A77EEA67A27EE277A38E007EE100A13
:10111000F8EE476A9FED376A86EE267A304B1B6BF6
:10112000C3F3080306EE903AF8EE666A9FED306A64
:1011300067EE867A76EEA77AF7EE006A77EEA67A01
:1011400027EE277A1BE007EE100AF8EE476A9FEDBC
:10115000276A86EE267A224B1B6BC3F3080306EE42
:10116000903AF8EE666A9FED226A67EE867A76EE2E
:10117000A77AF7EE006A77EEA67A27EE277A184B61
:101180001B6BC3F34623013307EE903AF8EE677A00
:10119000C7EE276AFCEEE67A17EE900A704707EE74
:1011A000100AF8EE476A9FED146A86EE267A0C4B19
:1011B0001B6BC3F3080306EE903AF8EE666A9FEDE8
:1011C0000C6A67EE867A76EEA77AF7EE006A77EE1B
:1011D000A67A27EE277AD2E7084870470248704778
:1011E0000044025800093D000090D0030024744AD6
:1011F000000000390024744C20BCBE4B40787D01B7
:1012000008B5FFF707FF0A498B69C3F30323094AAF
:10121000D35C03F01F03D8408B6903F00F03D35C4A
:1012200003F01F03D840044B1860044B186008BD3E
:101230000044025828331008180000101C00001049
:1012400008B5FFF7DDFF054BDB69C3F30223044A52
:10125000D35C03F01F03D84008BD00BF0044025810
:10126000283310083F230360114B1A6902F007026C
:1012700042609A6902F4706282609A6902F00F0219
:10128000C2609A6902F070020261DA6902F07002CB
:101290004261DA6902F4E06282611B6A03F0700362
:1012A000C361044B1B6803F00F030B60704700BF62
:1012B0000044025800200052C36B5B09C06808302C
:1012C000C00803FB00007047002800F09D8038B57F
:1012D00004460023836205684F4B9D420BD0A3F563
:1012E00078439D4207D003F580639D4203D0C368D5
:1012F0000F2B00F28B802046FFF7DEFF464B9D420E
:1013000009D0A3F578439D4205D003F580639D4243
:1013100001D008287CD8404B9D4207D0A3F57843E4
:101320009D4203D003F580639D4201D1102871D8FE
:1013300094F88130002B54D0022384F88130226845
:10134000136823F001031360A369B3F1806F4ED0DB
:10135000E369A26A1343E26B1343E16822680B431B
:101360009360636B626A1343A26B1343A2691343D6
:101370002269134362691343226A13436268134369
:10138000E26C1343A2681343A26C1343A16D22685D
:101390000B43D36063686BB92268936823F4C0532E
:1013A00043F4006393602268936823F4C06343F4BA
:1013B000806393602268136D23F0010313656368F3
:1013C00013F4800F06D02268D36823F00043616DC8
:1013D0000B43D3600020C4F88400012384F88130DB
:1013E00038BD84F880302046FFF7C4F8A4E763686E
:1013F000B3F5800FACD1A36B002BA9D12268136881
:1014000043F480531360A3E7012070470120E7E70E
:101410000120E5E70120E3E70030014070470000CC
:1014200090F83D30DBB2012B01D001207047022340
:1014300080F83D300268D36843F00103D36002684E
:101440009168084B0B40062B08D0B3F5803F07D0BE
:10145000136843F0010313600020704700207047B9
:1014600000207047070001000368304A904212D004
:10147000B0F1804F0FD0A2F57C4290420BD002F524
:101480008062904207D002F58062904203D002F55C
:101490007842904203D123F070034A681343234AF1
:1014A00090421ED0B0F1804F1BD0A2F57C429042FA
:1014B00017D002F58062904213D002F5806290420C
:1014C0000FD002F5784290420BD002F57052904254
:1014D00007D002F58062904203D002F5806290420C
:1014E00003D123F44073CA68134323F080034A698D
:1014F000134303608B68C3620B6883620B4B984293
:101500000FD003F5806398420BD003F570539842D7
:1015100007D003F58063984203D003F580639842B7
:1015200001D10B690363012343617047000001404F
:1015300058B310B5044690F83D300BB3022384F83D
:101540003D30211D2068FFF78FFF012384F84830CC
:1015500084F83E3084F83F3084F8403084F84130DD
:1015600084F8423084F8433084F8443084F84530BD
:1015700084F8463084F8473084F83D30002010BDB0
:1015800080F83C30FFF74AFFD8E7012070470000A1
:10159000104B5B7ADBB930B40E4B5D7AEDB20024B0
:1015A0005C555D7A03EB85056860587A18440272D1
:1015B0005A7AD2B2501CC0B2587230320A703A23F2
:1015C0004B702F238B70CC70204630BC70470120AD
:1015D000704700BF4000001008B50022FFF7D8FF99
:1015E00008BD0000EFF305838BB9EFF3108313B947
:1015F000EFF311831BB10A4B1B68022B0AD0084B77
:101600001B6853B9064B01221A60002070476FF027
:10161000050070476FF0050070474FF0FF307047CE
:101620004C00001008B5EFF30583A3B9EFF3108366
:1016300013B9EFF311831BB10B4B1B68022B0DD0B9
:10164000094B1B68012B0CD1074B02221A6000F0DA
:101650001FFE002008BD6FF00500FBE76FF00500DE
:10166000F8E74FF0FF30F5E74C000010F0B587B019
:1016700000240594EFF3058444BBEFF3108313B902
:10168000EFF311831BB12D4B1B68022B1ED0E8B169
:101690004AB31668946904B91824631E372B49D8D5
:1016A000536813F0010F47D1556995B14FEA950C76
:1016B00093682BB1D7685B2F02D9176907B1C5B9F9
:1016C00053B14FF0FF35012D1AD02DB3059807B057
:1016D000F0BD4FF0800CEBE7D36863B913696BB1D1
:1016E0004FF0FF35EFE7002518244FF0800C2E4611
:1016F000E9E70125E7E74FF0FF35E4E70025E2E7FA
:10170000136992680292019300940B466246314637
:1017100000F050FD0590D9E705AA019200940B4610
:101720001FFA8CF2314600F07FFD0128CED0002355
:101730000593CBE70020CAE70020C8E74C00001063
:1017400008B5EFF3058383B9EFF3108313B9EFF313
:1017500011831BB1084B1B68022B09D008B900206C
:1017600008BD00F0E9FE0020FAE76FF00500F7E79A
:101770006FF00500F4E700BF4C00001010B4054BFB
:101780001C1D046060330B60802313605DF8044B04
:10179000704700BF4C00001010B4064B03F51874DE
:1017A000046003F52F730B604FF4807313605DF8D2
:1017B000044B70474C00001000F1080343604FF0E9
:1017C000FF328260C360036100230360704700231F
:1017D0000361704743684B609A688A609A685160F9
:1017E00099600861036801330360704730B40D6885
:1017F000B5F1FF3F02D000F1080202E0026904E007
:101800001A4653681C68AC42FAD953684B60996019
:101810008A605160086103680133036030BC70471F
:1018200003694268816891608268416851605A68C2
:10183000824206D0002202611A68013A1A601868D2
:10184000704782685A60F5E710B5044601F09AFACD
:10185000A26BE36B9A4204D0002401F0B5FA204653
:1018600010BD0124F9E710B5044601F08BFAA36B13
:1018700023B1002401F0A8FA204610BD0124F9E7A5
:1018800070B504461646856B026C5AB903681BB1E5
:1018900000200135A56370BD806800F09BFF002328
:1018A000A360F6E76EB9406801F00CFD226C636836
:1018B00013446360A268934219D3236863600020D5
:1018C000E7E7C06801F0FEFC226C5242E368134473
:1018D000E36021688B4202D2A3681A44E260022EC0
:1018E00001D00020D5E725B1013D0020D1E700203F
:1018F000CFE70020CDE7026C72B110B5C368134486
:10190000C3608468A34201D30368C3600C46C16806
:10191000204601F0D7FC10BD704738B5054601F0F0
:1019200031FA95F8454064B203E000F03BFF013C1A
:1019300064B2002C08DD6B6A33B105F1240000F0BD
:10194000A3FE0028F3D0F0E7FF2385F8453001F02F
:101950003BFA01F017FA95F8444064B203E000F056
:1019600021FF013C64B2002C08DD2B6933B105F185
:10197000100000F089FE0028F3D0F0E7FF2385F87F
:10198000443001F021FA38BD38B540B94FF050036A
:1019900083F31188BFF36F8FBFF34F8FFEE70446C9
:1019A0000D4601F0EFF92168E26B236C03FB021096
:1019B000A0600020A0636160013A02FB0313E360B2
:1019C000FF2384F8443084F84530A5B923691BB956
:1019D00001F0FAF9012038BD04F1100000F054FEC6
:1019E0000028F5D0084B4FF080521A60BFF34F8F9C
:1019F000BFF36F8FECE704F11000FFF7DDFE04F199
:101A00002400FFF7D9FEE3E704ED00E038B51D46FA
:101A1000049C0B4649B12260E06323640121204607
:101A2000FFF7B2FF84F84C5038BD2460F4E740B9AA
:101A30004FF0500383F31188BFF36F8FBFF34F8FC5
:101A4000FEE710B584B0044653B192B189B94FF0A6
:101A5000500383F31188BFF36F8FBFF34F8FFEE7FF
:101A60004FF0500383F31188BFF36F8FBFF34F8F95
:101A7000FEE74AB941B14FF0500383F31188BFF339
:101A80006F8FBFF34F8FFEE75020039003985028CD
:101A900008D04FF0500383F31188BFF36F8FBFF36B
:101AA0004F8FFEE720461C46039B012384F84630F7
:101AB00000949DF81830FFF7A9FF204604B010BD30
:101AC000F0B585B0019260B1044699B9026C8AB153
:101AD0004FF0500383F31188BFF36F8FBFF34F8F25
:101AE000FEE74FF0500383F31188BFF36F8FBFF30E
:101AF0004F8FFEE7022B0BD1E26B012A08D04FF08B
:101B0000500383F31188BFF36F8FBFF34F8FFEE74E
:101B10001E460F4600F04EFE50B9019B53B14FF0E8
:101B2000500383F31188BFF36F8FBFF34F8FFEE72E
:101B300000253AE0002538E0324639462046FFF7D6
:101B40009FFE636A4BB9A8B13B4B4FF080521A60BD
:101B5000BFF34F8FBFF36F8F0CE004F1240000F050
:101B600093FD38B1344B4FF080521A60BFF34F8F62
:101B7000BFF36F8F01F028F9012005B0F0BD01F02F
:101B800023F90020F9E702A800F0C2FD012519E0C1
:101B9000002384F8443021E0002384F8453023E01A
:101BA0002046FFF7BAFE00F04FFC01F0EBF8A26B05
:101BB000E36B9A42C0D3022EBED0019B002BDED035
:101BC000002DE0D001F000F900F0A8FB01F0DAF8F8
:101BD00094F844305BB2B3F1FF3FD9D094F845306C
:101BE0005BB2B3F1FF3FD7D001F0EEF801A902A834
:101BF00000F098FDC8B92046FFF726FE0028CFD098
:101C0000019904F1100000F007FD2046FFF785FE62
:101C100000F01AFC0028C8D1074B4FF080521A6020
:101C2000BFF34F8FBFF36F8FBFE72046FFF775FEFF
:101C300000F00AFC0020A0E704ED00E02DE9F843E5
:101C400060B1044699B9006C88B14FF0500383F33A
:101C50001188BFF36F8FBFF34F8FFEE74FF0500334
:101C600083F31188BFF36F8FBFF34F8FFEE7022B13
:101C70000BD1E06B012808D04FF0500383F311889B
:101C8000BFF36F8FBFF34F8FFEE71F469046894625
:101C900001F09EF9EFF311864FF0500383F31188A2
:101CA000BFF36F8FBFF34F8FA26BE36B9A4203D3E7
:101CB000022F01D000200FE094F845506DB23A4653
:101CC00049462046FFF7DCFDB5F1FF3F08D06B1C0D
:101CD0005BB284F84530012086F31188BDE8F883B3
:101CE000636A5BB104F1240000F0CEFC40B1B8F1AE
:101CF000000F07D00120C8F80000EDE70120EBE756
:101D00000120E9E70120E7E7F0B585B0019260B175
:101D1000044699B9036C8BB14FF0500383F31188DB
:101D2000BFF36F8FBFF34F8FFEE74FF0500383F386
:101D30001188BFF36F8FBFF34F8FFEE70F4600F0A0
:101D400039FD50B9019B53B14FF0500383F3118813
:101D5000BFF36F8FBFF34F8FFEE700263EE00026F4
:101D60003CE039462046FFF7C6FD013DA5632369E7
:101D700023B901F029F8012005B0F0BD04F11000ED
:101D800000F082FC0028F4D0344B4FF080521A60EF
:101D9000BFF34F8FBFF36F8FEBE701F015F8002013
:101DA000EAE702A800F0B4FC012621E0002384F851
:101DB000443029E0002384F845302BE02046FFF72B
:101DC000ACFD00F041FB09E02046FFF7A6FD00F066
:101DD0003BFB2046FFF747FD00283DD100F0D2FF36
:101DE000A56B002DBDD1019B002BD6D0002ED8D0E5
:101DF00000F0EAFF00F092FA00F0C4FF94F84430DB
:101E00005BB2B3F1FF3FD1D094F845305BB2B3F190
:101E1000FF3FCFD000F0D8FF01A902A800F082FC5C
:101E20000028D1D12046FFF71EFD0028C6D0019919
:101E300004F1240000F0F0FB2046FFF76EFD00F0F7
:101E400003FB0028CAD1054B4FF080521A60BFF344
:101E50004F8FBFF36F8FC1E700208DE704ED00E0E7
:101E60000023072B0CD8074A52F833200AB101335C
:101E7000F7E7044A42F8331002EBC3035860704797
:101E8000704700BF484F001070B504460D46164617
:101E900000F078FF94F844305BB2B3F1FF3F0DD00F
:101EA00094F845305BB2B3F1FF3F0BD000F08CFFEC
:101EB000A36B5BB12046FFF730FD70BD002384F8B3
:101EC0004430EDE7002384F84530EFE732462946F9
:101ED00004F1240000F0BAFBECE70000074B9B6A1A
:101EE0001B6833B1054B9A6AD268D2685268DA62CD
:101EF0007047024B4FF0FF32DA627047080700105C
:101F00002DE9F04781460D4617469A46089EDDF8B2
:101F100024800A9C9200A521206B01F0DEF9236B3E
:101F200007F18042013A03EB820727F0070785B3E8
:101F300000230F2B07D8E95CE21882F83410EA5C22
:101F40000AB10133F5E7002384F84330372E00D976
:101F50003726E662E66400252565201DFFF737FC7D
:101F600004F11800FFF733FC2461C6F13806A661BE
:101F70006462656584F8585052464946384600F018
:101F8000D7FE2060B8F1000F01D0C8F80040BDE8CE
:101F9000F087002384F83430D8E7000070B50024BF
:101FA00007E004EB8402930010481844FFF704FC98
:101FB0000134372CF5D90E4C04F592663046FFF704
:101FC000FBFB04F2A4452846FFF7F6FB04F11400DE
:101FD000FFF7F2FB04F59760FFF7EEFB2046FFF7F3
:101FE000EBFBA662C4F8CC5470BD00BF38070010EC
:101FF0000807001038B5044600F0C4FE274BD3F89C
:10200000D0240132C3F8D024D3F8D43473B1234B95
:10201000D3F8D8348BB9214BD3F8D434DA6AE36AD5
:102020009A420AD81D4BC3F8D44406E01B4BC3F8B0
:10203000D444D3F8D034012B2CD0184AD2F8DC3455
:102040000133C2F8DC346364E36AD2F8E0249342DB
:1020500002D9124AC2F8E034104D05F1300003EB0A
:1020600083039A00211D1044FFF7B4FB00F0ACFE7F
:10207000D5F8D8346BB1D5F8D434DA6AE36A9A4229
:1020800007D2074B4FF080521A60BFF34F8FBFF358
:102090006F8F38BDFFF782FFCFE700BF0807001042
:1020A00004ED00E010B5044690F8593033B9006BE8
:1020B00001F084F8204601F081F810BD012B0AD010
:1020C000022BFAD04FF0500383F31188BFF36F8FC8
:1020D000BFF34F8FFEE701F071F8EEE738B517E078
:1020E00000F050FE0D4CD4F8C434DD68281DFFF715
:1020F00097FBD4F8D034013BC4F8D034D4F8E4349E
:10210000013BC4F8E43400F05FFE2846FFF7CAFF45
:10211000024BD3F8E434002BE2D138BD080700109D
:1021200008B5FFF7DBFF064B1B6B012BF9D9054BFD
:102130004FF080521A60BFF34F8FBFF36F8FF0E7FD
:102140000807001004ED00E070B504460E46184B79
:10215000D3F8E854D3F8D4040430FFF761FBB4F1AA
:10216000FF3F12D02C44124BD3F8D4345C60A5420C
:1021700014D80F4DA86AD5F8D4140431FFF736FBF4
:10218000EB6AA34212D9EC6210E0002EEAD00848B4
:10219000D0F8D4140431FFF71DFB07E0044BD3F84B
:1021A000CC04D3F8D4140431FFF720FB70BD00BF7A
:1021B0000807001070B586B00B9D0C9C45B94FF018
:1021C000500383F31188BFF36F8FBFF34F8FFEE788
:1021D00044B94FF0500383F31188BFF36F8FBFF3FF
:1021E0004F8FFEE75C260496049E5C2E08D04FF0CD
:1021F000500383F31188BFF36F8FBFF34F8FFEE758
:10220000049E2563022584F8595000250395029405
:1022100005AD01950A9D0095FFF772FE2046FFF778
:10222000E9FE059806B070BD2DE9F04385B007467C
:10223000884615469946900000F046FF08B30646CA
:102240005C2000F041FF0446B8B10663E4B100230E
:1022500084F85930039302940D9B01930C9B0093D7
:102260004B462A4641463846FFF74AFE2046FFF7CE
:10227000C1FE012005B0BDE8F083304600F09EFFAE
:10228000E4E74FF0FF30F5E74FF0FF30F2E70000F2
:1022900010B588B000240594069407AA06A905A8DD
:1022A000FFF76CFA059B0293069B0193009423466B
:1022B000079A17491748FFF77DFF40B100F032FB3E
:1022C000012806D0B0F1FF3F18D008B010BD0020A3
:1022D000F6E74FF0500383F31188BFF36F8FBFF31E
:1022E0004F8F0D4B4FF0FF32DA620122C3F8D82432
:1022F0000022C3F8E82400F0E7FDE6E74FF05003C2
:1023000083F31188BFF36F8FBFF34F8FFEE700BFDA
:10231000A03310082121100808070010034AD2F842
:10232000EC340133C2F8EC34704700BF08070010EA
:10233000014BD3F8E8047047080700102DE9F0417D
:10234000404BD3F8EC34002B6DD13E4BD3F8E8541E
:102350000135C3F8E854CDB99B6A1B6843B14FF00F
:10236000500383F31188BFF36F8FBFF34F8FFEE7E6
:10237000344B9A6AD3F8CC149962C3F8CC24D3F8BE
:10238000F0240132C3F8F024FFF7A8FD2D4BDB6ADF
:10239000AB423ED900242B4AD2F8D434DB6A03EB9B
:1023A000830399000A44136B012B43D9012441E0B4
:1023B0000124244B9B6A1B686BB3224B9B6ADB682E
:1023C000DE6873689D422BD306F104084046FFF790
:1023D00027FAB36A1BB106F11800FFF721FAF36A76
:1023E000184AD2F8E024934202D9164AC2F8E034DF
:1023F000144F07F1300003EB83039A004146104469
:10240000FFF7E8F9F26AD7F8D434DB6A9A42CFD200
:10241000CFE70024CDE70B4B4FF0FF32DA62BAE78B
:10242000084AD362B7E7074AD2F8F4340133C2F856
:10243000F4340024034BD3F8F83403B101242046CC
:10244000BDE8F08108070010394BD3F8EC3443B9EC
:102450004FF0500383F31188BFF36F8FBFF34F8F9B
:10246000FEE770B500F08EFC314BD3F8EC24013A56
:10247000C3F8EC24D3F8EC34002B54D12C4BD3F814
:10248000D03423B9002400F09FFC204670BD002406
:10249000274B5B692BB3264D2B6ADC6804F11800CF
:1024A000FFF7BEF9261D3046FFF7BAF9E36AD5F803
:1024B000E024934201D9C5F8E0341D4D05F1300008
:1024C00003EB83039A0031461044FFF783F9E26A75
:1024D000D5F8D434DB6A9A42DAD30122C5F8F8245D
:1024E000D6E70CB1FFF7FAFC114BD3F8F44464B112
:1024F000FFF724FF18B10E4B0122C3F8F824013C6A
:10250000F6D10B4B0022C3F8F424094BD3F8F8346E
:102510005BB1084B4FF080521A60BFF34F8FBFF38F
:102520006F8F0124AFE70024ADE70024ABE700BFC5
:102530000807001004ED00E010B5B0B104460F4BE1
:10254000D3F8EC3443B14FF0500383F31188BFF359
:102550006F8FBFF34F8FFEE7FFF7E0FE00212046AD
:10256000FFF7F2FDFFF770FF38B9054B4FF08052CF
:102570001A60BFF34F8FBFF36F8F10BD08070010B5
:1025800004ED00E0234BD3F8EC3423B1214B0122BE
:10259000C3F8F82470471F4B0022C3F8F824D3F87F
:1025A000E03403EB830291001A4A0A44126B5AB9D1
:1025B0000BB1013BF5E74FF0500383F31188BFF3F4
:1025C0006F8FBFF34F8FFEE710B4124A9900CC18FB
:1025D000A0001044446B646844633032194488009E
:1025E0000830024494420DD00A4903EB8300820074
:1025F0000A44526BD268C1F8D424C1F8E0345DF8C3
:10260000044B704761680348142202FB03025163C4
:10261000EAE700BF0807001040B94FF0500383F30A
:102620001188BFF36F8FBFF34F8FFEE710B50C46D5
:10263000054BD3F8D4141831FFF7D8F80121204600
:10264000FFF782FD10BD00BF0807001038B540B984
:102650004FF0500383F31188BFF36F8FBFF34F8F99
:10266000FEE70C461546074AD2F8D4141831FFF796
:10267000B1F80DB14FF0FF3429462046FFF764FD55
:1026800038BD00BF0807001038B5C368DC6844B91E
:102690004FF0500383F31188BFF36F8FBFF34F8F59
:1026A000FEE704F118052846FFF7BAF8154BD3F8F2
:1026B000EC3403BB251D2846FFF7B2F8E36A114A44
:1026C000D2F8E024934202D90E4AC2F8E03403EB78
:1026D00083039A0029460C481044FFF77BF8E26A0E
:1026E000084BD3F8D434DB6A9A4209D90120054B50
:1026F000C3F8F80438BD29460448FFF76BF8EEE745
:102700000020F7E708070010380700101C0700102A
:10271000034BD3F8F0240260D3F8E83443607047E9
:1027200008070010F8B550B1054689B94FF05003BD
:1027300083F31188BFF36F8FBFF34F8FFEE74FF026
:10274000500383F31188BFF36F8FBFF34F8FFEE702
:102750000C4600F017FB124BD3F8E81468680A1A0D
:102760002368B3F1FF3F17D02F680D4ED6F8F06401
:10277000B74201D0884211D9934203D80023236085
:10278000012405E09B1A23602846FFF7C1FF0024BF
:1027900000F01AFB2046F8BD0024F9E70124F7E712
:1027A00008070010024B0122C3F8F824704700BF4D
:1027B00008070010064BD3F8D8343BB1044BD3F8CC
:1027C000EC340BB1002070470220704701207047A5
:1027D0000807001000283BD038B504461F4AD2F83D
:1027E000D424824208D04FF0500383F31188BFF302
:1027F0006F8FBFF34F8FFEE7026D42B94FF050036A
:1028000083F31188BFF36F8FBFF34F8FFEE7013A59
:102810000265C06AE16C88421CD0EAB9251D2846D1
:10282000FEF7FEFFE36CE362C3F13802A2610B4ADC
:10283000D2F8E024934202D9084AC2F8E03429468B
:10284000074A142000FB0320FEF7C4FF012038BD17
:10285000002070470020FAE70020F8E70807001082
:1028600038070010064B1A6813682BB90123036060
:1028700023B9D368186870470023F8E70020704731
:10288000040C001008B54160006191420CD8D21AC6
:1028900083699A4201D3012010E0011D094B586859
:1028A000FEF7A4FF002009E09A4201D2994206D225
:1028B000011D044B1868FEF799FF002008BD012098
:1028C000FCE700BF040C001070B582B000F05AFAAB
:1028D000124B9B681BB100F077FA02B070BD0F4C31
:1028E00004F10C063046FEF767FF04F12005284688
:1028F000FEF762FF266065600023009304F1340355
:1029000004F1840210210A20FFF791F8A06000284A
:10291000E1D00349FFF7A4FADDE700BF040C001083
:10292000A833100810B588B0FFF7CEFF134B9B6893
:10293000D3B100240594069407AA06A905A8FEF7BA
:102940002BFF059B0293069B0193022300932346D2
:10295000079A0B490B48FFF72DFC084BC3F82401DD
:1029600010B1012008B010BD4FF0500383F311885F
:10297000BFF36F8FBFF34F8FFEE700BF040C001053
:10298000B03310089D2C1008C8B130B585B015467D
:102990000446174A906840B31A4600910195029484
:1029A00005291DDCFFF706FF022811D000231A4677
:1029B00069460F488068FFF783F805B030BD4FF0D7
:1029C000500383F31188BFF36F8FBFF34F8FFEE780
:1029D0000023089A694606488068FFF771F8ECE71B
:1029E00000236946FFF72AF9E7E70020E5E700BF83
:1029F000040C0010214B1B681A68002A39D070B5EE
:102A000082B0DB681E68DC68251D2846FEF708FFDB
:102A1000236A2046984794F8283013F0040F0AD10F
:102A2000164B1B681A68002AEBD1144A51681160D2
:102A3000536002B070BDA36933449E4207D2636005
:102A4000246129460D4B1868FEF7D0FEE8E7002107
:102A500000910B4632462046FFF796FF0028DFD153
:102A60004FF0500383F31188BFF36F8FBFF34F8F85
:102A7000FEE7024A5168116053607047040C001071
:102A800038B50546FFF754FC0446084BD3F8283107
:102A9000834206D800232B60044BC3F8284120460C
:102AA00038BDFFF7A7FF01232B60F5E7040C0010EA
:102AB00070B582B005460E46174B1B68DB68DC68B4
:102AC000201DFEF7ADFE94F8283013F0040F08D156
:102AD00023F0010384F82830236A2046984702B087
:102AE00070BDA1692B46324629442046FFF7CAFE35
:102AF0000028F1D0002100910B462A462046FFF71E
:102B000043FF0028E8D14FF0500383F31188BFF34F
:102B10006F8FBFF34F8FFEE7040C001070B582B0CB
:102B200006460C46FFF7FAFB01A8FFF7A9FF019B39
:102B300023BB05460CB9B04217D224B1114B5B68D8
:102B40001B68CBB901242246711B0E4B9868FFF716
:102B50009BF9FFF779FC98B90B4B4FF080521A6044
:102B6000BFF34F8FBFF36F8F0AE0FFF76DFC29466D
:102B70003046FFF79DFF03E00024E4E7FFF764FC25
:102B800002B070BD040C001004ED00E030B589B057
:102B900002E0049B002B0FDA002204A93E4B986848
:102BA000FFF7B2F8002874D0049B002BF1DA0799E4
:102BB0000698059B9847ECE7069C636913B1201DB6
:102BC000FEF72EFE03A8FFF75BFF049B092BE3D85B
:102BD000DFE803F00505053138510505313894F873
:102BE000283043F0010384F828300599A5690B4685
:102BF000024629442046FFF745FE0028CCD0236A30
:102C00002046984794F8283013F0040FC4D0A269E6
:102C1000002100910B46059802442046FFF7B4FEC0
:102C20000028B9D14FF0500383F31188BFF36F8FA1
:102C3000BFF34F8FFEE794F8283023F0010384F8A8
:102C40002830A9E794F8283043F0010384F82830AD
:102C50000599A16131B10346024601442046FFF7C0
:102C600011FE99E74FF0500383F31188BFF36F8F84
:102C7000BFF34F8FFEE794F8283013F0020F04D013
:102C800023F0010384F8283086E7204600F096FA06
:102C900082E709B030BD00BF040C001000B583B05E
:102CA00001A8FFF7DFFD0199FFF738FFFFF76EFF7F
:102CB000F6E7000082B0002301930D4B1B68B3F1CF
:102CC000FF3F08D04FF0500383F31188BFF36F8F9D
:102CD000BFF34F8FFEE74FF0500383F31188BFF32C
:102CE0006F8FBFF34F8F019B002BFCD002B070475A
:102CF0002000001008480068006880F308884FF042
:102D0000000080F3148862B661B6BFF34F8FBFF343
:102D10006F8F00DF00BF000008ED00E0DFF80C005F
:102D2000016841F4700101607047000088ED00E027
:102D30004FF0807340F8043C21F0010140F8081C7A
:102D4000054B40F80C3C40F8202C6FF0020340F893
:102D5000243C4438704700BFB52C10080000000028
:102D6000074B19680868B0E8F04F80F30988BFF393
:102D70006F8F4FF0000080F311887047AFF3008031
:102D8000DC0B00104FF0500383F31188BFF36F8FFB
:102D9000BFF34F8F0A4A136801331360012B00D031
:102DA0007047084B1B6813F0FF0FF9D04FF050032A
:102DB00083F31188BFF36F8FBFF34F8FFEE700BF20
:102DC0002000001004ED00E0094B1B6843B94FF0F0
:102DD000500383F31188BFF36F8FBFF34F8FFEE76C
:102DE000013B034A13600BB983F31188704700BF9E
:102DF00020000010000000000000000000000000A3
:102E0000EFF30980BFF36F8F154B1A681EF0100F98
:102E100008BF20ED108A20E9F04F10602DE909006D
:102E20004FF0500080F31188BFF34F8FBFF36F8FC7
:102E3000FFF7A8FB4FF0000080F3118809BC196868
:102E40000868B0E8F04F1EF0100F08BFB0EC108A11
:102E500080F30988BFF36F8F704700BFAFF3008026
:102E6000DC0B001008B54FF0500383F31188BFF35B
:102E70006F8FBFF34F8FFFF761FA18B1034B4FF01D
:102E800080521A60002383F3118808BD04ED00E02E
:102E9000084A0023136008490B60084B1B68084967
:102EA000A1FB03139B09013B06490B600723136039
:102EB000704700BF10E000E018E000E018000010CC
:102EC000D34D621014E000E0394B1A68394B9A4236
:102ED0000DD0374B1A68384B9A4211D14FF050033E
:102EE00083F31188BFF36F8FBFF34F8FFEE74FF06F
:102EF000500383F31188BFF36F8FBFF34F8FFEE74B
:102F000010B582B02D4B1A78D2B20192FF221A70FE
:102F10001B78DBB28DF803309DF8033003F05003CB
:102F2000274A13700723536009E0254A5368013B81
:102F300053609DF803305B00DBB28DF803309DF8E1
:102F4000033013F0800FF0D11D4B5B68032B08D0CA
:102F50004FF0500383F31188BFF36F8FBFF34F8F90
:102F6000FEE71B0203F4E063154A5360019BDBB2EA
:102F7000124A1370134B1A6842F470021A601A68EE
:102F800042F070421A60FFF783FF00240E4B1C6072
:102F9000FFF7C4FE0D4A136843F040431360FFF788
:102FA000A9FEFFF7EFFAFFF785FE204602B010BD3D
:102FB00000ED00E071C20F4170C20F4100E400E07B
:102FC000300D001020ED00E02000001034EF00E094
:102FD000EFF305830F2B0FD9104A9B5CDBB2104A2D
:102FE00012789A4208D94FF0500383F31188BFF347
:102FF0006F8FBFF34F8FFEE70A4B1B6803F4E0634C
:10300000074A5268934208D94FF0500383F311885E
:10301000BFF36F8FBFF34F8FFEE77047F0E300E021
:10302000300D00100CED00E0104A12F0070F1AD01E
:10303000D11D21F00701C1F5705313440A460C4914
:103040000A60002048601344083B23F007038B60AC
:1030500058601860981A50601360C86008614FF09B
:1030600000434B6170474FF47053E8E7500D001078
:10307000380D001010B4134B1A6882421BD35968E4
:103080005C18844203D14068014459601846416885
:103090004418A24213D10B4CA468A2420DD052682E
:1030A000114441601A6812680260984200D01860AA
:1030B0005DF8044B70471346DEE70460F5E70260F5
:1030C000F3E700BF380D001070B50446FFF726F98E
:1030D000394B9B68BBB1384B5B691C4262D1ACB1C8
:1030E000083414F0070F11D024F00704083404F05A
:1030F00007035BB14FF0500383F31188BFF36F8F69
:10310000BFF34F8FFEE7FFF78FFFE4E7002C4BD0B4
:10311000294B1B69A34249D3274B1D6801E02B466D
:1031200015466A68A24202D22A68002AF7D1224ACA
:103130009268AA423CD01E6808362A681A606B68FA
:103140001B1B102B10D9281910F0070F08D04FF0B7
:10315000500383F31188BFF36F8FBFF34F8FFEE7E8
:1031600043606C60FFF786FF6968134A13695B1A56
:103170001361D268934201D20F4AD3600E4B5B6950
:103180000B436B6000232B60FFF75EF916F0070F0F
:1031900010D04FF0500383F31188BFF36F8FBFF34C
:1031A0004F8FFEE70026EFE70026EDE70026EBE76E
:1031B0000026E9E7304670BD380D001080B338B501
:1031C0000446A0F1080550F8042C164949690A4242
:1031D00008D14FF0500383F31188BFF36F8FBFF313
:1031E0004F8FFEE750F8080C40B14FF0500383F3C7
:1031F0001188BFF36F8FBFF34F8FFEE722EA010202
:1032000044F8042CFFF78AF854F8041C054A1369A3
:103210000B4413612846FFF72DFFFFF715F938BD62
:10322000704700BF380D0010DFF834D0FDF762FAA8
:10323000002103E00B4B5B58435004310A480B4B11
:1032400042189A42F6D30A4A02E0002342F8043BAD
:10325000084B9A42F9D300F011F8FDF713F97047C3
:1032600000800410C033100800000010240000107B
:1032700024000010884F0010FEE7000070B50D4ECE
:103280000D4CA41BA4100025A54209D10B4E0C4CDB
:1032900000F02CF8A41BA4100025A54205D170BD98
:1032A00056F8253098470135EEE756F8253098470F
:1032B0000135F2E7B8331008B8331008B8331008F6
:1032C000BC33100810B5431E0A44914200D110BD12
:1032D00011F8014B03F8014FF7E70244034693420C
:1032E00000D1704703F8011BF9E70000F8B500BFF3
:1032F000F8BC08BC9E467047F8B500BFF8BC08BCD7
:043300009E4670472E
:1033040094331008000000000000000000000000DA
:10331400000000000002000018000000000000008F
:103324000000000000000000010203040102030485
:10333400060708090001020304050607080C101417
:1033440018203040000000000000000000000000D1
:103354000000000000000000010000000200000066
:10336400030000000400000000000000050000004D
:103374000000000000000000000000000600000043
:103384000000000000000000000000000700000032
:1033940064656661756C745461736B0049444C4593
:1033A40000000000546D725100000000546D722042
:0433B40053766300E9
:0433B800C502100832
:0433BC00A102100852
:1033C00001000000C9061008D9061008E906100817
:1033D000ED061008F10610080090D0030090D0030D
:0433E000AAAAAAAA41
:040000050810322984
:00000001FF
:020000040800F2
:1000000000000220BD2D0108311700083317000839
:1000100035170008371700083917000800000000DE
:1000200000000000000000000000000021A4000803
:100030003B17000800000000C1A4000825A5000827
:100040000D2E01080D2E01080D2E01080D2E0108A0
:100050000D2E01080D2E01080D2E01080D2E010890
:100060000D2E01080D2E01080D2E01083D17000868
:100070004D1700085D1700086D1700087D17000870
:100080008D1700089D1700080D2E01080D2E010880
:100090000D2E01080D2E01080D2E01080D2E010850
:1000A0000D2E01080D2E01080D2E01080D2E010840
:1000B0000D2E01080D2E01080D2E01080D2E010830
:1000C0000D2E01080D2E01080D2E0108AD17000898
:1000D000BD1700080D2E01080D2E01080D2E010878
:1000E0000D2E01080D2E0108000000000D2E010844
:1000F0000D2E01080D2E01080D2E0108CD17000848
:100100000D2E01080D2E01080D2E0108DD17000827
:100110000D2E01080D2E01080D2E0108ED17000807
:10012000FD1700080D1800081D1800082D180008FC
:100130003D1800084D1800080D2E01080D2E01086D
:100140000D2E01080D2E0108000000000000000027
:100150005D1800086D1800087D1800080D2E0108B4
:100160000D2E01080D2E01080D2E01080D2E01087F
:100170000D2E01080D2E01080D2E010800000000B3
:100180000D2E01080D2E01080D2E01080D2E01085F
:100190008D1800080D2E01080D2E01080D2E0108E6
:1001A0000D2E01080D2E01080D2E01080D2E01083F
:1001B0000D2E01080D2E01080D2E01080D2E01082F
:1001C0000D2E01080D2E01080D2E01080D2E01081F
:1001D0000D2E01080D2E01080D2E01080D2E01080F
:1001E0000D2E01080D2E01080D2E01080D2E0108FF
:1001F0000D2E01080D2E01080D2E01080D2E0108EF
:100200000D2E01080D2E01080D2E01080D2E0108DE
:100210000D2E01080D2E01080D2E01080D2E0108CE
:100220000D2E01080D2E01080D2E01080000000002
:100230000D2E01080D2E01080D2E01080D2E0108AE
:100240000D2E01080D2E01080D2E01080D2E01089E
:100250000D2E01080D2E01080D2E01080D2E01088E
:100260000D2E01080D2E01080D2E01080D2E01087E
:100270000D2E01080D2E01080D2E01080D2E01086E
:100280000D2E01080D2E01080D2E010800000000A2
:080290000D2E01080D2E0108DE
:1002A00010B5054C237833B9044B13B10448AFF3B0
:1002B00000800123237010BD98000024000000007E
:1002C000DC3C010808B5034B1BB103490348AFF3FD
:1002D000008008BD000000009C000024DC3C0108F8
:1002E00053B94AB9002908BF00281CBF4FF0FF319D
:1002F0004FF0FF3000F072B9ADF1080C6DE904CE9B
:1003000000F006F8DDF804E0DDE9022304B07047F0
:100310002DE9F047089E04468846002B4BD18A42BF
:10032000154667D9B2FA82F24AB1C2F1200701FA42
:1003300002F320FA07F7954047EA030894404FEA92
:10034000154E230CB8FBFEF71FFA85FC0EFB178831
:1003500043EA084307FB0CF1994209D9EB1807F16E
:10036000FF3080F01B81994240F21881023F2B44FC
:100370005B1AA4B2B3FBFEF00EFB103344EA034455
:1003800000FB0CFCA44509D92C1900F1FF3380F0C7
:100390000781A44540F2048102382C4440EA07401A
:1003A000A4EB0C0400271EB1D4400023C6E900438F
:1003B0003946BDE8F0878B4209D9002E00F0EB806A
:1003C0000027C6E9000138463946BDE8F087B3FA90
:1003D00083F7002F47D18B4202D3824200F2FA808A
:1003E000841A61EB030301209846002EE0D0C6E991
:1003F0000048DDE702B9FFDEB2FA82F2002A40F0DF
:100400008F80491B4FEA154E1FFA85F80127B1FB73
:10041000FEFC230C0EFB1C1143EA014308FB0CF10C
:10042000994207D9EB180CF1FF3002D2994200F241
:10043000CD808446591AA3B2B1FBFEF00EFB101416
:1004400043EA044408FB00F8A04507D92C1900F141
:10045000FF3302D2A04500F2B6801846A4EB080490
:1004600040EA0C409FE7C7F1200CBB4022FA0CFE8B
:100470004EEA030E01FA07F420FA0CF521FA0CF308
:100480004FEA1E482543B3FBF8F92C0C08FB19333F
:100490001FFA8EFA44EA034309FB0AF49C4202FA6B
:1004A00007F200FA07F10BD91EEB030309F1FF3045
:1004B00080F087809C4240F28480A9F10209734455
:1004C0001B1BADB2B3FBF8F008FB103345EA034445
:1004D00000FB0AFAA24508D91EEB040400F1FF3321
:1004E0006BD2A24569D90238744440EA0940A0FBA6
:1004F0000289A4EB0A044C45C2464B4654D351D062
:10050000002E69D0B1EB0A0564EB030404FA0CFC7D
:10051000FD40FC404CEA0505C6E90054002747E7CA
:10052000C2F1200320FA03F7954001FA02F021FA04
:1005300003F34FEA154E3843010CB3FBFEF71FFAE5
:1005400085F80EFB173341EA034107FB08F38B42A2
:1005500004FA02F407D9691807F1FF3C2FD28B4245
:100560002DD9023F2944CB1A81B2B3FBFEF00EFB1A
:10057000103341EA034100FB08F38B4207D96918A5
:1005800000F1FF3C17D28B4215D902382944C91A11
:1005900040EA07473BE73746304609E70746E7E6C4
:1005A0001846FBE64145ABD2B8EB020A69EB0E02F6
:1005B00001381346A4E76046E9E7184695E7674621
:1005C000D1E781467CE702382C4447E7ACF1020CC6
:1005D0002B442FE7384608E73746E9E6704700BF67
:1005E00001F0FF01102A2BDB10F0070F08D010F8E4
:1005F000013B013A8B422DD010F0070F42B3F6D1E8
:10060000F0B441EA012141EA014122F007047FF000
:1006100000070023F0E80256083C85EA010586EA57
:10062000010685FA47F5A3FA87F586FA47F6A5FA93
:1006300087F68EB9EED1F0BC01F0FF0102F007029F
:1006400032B110F8013B013A83EA010313B1F8D14A
:100650000020704701387047002D06BF354603382B
:10066000073815F0010F07D1013015F4807F02BF64
:10067000013015F4C03F0130F0BC0138704700BFB5
:1006800008B50848084B03600023037143714361B8
:1006900083610123036202F099F900B908BD00F0FB
:1006A0003BFCFBE7705D0024004C025802680A4BDB
:1006B0009A4200D0704782B0A3F50063D3F8E020DF
:1006C00042F40022C3F8E020D3F8E03003F4002322
:1006D0000193019B02B07047004C025800B583B0F3
:1006E0004D4BD3F8D82042F00102C3F8D820D3F8FC
:1006F000D82002F001020092009AD3F8D82042F0EC
:100700000202C3F8D820D3F8D83003F002030193D3
:10071000019B002205210B2002F0C0F80B2002F003
:10072000EFF8002205210C2002F0B8F80C2002F0AE
:10073000E7F8002205210D2002F0B0F80D2002F0AC
:10074000DFF8002205210E2002F0A8F80E2002F0AA
:10075000D7F8002205210F2002F0A0F80F2002F0A8
:10076000CFF800220521102002F098F8102002F0A6
:10077000C7F800220521112002F090F8112002F0A4
:10078000BFF8002205212F2002F088F82F2002F068
:10079000B7F800221146382002F080F8382002F025
:1007A000AFF800221146392002F078F8392002F023
:1007B000A7F8002211463A2002F070F83A2002F021
:1007C0009FF8002211463B2002F068F83B2002F01F
:1007D00097F8002211463C2002F060F83C2002F01D
:1007E0008FF800221146442002F058F8442002F00D
:1007F00087F800221146452002F050F8452002F00B
:100800007FF800221146462002F048F8462002F008
:1008100077F803B05DF804FB0044025808B501F016
:10082000DFFA012007F0C4FCFBE7000008B5044A2A
:100830000021044807F052FC034B186008BD00BFBC
:10084000F43C01081D080008945D002488B0314B79
:10085000D3F8E02042F01002C3F8E020D3F8E02003
:1008600002F010020092009AD3F8E02042F0200239
:10087000C3F8E020D3F8E02002F020020192019AB0
:10088000D3F8E02042F08002C3F8E020D3F8E02063
:1008900002F080020292029AD3F8E02042F00402B1
:1008A000C3F8E020D3F8E02002F004020392039A98
:1008B000D3F8E02042F00102C3F8E020D3F8E020B2
:1008C00002F001020492049AD3F8E02042F00202FE
:1008D000C3F8E020D3F8E02002F002020592059A66
:1008E000D3F8E02042F00802C3F8E020D3F8E0207B
:1008F00002F008020692069AD3F8E02042F0400285
:10090000C3F8E020D3F8E03003F040030793079BDF
:1009100008B070470044025808B51448144B0360EF
:10092000144B4360002383600122C2600361436172
:100930008361C361036204F0A5FA68B900210B4822
:1009400004F0FEFA58B90021084804F027FB48B922
:10095000012004F04FFB08BD00F0DEFAEEE700F0E6
:10096000DBFAF0E700F0D8FAF2E700BF305E0024CF
:10097000005400404212400008B51248124B036078
:10098000124B4360002383600122C2600361436114
:100990008361C361036204F075FA50B9002109480C
:1009A00004F0CEFA40B90021064804F0F7FA30B955
:1009B00008BD00F0B1FAF1E700F0AEFAF3E700F09D
:1009C000ABFAF5E77C5E002400580040FFECC01055
:1009D00008B51248124B0360124B4360002383603A
:1009E0000122C260036143618361C361036204F059
:1009F00049FA50B90021094804F0A2FA40B900218F
:100A0000064804F0CBFA30B908BD00F085FAF1E7EA
:100A100000F082FAF3E700F07FFAF5E7985D002432
:100A2000005C0040FFECC01008B51248124B036098
:100A3000124B4360002383600122C2600361436163
:100A40008361C361036204F01DFA50B900210948B3
:100A500004F076FA40B90021064804F09FFA30B954
:100A600008BD00F059FAF1E700F056FAF3E700F09C
:100A700053FAF5E7E45D0024001C0058FFECC010B9
:100A800070B58EB0002309930A930B930C930D93CA
:100A900003685D4A93420BD05C4A93422CD05C4A77
:100AA00093424ED05B4A934200F088800EB070BDF6
:100AB000594CD4F8E03043F00203C4F8E030D4F8E5
:100AC000E03003F002030093009BC023099312233C
:100AD0000A9304230D9309A9504804F0CBF8D4F8E5
:100AE000E83043F40013C4F8E830D4F8E83003F4F5
:100AF00000130193019BD9E7474CD4F8E03043F051
:100B00000203C4F8E030D4F8E03003F002030293AB
:100B1000029B4FF44063099312230A9304230D931D
:100B200009A93E4804F0A6F8D4F8E83043F480035D
:100B3000C4F8E830D4F8E83003F480030393039B4F
:100B4000B4E7354CD4F8E03043F00403C4F8E030A7
:100B5000D4F8E03003F004030493049BD4F8E030AD
:100B600043F00103C4F8E030D4F8E03003F00103AF
:100B70000593059B4FF40073099312260A960425EA
:100B80000D9509A9264804F075F84FF48073099370
:100B90000A9600230B930C930D9509A9214804F0A4
:100BA00069F8D4F8E83043F40003C4F8E830D4F826
:100BB000E83003F400030693069B77E7164CD4F85D
:100BC000E03043F02003C4F8E030D4F8E03003F024
:100BD00020030793079B4FF44043099312230A9382
:100BE00004230D9309A9104804F044F8D4F8F43014
:100BF00043F08003C4F8F430D4F8F43003F08003F9
:100C00000893089B52E700BF005400400058004082
:100C1000005C0040001C00580044025800040258C8
:100C200000080258000002580014025808B508488D
:100C3000084B03600023436040F6FF73C36083608A
:100C400004F0F0F900B908BD00F066F9FBE700BF59
:100C5000C85E002400480058F0B585B00024009418
:100C600001940294039401F059FE01258DF800507F
:100C70008DF801401A4F01970E238DF808308DF83A
:100C800009408DF80A5003268DF80B608DF80C5042
:100C90008DF80D408DF80E408DF80F40684601F03C
:100CA0005FFE8DF800508DF80150019707238DF8F5
:100CB00008308DF809408DF80A408DF80B608DF8EA
:100CC0000C508DF80D508DF80E408DF80F50684681
:100CD00001F046FE042001F031FE05B0F0BD00BF7A
:100CE0000000043070B5CCB04C22002139A812F0BD
:100CF000CDF82022002131A812F0C8F8BC22002132
:100D000002A812F0C3F8022004F0B8F900230193FE
:100D1000294BDA6A22F00102DA62DB6A03F001038E
:100D20000193264B9A6942F440429A619B6903F40D
:100D300040430193019B214B9B6913F4005FFAD060
:100D4000092339934FF4A0233A9301233E930225BC
:100D50004295439544954026459646954795489536
:100D60000C23499300244A944B9439A804F04EFA7A
:100D70003F233193032332933394082334933596DE
:100D800036964FF4806337933896294631A804F09D
:100D900057FE0B4B0293149419941A941D941F94AC
:100DA0002094229427944FF400732E9302A805F008
:100DB0000DF94CB070BD00BF000400580048025847
:100DC0001BB0400210B582B0FFF746FFBFF34F8F54
:100DD000BFF36F8F484B0021C3F85012BFF34F8F02
:100DE000BFF36F8F5A6942F400325A61BFF34F8FDD
:100DF000BFF36F8FC3F88410BFF34F8FD3F88040D9
:100E0000C4F34E310FE01A4643F6E07303EA411390
:100E100043EA82733848C0F86032531E002AF2D188
:100E20004B1E19B11946C4F3C902EDE7BFF34F8F4A
:100E3000436943F480334361BFF34F8FBFF36F8F38
:100E40004FF6FF7300E013462C4A126812F4004F6D
:100E500002D05A1E002BF6DC01F0BEFCFFF742FF69
:100E6000264BD3F8E02042F00072C3F8E020D3F81C
:100E7000E03003F000730193019B002003F0EAFFD0
:100E80000021084603F0F6FF4FF6FF7300E013461B
:100E90001A4A126812F4004F02D15A1E002BF6DCD7
:100EA000FFF7D4FCFFF71AFCFFF7EAFBFFF734FD6E
:100EB000FFF762FDFFF78CFD00F030F800F006F957
:100EC00000F032F900F05EF900F08AF900F0E6FC7B
:100ED00000F018FD00F04AFDFFF7A6FDFFF7A6FEA3
:100EE00000F078FD00F0C8F807F09EF8FFF79EFCD0
:100EF00007F0BAF8FEE700BF00ED00E0004402583A
:100F000008B50268034B9A4200D008BD01F092FC7C
:100F1000FBE700BF001400407047000008B50A4816
:100F20000A4B0360FF234360012282600023C360F9
:100F3000026143618361C361036204F011F900B986
:100F400008BDFFF7E9FFFBE7D85E00240050005220
:100F50002DE9F0418AB00023059306930793089387
:100F6000099302683E4B9A4202D00AB0BDE8F08174
:100F70003C4BD3F8D42042F48042C3F8D420D3F8B9
:100F8000D42002F480420092009AD3F8E02042F08C
:100F90001002C3F8E020D3F8E02002F01002019222
:100FA000019AD3F8E02042F02002C3F8E020D3F801
:100FB000E02002F020020292029AD3F8E02042F0F0
:100FC0000802C3F8E020D3F8E02002F00802039200
:100FD000039AD3F8E02042F04002C3F8E020D3F8AF
:100FE000E03003F040030493049B0423059302259F
:100FF00006950926099605A91B4803F03BFE4FF408
:101000008863059306950024079408940996DFF8F1
:10101000648005A9404603F02DFE4FF4007305934C
:101020000695079408940A27099705A9404603F0F6
:1010300021FE4FF4006305930695079408940996E2
:1010400005A90A4803F016FE402305930695079468
:101050000894099705A9064803F00CFE85E700BF30
:10106000005000520044025800100258000C025870
:10107000001802580014025808B50A480A4B0360C9
:10108000002343607F228260FF22C260036183618C
:10109000C361436105F0A6FE00B908BDFFF73CFF40
:1010A000FBE700BF245F0024004000580268054BA6
:1010B0009A4200D07047044A136F43F40043136709
:1010C000F8E700BF004000580044025808B5144833
:1010D000144B03604FF480034360002383600322BA
:1010E000C260036143614FF0806282614FF08052C1
:1010F000C261036243628362C3624FF08042426313
:101100008363C363036443648364C36403654365A7
:10111000836505F025FF00B908BDFFF7FDFEFBE77D
:10112000C06200240030014008B51448144B03602D
:101130004FF480034360002383600322C260036195
:1011400043614FF0806282614FF08052C26103625E
:1011500043628362C3624FF0804242638363C3632E
:10116000036443648364C36403654365836505F076
:10117000F7FE00B908BDFFF7CFFEFBE7485F00248C
:101180000038004008B51448144B03604FF4800346
:101190004360002383600322C260036143614FF018
:1011A000806282614FF08052C26103624362836257
:1011B000C3624FF0804242638363C363036443644A
:1011C0008364C36403654365836505F0C9FE00B9A4
:1011D00008BDFFF7A1FEFBE7C0600024003C004013
:1011E00008B51348134B03604FF48003436000239A
:1011F00083600322C260036143614FF080628261B9
:10120000C361036243628362C3624FF08042426300
:101210008363C363036443648364C3640365436596
:10122000836505F09DFE00B908BDFFF775FEFBE77D
:10123000386200240034014070B590B004460023A9
:101240000B930C930D930E930F930368814A934273
:101250000DD0814A934200F08380804A934200F08F
:1012600019817F4A934200F0908110B070BD7D4B90
:10127000D3F8F02042F48052C3F8F020D3F8F020E5
:1012800002F480520092009AD3F8E02042F001026A
:10129000C3F8E020D3F8E02002F001020192019AA5
:1012A000D3F8E02042F00802C3F8E020D3F8E030A1
:1012B00003F008030293029B60230B9302250C9515
:1012C00005260F960BA9684803F0D4FC80230B93E6
:1012D0000C9500250D950E950F960BA9634803F00C
:1012E000C9FC6348634B0360252343608560C56088
:1012F0004FF48063036145618561C5614FF44033FC
:101300000362456201F014FD20BB594BE3679C6307
:1013100059485A4B036026234360402383600023CF
:10132000C3604FF48062026143618361C3614FF423
:1013300040320262436201F0FBFC70B94E4BA3677E
:101340009C6300220521232001F0A8FA232001F04C
:10135000D7FA8AE7FFF7E0FDD7E7FFF7DDFDEDE716
:10136000404BD3F8E82042F48042C3F8E820D3F899
:10137000E82002F480420392039AD3F8E02042F07E
:101380000402C3F8E020D3F8E02002F00402049243
:10139000049AD3F8E02042F00102C3F8E020D3F829
:1013A000E03003F001030593059B0C230B9302250A
:1013B0000C9505260F960BA9314803F05BFC4FF402
:1013C00000730B930C9500250D950E950F960BA9A8
:1013D000254803F04FFC2B482B4B03602723436029
:1013E0008560C5604FF48063036145618561C561B7
:1013F0004FF400330362456201F09AFC20BB214B9D
:10140000E3679C632148224B036028234360402309
:1014100083600023C3604FF4806202614361836193
:10142000C3614FF400320262436201F081FC70B983
:10143000164BA3679C6300220521242001F02EFA9D
:10144000242001F05DFA10E7FFF766FDD7E7FFF70C
:1014500063FDEDE70030014000380040003C0040F3
:10146000003401400044025800000258000C0258A9
:101470004863002410000240386400242800024021
:1014800000080258D05F002440000240C0630024DE
:10149000580002406D4BD3F8E82042F40042C3F8F4
:1014A000E820D3F8E82002F400420692069AD3F826
:1014B000E02042F00202C3F8E020D3F8E02002F07E
:1014C00002020792079AD3F8E02042F00402C3F820
:1014D000E020D3F8E03003F004030893089B0423D2
:1014E0000B9302250C9507230F930BA9584803F083
:1014F000C1FB4FF440630B930C9500250D950E95A1
:1015000006230F930BA9534803F0B4FB5248534BE7
:1015100003603D2343608560C5604FF480630361D1
:1015200045618561C5614FF480330362456201F016
:10153000FFFB20BB484BE3679C634948494B036072
:101540003E234360402383600023C3604FF48062E6
:10155000026143618361C3614FF48032026243627E
:1015600001F0E6FB70B93E4BA3679C6300220521A6
:10157000332001F093F9332001F0C2F975E6FFF74B
:10158000CBFCD7E7FFF7C8FCEDE7304BD3F8F020F2
:1015900042F40052C3F8F020D3F8F02002F40052D5
:1015A0000992099AD3F8E02042F01002C3F8E02033
:1015B000D3F8E03003F010030A930A9B4FF48353EF
:1015C0000B9302230C9305230F930BA9264803F0DA
:1015D00051FB2648264B036053234360002383605E
:1015E000C3604FF48062026143618361C36103623F
:1015F000436201F09DFB10BB1C4BE3679C631D48DD
:101600001D4B036054234360402383600023C36069
:101610004FF48062026143618361C361036243628C
:1016200001F086FB70B9134BA3679C630022052170
:10163000542001F033F9542001F062F915E6FFF768
:101640006BFCD9E7FFF768FCEDE700BF00440258E8
:101650000004025800080258B064002470000240E0
:1016600048610024880002400010025848600024AD
:10167000A0000240C0610024B800024000B583B061
:101680000A4BD3F8F42042F00202C3F8F420D3F856
:10169000F43003F002030193019B00220F216FF04D
:1016A000010001F0FBF803B05DF804FB00440258B0
:1016B00000B58BB000220146372001F0EFF837204B
:1016C00001F01EF9164BD3F8E82042F02002C3F8CF
:1016D000E820D3F8E83003F020030093009B01A931
:1016E00002A804F03DFB04F017FB43000D48A0FBEB
:1016F00003239B0C013B0C480C4A026040F2E7328A
:10170000C260436000230361836005F081FF18B16C
:1017100001200BB05DF804FB034805F005FEF8E777
:101720000044025883DE1B43286500240014004057
:101730007047FEE7FEE7FEE7FEE7704708B50248A0
:1017400001F00AFE08BD00BF4863002408B5024846
:1017500001F002FE08BD00BF3864002408B502484D
:1017600001F0FAFD08BD00BFD05F002408B50248B3
:1017700001F0F2FD08BD00BFC063002408B50248B7
:1017800001F0EAFD08BD00BFB064002408B50248BE
:1017900001F0E2FD08BD00BF4861002408B5024821
:1017A00001F0DAFD08BD00BF4860002408B502481A
:1017B00005F082FC08BD00BFC062002408B50248E5
:1017C00005F07AFC08BD00BF485F002408B5024858
:1017D00001F0C2FD08BD00BFC061002408B5024889
:1017E00005F06AFC08BD00BFC060002408B50248CF
:1017F00005F0C0FD08BD00BF2865002408B50248FB
:1018000001F0AAFD08BD00BFD068002408B5024859
:1018100001F0A2FD08BD00BFE067002408B5024842
:1018200001F09AFD08BD00BF6466002408B50248B7
:1018300001F092FD08BD00BF6867002408B50248AA
:1018400001F08AFD08BD00BF7465002408B5024898
:1018500002F0B2FF08BD00BFB86C002408B5024812
:1018600001F07AFD08BD00BF4869002408B50248B0
:1018700001F072FD08BD00BFEC65002408B5024808
:1018800001F06AFD08BD00BF5868002408B5024891
:1018900005F012FC08BD00BF3862002408B51748E7
:1018A000174B03604FF4E133436000238360C36050
:1018B00003610C2242618361C361036243628362FC
:1018C00006F0DBFA70B900210C4806F062FB60B943
:1018D00000210A4806F082FB50B9084806F03AFB9E
:1018E00048B908BDFFF718FBEDE7FFF715FBEFE779
:1018F000FFF712FBF1E7FFF70FFBF2E7C0690024E7
:101900000010014008B51748174B03604FF4E1334E
:10191000436000238360C36003610C2242618361E2
:10192000C36103624362836206F0A7FA70B90021C3
:101930000C4806F02EFB60B900210A4806F04EFB69
:1019400050B9084806F006FB48B908BDFFF7E4FAAD
:10195000EDE7FFF7E1FAEFE7FFF7DEFAF1E7FFF770
:10196000DBFAF2E7D86A00240044004008B51748C3
:10197000174B03604FF4E133436000238360C3607F
:1019800003610C2242618361C3610362436283622B
:1019900006F073FA70B900210C4806F0FAFA60B943
:1019A00000210A4806F01AFB50B9084806F0D2FA9E
:1019B00048B908BDFFF7B0FAEDE7FFF7ADFAEFE77A
:1019C000FFF7AAFAF1E7FFF7A7FAF2E7DC660024CF
:1019D0000048004008B51748174B03604FF4E13347
:1019E000436000238360C36003610C224261836112
:1019F000C36103624362836206F03FFA70B900215B
:101A00000C4806F0C6FA60B900210A4806F0E6FA6A
:101A100050B9084806F09EFA48B908BDFFF77CFAAD
:101A2000EDE7FFF779FAEFE7FFF776FAF1E7FFF76F
:101A300073FAF2E74C6A00240014014070B58EB0CE
:101A40000446002309930A930B930C930D930368A8
:101A50009C4A93420CD09C4A934265D09B4A934245
:101A600000F0D3809A4A934200F054810EB070BDCA
:101A7000984BD3F8F02042F01002C3F8F020D3F8CE
:101A8000F02002F010020092009AD3F8E02042F019
:101A90000202C3F8E020D3F8E03003F00203019320
:101AA000019B4FF44043099302230A9304230D93AF
:101AB00009A9894803F0DEF88848894B0360292387
:101AC000436000238360C3604FF48062026143611E
:101AD0008361C3614FF440320262436201F028F92E
:101AE000E0B97E4BA3679C637E487F4B03602A234B
:101AF0004360402383600023C3604FF4806202612F
:101B000043618361C3614FF440320262436201F07A
:101B10000FF930B9734B63679C63A7E7FFF7FCF9D4
:101B2000DFE7FFF7F9F9F5E76A4BD3F8E82042F46D
:101B30000032C3F8E820D3F8E82002F40032029221
:101B4000029AD3F8E02042F00102C3F8E020D3F873
:101B5000E02002F001020392039AD3F8E02042F061
:101B60000802C3F8E020D3F8E03003F00803049340
:101B7000049B0823099302250A9507260D9609A9B7
:101B80005A4803F077F8202309930A9500250B950E
:101B90000C950D9609A9564803F06CF85548564B1C
:101BA00003602B2343608560C5604FF4806303614D
:101BB00045618561C5614FF400330362456201F000
:101BC000B7F8E0B94B4BA3679C634C484C4B0360A0
:101BD0002C234360402383600023C3604FF4806262
:101BE000026143618361C3614FF400320262436268
:101BF00001F09EF830B9414B63679C6336E7FFF70D
:101C00008BF9DFE7FFF788F9F5E7324BD3F8E820E7
:101C100042F48022C3F8E820D3F8E82002F48022BE
:101C20000592059AD3F8E02042F00802C3F8E020BC
:101C3000D3F8E03003F008030693069B4FF440739B
:101C4000099302230A9307230D9309A9284803F057
:101C500011F82C482C4B03602D2343600023836034
:101C6000C3604FF48062026143618361C3614FF4DA
:101C700080320262436201F05BF8E0B9214BA36756
:101C80009C632248224B03602E23436040238360E1
:101C90000023C3604FF48062026143618361C361CA
:101CA0004FF480320262436201F042F830B9174BC0
:101CB00063679C63DAE6FFF72FF9DFE7FFF72CF99C
:101CC000F5E700BF0010014000440040004800401C
:101CD000001401400044025800040258D068002457
:101CE00010040240E067002428040240000002586B
:101CF000000C0258746500247004024048690024F6
:101D0000880402406466002440040240686700249E
:101D1000580402402B4BD3F8F02042F02002C3F8C5
:101D2000F020D3F8F02002F020020792079AD3F8AF
:101D3000E02042F00402C3F8E020D3F8E03003F0E2
:101D400004030893089BC023099302230A930723E3
:101D50000D9309A91C4802F08DFF1C481C4B036021
:101D60004723436000238360C3604FF480620261B5
:101D700043618361C3610362436200F0D9FFD0B95C
:101D8000124BA3679C631348134B036048234360C3
:101D9000402383600023C3604FF48062026143618B
:101DA0008361C3610362436200F0C2FF30B9094B33
:101DB00063679C635AE6FFF7AFF8E1E7FFF7ACF81B
:101DC000F5E700BF0044025800080258EC65002403
:101DD000A004024058680024B80402407047000084
:101DE00030B585B00021084608F07EFE1D49002070
:101DF00008601D4A10601D4B18601D4C1D4D02955A
:101E00001D4D01950090204609F0AAFB204609F0DF
:101E100039FC94F8313013F0040F1FD1144809F045
:101E200055FC134C1549204609F0B6FC144D2022F0
:101E30000021284611F02AF82A1F124B45F8043CCD
:101E40004FF4806353611023936121460E4806F0DE
:101E500045F920460FF094F905B030BD204609F051
:101E600017FCDEE7C06B0024C46B0024C86B0024A1
:101E7000886B002461AA00087D230008DD1D00088E
:101E8000686B0024DC3E0108CD2300080020704769
:101E900010B590B0002403943022214604A810F01D
:101EA000F5FF214602290ED84A1C02EB4203980096
:101EB00004AB184401EB41018B0010A90B4443F81B
:101EC000280C1146EEE704A9184802F0C4FB48BBF1
:101ED000164C03A9204602F00FFC204602F027FC16
:101EE000039B049ABFF34F8F04E01149C1F85C22B1
:101EF0002032203B002BF8DCBFF34F8FBFF36F8FF6
:101F00000C4809F005FA034670B10B4A0261BDF8AE
:101F10000C100191049A00924122002009F006FD64
:101F200010B010BD0020FBE70020F9E7B86C0024DA
:101F300000ED00E0183D0108B921000838B505465C
:101F40004FF0FF310B4B186806F092FA0028F7D1DA
:101F500001E0002CF4D02846FFF79AFF0446002841
:101F6000F7D02B69294698470028F2D0204609F07F
:101F700049FDEEE7B400002430B58DB00C463022A8
:101F80000021684610F082FF2246002303E011681A
:101F9000F1B10133126822B3032B2DD855685800D4
:101FA000184481000CA8014441F8305C508941F884
:101FB0002C0C002BEBD0591E03EB430085006D4425
:101FC00001EB410188000CA9084440F8285CDEE7D9
:101FD00003EB430081000CA80144002041F8280CC9
:101FE000D7E7238906494B60C1F808D01422054879
:101FF00002F050FA002001E06FF00B000DB030BD90
:10200000286D0024B86C00242DE9F041A4B00546E9
:102010005D4E5E4B336000248DF8004080238DF8C8
:102020000130E1238DF802308DF803408DF8044033
:102030008DF80540C6F804D001233372544BF36089
:10204000544B336140F2F4537361304602F0CEF8E2
:102050000746DFF8608130222146404610F016FF27
:10206000212348F8043C4FF44033C8F810304A4864
:1020700009F02AF9062385F8303073681A7885F854
:102080002A205A7885F82B209A7885F82C20DA783F
:1020900085F82D201A7985F82E205B7985F82F3068
:1020A00040F2DC532B8595F8313043F00A0385F874
:1020B00031300AE0002340F2F451384A01FB042297
:1020C0002146314802F02AF90134032CF2D90022CA
:1020D0000121084606F05CF9314B186020220021EE
:1020E0001CA810F0D3FE2F4B1B934FF4AF7320931B
:1020F000302321931BAA29462B4805F0EFFF2B4CD8
:102100002B49204600F080FA204600F09CFAAFBB35
:10211000204600F0FFFA01281EDD042823D0052800
:1021200025D0032826D04FF480464FF40057164C94
:1021300002A9204602F062FC0897079602A92046F1
:1021400002F04FFD204602F00FF9284609F0A0FAF0
:10215000284609F0DBFA13E0284609F0FFFA284682
:1021600009F0B4FA0CE000264FF40057DFE7002630
:102170003746DCE74FF480460027D8E7FEF7CCFE71
:1021800024B0BDE8F08100BFB86C0024008002409C
:102190006000043000000430183D010800020430E3
:1021A000B4000024E43E01083D1F0008986C0024A0
:1021B000000000242C6D002408B50146014809F0F8
:1021C000D9F808BD183D010808B500F03FFB08BD6F
:1021D00008B5024802F012FD002008BDB86C0024CA
:1021E00008B513460A460146044802F0A3FB08B9A5
:1021F000002008BD4FF0FF30FBE700BFB86C0024A3
:1022000008B513460A460146044802F0C3FB08B964
:10221000002008BD4FF0FF30FBE700BFB86C002482
:10222000F0B58DB000230793089309930A930B939D
:102230000268484B9A4201D00DB0F0BD464BD3F82E
:10224000D82042F40042C3F8D820D3F8D82002F4B2
:1022500000420092009AD3F8D82042F48032C3F8AA
:10226000D820D3F8D82002F480320192019AD3F812
:10227000D82042F40032C3F8D820D3F8D82002F492
:1022800000320292029AD3F8E02042F00402C3F82E
:10229000E020D3F8E02002F004020392039AD3F87E
:1022A000E02042F00102C3F8E020D3F8E02002F081
:1022B00001020492049AD3F8E02042F00202C3F82B
:1022C000E020D3F8E02002F002020592059AD3F84C
:1022D000E02042F04002C3F8E020D3F8E03003F001
:1022E00040030693069B3223079302270897032691
:1022F0000A960B250B9507A9184802F0BBFC86230C
:1023000007930897002409940A960B9507A9144887
:1023100002F0B0FC4FF440530793089709940A96D3
:102320000B9507A90F4802F0A5FC4FF40063079333
:10233000089709940A960B9507A90B4802F09AFC96
:10234000224605213D2000F0A9FA3D2000F0D8FAF0
:1023500072E700BF008002400044025800080258A3
:1023600000000258000402580018025808B5024B39
:10237000186806F0C1F808BDB400002410B5044682
:1023800070B1732384F83230742384F83330084BEF
:102390006361084BA3612046FFF736FE002010BDA5
:1023A000054B40F24D220549054810F077FDE8E75E
:1023B0002D1B0108791F0008EC3E01080C3F0108A5
:1023C0001C3F010808B500F041FA08BD2DE9F041B5
:1023D0009AB004460026B046354621E02A4802F06D
:1023E00011F8204609F072F9204609F0B7F914E017
:1023F00000264FF4804801250EE04FF400564FF0C0
:102400000008012508E00026B046012504E04FF44D
:1024100000564FF48048012505BB642005F0C8FE36
:102420001A4800F077F994F8313013F0040F01D016
:102430000128D3D913F0040FEFD10128EDD90238C8
:102440000328E9D801A353F820F000BF0F240008A7
:10245000F1230008FB230008072400080A4F01A904
:10246000384602F0CBFA0796CDF8188001A9384615
:1024700002F0B7FB384601F077FF204609F008F973
:10248000204609F043F9C8E7B86C0024986C002492
:1024900070B50D461646002404E0AFF300802870A6
:1024A00001340135B442F8DB304670BD70B51646D4
:1024B000002405E04D1C0878AFF300800134294664
:1024C000B442F7DB304670BD03460B4A126842B196
:1024D000094A106803446A46934206D8064A1360C4
:1024E0007047054A05491160F2E7054B0C221A6056
:1024F0004FF0FF30704700BFBC000024D09E002486
:10250000C89E00244FF0FF3070474FF400534B60DB
:102510000020704701207047002070472E4BD3F8F1
:10252000882042F47002C3F888201A6942F0100231
:102530001A612A4B1B6803F00F03062B06D8274AA3
:10254000136823F00F0343F007031360244B1A684A
:1025500042F001021A6000221A611968214A0A40F9
:102560001A601E4B1B6803F00F03072B06D91B4A8A
:10257000136823F00F0343F007031360184B002286
:102580009A61DA611A62184999621849D962184940
:1025900019635A639963DA6319645A64196821F4F8
:1025A000802119601A66134A536A43F480435362C8
:1025B000114B1A68114B1340B3F1005F02D2104B5C
:1025C00001221A600F4B43F2D2021A60024B4FF005
:1025D00000629A60704700BF00ED00E000200052EA
:1025E000004402587FEDF6EA000202020000FF01FB
:1025F00080020101C00000580010005C0000FFFFD5
:10260000088100510040005288B1CA6892B18A68BE
:102610009AB10A69A2B10A6882604A68C260CA684F
:1026200042618A6802610A698261002070474FF046
:10263000FF3070474FF0FF3070474FF0FF3070476A
:102640004FF0FF30704770B582B00446002301930D
:10265000456875B10026A36998470546A369984760
:10266000401BB0F5FA6FF9D901236360304602B020
:1026700070BD836803B1984720232360002602E0E1
:102680006FF0040601351F2D0DD8636901AA1221D0
:10269000284698470028F3DB019B03F01F03AB4259
:1026A000F0D12560002620681F2825D836BB236975
:1026B0004FF4004200219847002825DB636901AAF6
:1026C000002120689847002821DBA3699847054628
:1026D000019B13F4004F11D0A3699847401BB0F53C
