:020000040810E2
:1000000000800410C11C1008751910087B19100815
:1000100081191008871910088D19100800000000B8
:10002000000000000000000000000000717E1008C9
:100030009319100800000000B18010081981100801
:10004000111D1008111D1008111D1008111D100898
:10005000111D1008111D1008111D1008111D100888
:10006000111D1008111D1008111D1008A1191008EC
:10007000B5191008111D1008111D1008111D1008C8
:10008000111D1008111D1008111D1008111D100858
:10009000111D1008111D1008111D1008111D100848
:1000A000111D1008111D1008111D1008111D100838
:1000B000111D1008111D1008111D1008111D100828
:1000C000111D1008111D1008111D1008C919100864
:1000D000111D1008111D1008111D1008111D100808
:1000E000111D1008111D100800000000111D10083E
:1000F000DD191008111D1008111D1008111D100820
:10010000111D1008111D1008111D1008111D1008D7
:10011000111D1008111D1008111D1008111D1008C7
:10012000111D1008111D1008F1191008051A1008EA
:10013000111D1008111D1008111D1008111D1008A7
:10014000111D1008111D1008000000000000000023
:10015000111D1008111D1008111D1008111D100887
:10016000111D1008111D1008111D1008111D100877
:10017000111D1008111D1008111D100800000000AD
:10018000111D1008111D1008111D1008111D100857
:10019000111D1008111D1008111D1008111D100847
:1001A000111D1008111D1008111D1008111D100837
:1001B000111D1008111D1008111D1008111D100827
:1001C000111D1008111D1008111D1008111D100817
:1001D000111D1008111D1008111D1008111D100807
:1001E000111D1008111D1008111D1008111D1008F7
:1001F000111D1008111D1008111D1008111D1008E7
:10020000111D1008111D1008111D1008111D1008D6
:10021000111D1008111D1008111D1008111D1008C6
:10022000111D1008111D1008111D100800000000FC
:10023000111D1008111D1008111D1008111D1008A6
:10024000111D1008111D1008111D1008111D100896
:10025000111D1008111D1008111D1008111D100886
:10026000111D1008111D1008111D1008111D100876
:10027000111D1008111D1008111D1008111D100866
:10028000111D1008111D1008111D1008000000009C
:08029000111D1008111D1008DA
:1002A00010B5054C237833B9044B13B10448AFF3B0
:1002B00000800123237010BDFC010010000000002D
:1002C00060BE100808B5034B1BB103490348AFF3E8
:1002D000008008BD000000000002001060BE100891
:1002E000034613F8012B002AFBD1181A0138704776
:1002F00081F0004102E000BF83F0004330B54FEAD7
:1003000041044FEA430594EA050F08BF90EA020F43
:100310001FBF54EA000C55EA020C7FEA645C7FEAD6
:10032000655C00F0E2804FEA5454D4EB5555B8BFF9
:100330006D420CDD2C4480EA020281EA030382EA6A
:10034000000083EA010180EA020281EA0303362DFC
:1003500088BF30BD11F0004F4FEA01314FF4801CCF
:100360004CEA113102D0404261EB410113F0004FE1
:100370004FEA03334CEA133302D0524263EB430398
:1003800094EA050F00F0A780A4F10104D5F1200E36
:100390000DDB02FA0EFC22FA05F2801841F1000191
:1003A00003FA0EF2801843FA05F359410EE0A5F165
:1003B00020050EF1200E012A03FA0EFC28BF4CF096
:1003C000020C43FA05F3C01851EBE37101F000454C
:1003D00007D54FF0000EDCF1000C7EEB00006EEB59
:1003E0000101B1F5801F1BD3B1F5001F0CD34908E3
:1003F0005FEA30004FEA3C0C04F101044FEA44523A
:1004000012F5800F80F09A80BCF1004F08BF5FEAC0
:10041000500C50F1000041EB045141EA050130BDA0
:100420005FEA4C0C404141EB010111F4801FA4F143
:100430000104E9D191F0000F04BF01460020B1FA98
:1004400081F308BF2033A3F10B03B3F120020CDAD0
:100450000C3208DD02F1140CC2F10C0201FA0CF0AE
:1004600021FA02F10CE002F11402D8BFC2F1200C13
:1004700001FA02F120FA0CFCDCBF41EA0C019040C9
:10048000E41AA2BF01EB0451294330BD6FEA040412
:100490001F3C1CDA0C340EDC04F11404C4F12002FD
:1004A00020FA04F001FA02F340EA030021FA04F30F
:1004B00045EA030130BDC4F10C04C4F1200220FA66
:1004C00002F001FA04F340EA0300294630BD21FAA4
:1004D00004F0294630BD94F0000F83F4801306BF6A
:1004E00081F480110134013D4EE77FEA645C18BF5E
:1004F0007FEA655C29D094EA050F08BF90EA020FF5
:1005000005D054EA000C04BF1946104630BD91EAEC
:10051000030F1EBF0021002030BD5FEA545C05D1EF
:100520004000494128BF41F0004130BD14F580042E
:100530003CBF01F5801130BD01F0004545F0FE41A2
:1005400041F470014FF0000030BD7FEA645C1ABFD7
:10055000194610467FEA655C1CBF0B46024650EA0E
:10056000013406BF52EA033591EA030F41F400213A
:1005700030BD00BF90F0000F04BF0021704730B5C0
:100580004FF4806404F132044FF000054FF0000195
:1005900050E700BF90F0000F04BF0021704730B556
:1005A0004FF4806404F1320410F0004548BF40422B
:1005B0004FF000013EE700BF42004FEAE2014FEA80
:1005C00031014FEA02701FBF12F07F4393F07F4F5B
:1005D00081F06051704732F07F4208BF704793F05E
:1005E0007F4F04BF41F40021704730B54FF4607471
:1005F00001F0004521F000411CE700BF50EA010274
:1006000008BF704730B54FF000050AE050EA01021C
:1006100008BF704730B511F0004502D5404261EB8C
:1006200041014FF4806404F132045FEA915C3FF4CD
:10063000D8AE4FF003025FEADC0C18BF03325FEA6A
:10064000DC0C18BF033202EBDC02C2F1200300FA1B
:1006500003FC20FA02F001FA03FE40EA0E0021FA40
:1006600002F11444BDE600BF70B54FF0FF0C4CF42E
:10067000E06C1CEA11541DBF1CEA135594EA0C0FE0
:1006800095EA0C0F00F0DEF82C4481EA030621EA1B
:100690004C5123EA4C5350EA013518BF52EA033556
:1006A00041F4801143F4801338D0A0FB02CE4FF008
:1006B0000005E1FB02E506F00042E0FB03E54FF038
:1006C0000006E1FB03569CF0000F18BF4EF0010E30
:1006D000A4F1FF04B6F5007F64F5407404D25FEA2C
:1006E0004E0E6D4146EB060642EAC62141EA5551DF
:1006F0004FEAC52040EA5E504FEACE2EB4F1FD0C21
:1007000088BFBCF5E06F1ED8BEF1004F08BF5FEA9E
:10071000500E50F1000041EB045170BD06F0004650
:1007200046EA010140EA020081EA0301B4EB5C04FD
:10073000C2BFD4EB0C0541EA045170BD41F48011F5
:100740004FF0000E013C00F3AB8014F1360FDEBF1A
:10075000002001F0004170BDC4F10004203C35DAF6
:100760000C341BDC04F11404C4F1200500FA05F379
:1007700020FA04F001FA05F240EA020001F000421A
:1007800021F0004110EBD37021FA04F642EB060190
:100790005EEA430E08BF20EAD37070BDC4F10C04BA
:1007A000C4F1200500FA04F320FA05F001FA04F27E
:1007B00040EA020001F0004110EBD37041F100016A
:1007C0005EEA430E08BF20EAD37070BDC4F1200575
:1007D00000FA05F24EEA020E20FA04F301FA05F2DD
:1007E00043EA020321FA04F001F0004121FA04F285
:1007F00020EA020000EBD3705EEA430E08BF20EA55
:10080000D37070BD94F0000F0FD101F0004640008E
:1008100041EB010111F4801F08BF013CF7D041EA10
:10082000060195F0000F18BF704703F00046520014
:1008300043EB030313F4801F08BF013DF7D043EAE5
:100840000603704794EA0C0F0CEA135518BF95EA9B
:100850000C0F0CD050EA410618BF52EA4306D1D122
:1008600081EA030101F000414FF0000070BD50EA41
:10087000410606BF1046194652EA430619D094EACB
:100880000C0F02D150EA013613D195EA0C0F05D1B5
:1008900052EA03361CBF104619460AD181EA030109
:1008A00001F0004141F0FE4141F470014FF00000C1
:1008B00070BD41F0FE4141F4780170BD70B54FF05C
:1008C000FF0C4CF4E06C1CEA11541DBF1CEA1355DC
:1008D00094EA0C0F95EA0C0F00F0A7F8A4EB0504BE
:1008E00081EA030E52EA03354FEA013100F08880B5
:1008F0004FEA03334FF0805545EA131343EA12637E
:100900004FEA022245EA111545EA10654FEA002632
:100910000EF000419D4208BF964244F1FD0404F5EB
:10092000407402D25B084FEA3202B61A65EB030547
:100930005B084FEA32024FF480104FF4002CB6EB04
:10094000020E75EB030E22BFB61A754640EA0C0084
:100950005B084FEA3202B6EB020E75EB030E22BFC4
:10096000B61A754640EA5C005B084FEA3202B6EB05
:10097000020E75EB030E22BFB61A754640EA9C00C4
:100980005B084FEA3202B6EB020E75EB030E22BF94
:10099000B61A754640EADC0055EA060E18D04FEA52
:1009A000051545EA16754FEA06164FEAC30343EAF2
:1009B00052734FEAC2025FEA1C1CC0D111F4801FBF
:1009C0000BD141EA00014FF000004FF0004CB6E7B8
:1009D00011F4801F04BF01430020B4F1FD0C88BF57
:1009E000BCF5E06F3FF6AFAEB5EB030C04BFB6EB62
:1009F000020C5FEA500C50F1000041EB045170BD55
:100A00000EF0004E4EEA113114EB5C04C2BFD4EB81
:100A10000C0541EA045170BD41F480114FF0000E05
:100A2000013C90E645EA060E8DE60CEA135594EA81
:100A30000C0F08BF95EA0C0F3FF43BAF94EA0C0F84
:100A40000AD150EA01347FF434AF95EA0C0F7FF4F9
:100A500025AF104619462CE795EA0C0F06D152EA4D
:100A600003353FF4FDAE1046194622E750EA410631
:100A700018BF52EA43067FF4C5AE50EA41047FF442
:100A80000DAF52EA43057FF4EBAE12E74FF0FF3CA7
:100A900006E000BF4FF0010C02E000BF4FF0010C78
:100AA0004DF804CD4FEA410C7FEA6C5C4FEA430CF1
:100AB00018BF7FEA6C5C1BD001B050EA410C0CBF40
:100AC00052EA430C91EA030F02BF90EA020F0020A2
:100AD000704710F1000F91EA030F58BF994208BF09
:100AE00090422CBFD8176FEAE37040F001007047C6
:100AF0004FEA410C7FEA6C5C02D150EA013C07D11D
:100B00004FEA430C7FEA6C5CD6D152EA033CD3D067
:100B10005DF8040B704700BF8446104662468C4661
:100B20001946634600E000BF01B5FFF7B7FF002894
:100B300048BF10F1000F01BD4DF808EDFFF7F4FFBD
:100B40000CBF012000205DF808FB00BF4DF808ED48
:100B5000FFF7EAFF34BF012000205DF808FB00BF6B
:100B60004DF808EDFFF7E0FF94BF012000205DF88D
:100B700008FB00BF4DF808EDFFF7CEFF94BF012042
:100B800000205DF808FB00BF4DF808EDFFF7C4FF3B
:100B900034BF012000205DF808FB00BF4FEA410C84
:100BA0007FEA6C5C02D150EA013C0AD14FEA430C67
:100BB0007FEA6C5C02D152EA033C02D14FF00000A4
:100BC00070474FF0010070474FEA410212F50012E2
:100BD00015D211D56FF47873B3EB625212D94FEA84
:100BE000C12343F0004343EA505311F0004F23FA6E
:100BF00002F018BF404270474FF00000704750EAC3
:100C0000013005D111F0004008BF6FF0004070477F
:100C10004FF00000704700BF53B94AB9002908BF20
:100C200000281CBF4FF0FF314FF0FF3000F072B9C9
:100C3000ADF1080C6DE904CE00F006F8DDF804E033
:100C4000DDE9022304B070472DE9F047089E044611
:100C50008846002B4BD18A42154667D9B2FA82F2F8
:100C60004AB1C2F1200701FA02F320FA07F79540D2
:100C700047EA030894404FEA154E230CB8FBFEF7F1
:100C80001FFA85FC0EFB178843EA084307FB0CF1AB
:100C9000994209D9EB1807F1FF3080F01B81994286
:100CA00040F21881023F2B445B1AA4B2B3FBFEF062
:100CB0000EFB103344EA034400FB0CFCA44509D9A5
:100CC0002C1900F1FF3380F00781A44540F2048124
:100CD00002382C4440EA0740A4EB0C0400271EB164
:100CE000D4400023C6E900433946BDE8F0878B4273
:100CF00009D9002E00F0EB800027C6E90001384634
:100D00003946BDE8F087B3FA83F7002F47D18B420D
:100D100002D3824200F2FA80841A61EB03030120BD
:100D20009846002EE0D0C6E90048DDE702B9FFDEB4
:100D3000B2FA82F2002A40F08F80491B4FEA154E2A
:100D40001FFA85F80127B1FBFEFC230C0EFB1C11DA
:100D500043EA014308FB0CF1994207D9EB180CF167
:100D6000FF3002D2994200F2CD808446591AA3B2D4
:100D7000B1FBFEF00EFB101443EA044408FB00F83C
:100D8000A04507D92C1900F1FF3302D2A04500F28B
:100D9000B6801846A4EB080440EA0C409FE7C7F170
:100DA000200CBB4022FA0CFE4EEA030E01FA07F4B7
:100DB00020FA0CF521FA0CF34FEA1E482543B3FB49
:100DC000F8F92C0C08FB19331FFA8EFA44EA034396
:100DD00009FB0AF49C4202FA07F200FA07F10BD968
:100DE0001EEB030309F1FF3080F087809C4240F244
:100DF0008480A9F1020973441B1BADB2B3FBF8F068
:100E000008FB103345EA034400FB0AFAA24508D95F
:100E10001EEB040400F1FF336BD2A24569D90238FE
:100E2000744440EA0940A0FB0289A4EB0A044C4543
:100E3000C2464B4654D351D0002E69D0B1EB0A05BF
:100E400064EB030404FA0CFCFD40FC404CEA05058D
:100E5000C6E90054002747E7C2F1200320FA03F750
:100E6000954001FA02F021FA03F34FEA154E384398
:100E7000010CB3FBFEF71FFA85F80EFB173341EAAE
:100E8000034107FB08F38B4204FA02F407D96918FF
:100E900007F1FF3C2FD28B422DD9023F2944CB1AB8
:100EA00081B2B3FBFEF00EFB103341EA034100FBBD
:100EB00008F38B4207D9691800F1FF3C17D28B4227
:100EC00015D902382944C91A40EA07473BE7374693
:100ED000304609E70746E7E61846FBE64145ABD250
:100EE000B8EB020A69EB0E0201381346A4E760462C
:100EF000E9E7184695E76746D1E781467CE702387F
:100F00002C4447E7ACF1020C2B442FE7384608E7A6
:100F10003746E9E6704700BF80B400AF0B4BD3F80B
:100F200088300A4A43F47003C2F88830074B1B69C3
:100F3000064A43F010031361044B4FF001629A60BC
:100F400000BFBD465DF8047B704700BF00ED00E0C8
:100F500080B582B000AF214BD3F8D8301F4A43F0A0
:100F60000103C2F8D8301D4BD3F8D83003F0010389
:100F70007B607B68194BD3F8D830184A43F00203E2
:100F8000C2F8D830154BD3F8D83003F002033B60D9
:100F90003B68002205210B2000F0F2FF0B2001F03E
:100FA00009F8002205210C2000F0EAFF0C2001F0D6
:100FB00001F8002205213A2000F0E2FF3A2000F07B
:100FC000F9FF002205213B2000F0DAFF3B2000F072
:100FD000F1FF00BF0837BD4680BD00BF0044025886
:100FE00080B500AF2E4B2F4A1A602D4B00229A601D
:100FF0002B4B0022DA602A4B00221A74284B002265
:101000005A74274B00229A74254B01225A61244BB3
:1010100001229A61224B0222DA61214B02221A62DA
:101020001F4B01225A621E4B01229A621C4B012265
:10103000DA621B4B01221A63194B00225A63184BC8
:1010400000229A63164B0022DA63154B00221A64C1
:10105000134B04225A64124B00229A64104B042250
:10106000DA640F4B00221A650D4B04225A650C4BB3
:1010700000229A650A4B0022DA65094B00221A66A3
:10108000074B00225A66064B04229A66044802F077
:10109000B7FE0346002B01D000F02CFA00BF80BD44
:1010A000FC4B001000A0004080B58AB000AF786013
:1010B00007F1140300221A605A609A60DA601A611C
:1010C0007B681B681A4A93422ED11A4BD3F8EC3036
:1010D000184A43F48073C2F8EC30164BD3F8EC3066
:1010E00003F480733B613B69124BD3F8E030114A43
:1010F00043F00103C2F8E0300E4BD3F8E03003F0C8
:101100000103FB60FB684FF4C0537B610223BB61AA
:101110000023FB6103233B6209237B6207F1140375
:101120001946054803F0DEF900BF2837BD4680BDEB
:1011300000A00040004402580000025880B500AFF3
:1011400008F0D4FF00BF80BD80B485B000AF214B54
:10115000D3F8E0301F4A43F02003C2F8E0301D4BC3
:10116000D3F8E03003F02003FB60FB68194BD3F8A1
:10117000E030184A43F00103C2F8E030154BD3F8D1
:10118000E03003F00103BB60BB68124BD3F8E030E2
:10119000104A43F00803C2F8E0300E4BD3F8E030B9
:1011A00003F008037B607B680A4BD3F8E030094A00
:1011B00043F00203C2F8E030064BD3F8E03003F00E
:1011C00002033B603B6800BF1437BD465DF8047BFB
:1011D000704700BF0044025880B500AF1C4B1D4A49
:1011E0001A601B4B1C4A5A60194B00229A60184B1C
:1011F0000122DA60164B00221A61154B00225A6157
:10120000134B00229A61124B0022DA61104B00222C
:101210001A620F4803F028FB0346002B01D000F0B0
:1012200069F900210A4803F0AEFB0346002B01D008
:1012300000F060F90021064803F0F0FB0346002BA4
:1012400001D000F057F9012003F034FC00BF80BD4D
:10125000E84C0010005400404212400080B500AF3E
:101260001B4B1C4A1A601A4B1B4A5A60184B00222F
:101270009A60174B0122DA60154B00221A61144B59
:1012800000225A61124B00229A61114B0022DA614E
:101290000F4B00221A620E4803F0E6FA0346002BB9
:1012A00001D000F027F90021094803F06CFB034648
:1012B000002B01D000F01EF90021054803F0AEFB21
:1012C0000346002B01D000F015F900BF80BD00BF20
:1012D0009C4C0010001C0058FFECC01080B58CB076
:1012E00000AF786007F11C0300221A605A609A6010
:1012F000DA601A617B681B68354A93422FD1354BFF
:10130000D3F8E030334A43F00203C2F8E030314B07
:10131000D3F8E03003F00203BB61BB694FF41073F4
:10132000FB6112233B6200237B620023BB62042328
:10133000FB6207F11C031946274803F0D3F8254B3D
:10134000D3F8E830234A43F40013C2F8E830214BC5
:10135000D3F8E83003F400137B617B6933E07B68EA
:101360001B681E4A93422ED11A4BD3F8E030194A1B
:1013700043F02003C2F8E030164BD3F8E03003F01E
:1013800020033B613B694FF44043FB6112233B6206
:1013900000237B620023BB620423FB6207F11C0372
:1013A00019460F4803F09EF80A4BD3F8F430094A67
:1013B00043F08003C2F8F430064BD3F8F43003F066
:1013C0008003FB60FB6800BF3037BD4680BD00BFB7
:1013D000005400400044025800040258001C005809
:1013E0000014025880B500AF0B4B0C4A1A600A4B30
:1013F00000225A60084B40F6FF72DA60064B40F656
:10140000FF729A60044803F079FB0346002B01D079
:1014100000F070F800BF80BD344D0010004C005843
:1014200080B582B000AF274BD3F8E030254A43F0B7
:101430000073C2F8E030234BD3F8E03003F00073C0
:101440007B607B68012003F0FDF903F023FC01229F
:101450000221002003F0A8FB1B4B1B681B0903F0B3
:101460000F03072B08D1194BD3F80431174A43F067
:101470000103C2F8043107E0144BD3F81431134AC6
:1014800043F00103C2F8143100F044FCFFF75CFEA6
:10149000FFF75EFDFFF7A4FDFFF7A4FF00F084F85F
:1014A00005F0BCFFFFF798FEFFF7D8FE00F026F826
:1014B00000F00AFB06F07EF8FFF740FE06F0AEF8FB
:1014C000FEE700BF0044025800ED00E0006402584F
:1014D00080B582B000AF78607B681B68044A934295
:1014E00001D100F075FC00BF0837BD4680BD00BFCC
:1014F0000004014080B400AF72B6FEE780B500AFD3
:10150000274B284A1A60264B4FF480025A60244B1E
:1015100000229A60224B0322DA60214B00221A61DA
:101520001F4B00225A611E4B4FF080629A611C4B88
:101530004FF08052DA611A4B00221A62184B0022D7
:101540005A62174B00229A62154B0022DA62144B42
:101550004FF080425A63124B00229A63104B0022D4
:10156000DA630F4B00221A640D4B00225A640C4BB5
:1015700000229A640A4B0022DA64094B00221A65A1
:10158000074B00225A65064B00229A65044804F076
:101590004FF80346002B01D0FFF7ACFF00BF80BD22
:1015A000CC4D00100030014080B500AF274B284AD9
:1015B0001A60264B4FF480025A60244B00229A6036
:1015C000224B0322DA60214B00221A611F4B0022BA
:1015D0005A611E4B4FF080629A611C4B0022DA6107
:1015E0001A4B00221A62194B00225A62174B002232
:1015F0009A62164B0022DA62144B4FF080425A6313
:10160000124B00229A63114B0022DA630F4B002227
:101610001A640E4B00225A640C4B00229A640B4B46
:101620000022DA64094B00221A65084B00225A6531
:10163000064B00229A65054803F0FAFF0346002B8B
:1016400001D0FFF757FF00BF80BD00BF444D001021
:101650000050014080B58CB000AF786007F11C03EA
:1016600000221A605A609A60DA601A617B681B680F
:10167000764A934240F0B280754BD3F8F030744A0A
:1016800043F48053C2F8F030714BD3F8F03003F4D8
:101690008053BB61BB696E4BD3F8E0306C4A43F0BA
:1016A0000103C2F8E0306A4BD3F8E03003F00103E5
:1016B0007B617B69664BD3F8E030654A43F00803F1
:1016C000C2F8E030624BD3F8E03003F008033B612E
:1016D0003B696023FB6102233B6200237B620023A2
:1016E000BB620523FB6207F11C031946594802F04F
:1016F000F9FE8023FB6102233B6200237B6200230F
:10170000BB620523FB6207F11C031946524802F035
:10171000E9FE524B524A1A60504B25225A604F4BF9
:1017200000229A604D4B0022DA604C4B4FF48062ED
:101730001A614A4B00225A61484B00229A61474B7A
:101740000022DA61454B4FF440321A62434B0022CB
:101750005A62424800F050FC0346002B01D0FFF7CC
:10176000C9FE7B683D4ADA673C4A7B6893633D4B20
:101770003D4A1A603B4B26225A603A4B40229A60FF
:10178000384B0022DA60374B4FF480621A61354BD8
:1017900000225A61334B00229A61324B0022DA61F7
:1017A000304B4FF440321A622E4B00225A622D48C1
:1017B00000F022FC0346002B01D0FFF79BFE7B6864
:1017C000284A9A67274A7B689363002205212320D1
:1017D00000F0D6FB232000F0EDFB33E07B681B68B4
:1017E000224A93422ED11A4BD3F8F030184A43F4D0
:1017F0008013C2F8F030164BD3F8F03003F48013A6
:10180000FB60FB68124BD3F8E030114A43F0200331
:10181000C2F8E0300E4BD3F8E03003F02003BB6099
:10182000BB684FF41863FB6102233B6200237B62B9
:101830000023BB620523FB6207F11C0319460C4819
:1018400002F050FE00BF3037BD4680BD0030014081
:101850000044025800000258000C0258544E001078
:1018600010000240CC4E0010280002400050014001
:101870000014025880B582B000AF0C4BD3F8F4309E
:101880000A4A43F00203C2F8F430084BD3F8F430AC
:1018900003F002037B607B6800220F216FF00100E0
:1018A00000F06EFB00BF0837BD4680BD0044025803
:1018B00080B58EB000AF78607B680F2B44D80022D3
:1018C00079682C2000F05CFB2C2000F073FB244A8C
:1018D0007B681360234BD3F8F030224A43F00203B5
:1018E000C2F8F0301F4BD3F8F03003F00203BB60B6
:1018F000BB6807F10C0207F110031146184603F00C
:10190000A7FB03F08FFB03465B007B637B6B164AF0
:10191000A2FB03239B0C013B3B63144B144A1A604C
:10192000124B40F2E732DA60104A3B6B53600F4BC8
:1019300000221A610D4B00229A600C4804F04FFA05
:101940000346002B07D101E0012305E0074804F01E
:10195000A7FA034600E0012318463837BD4680BD8C
:10196000080000100044025883DE1B43444F00105F
:101970000004014080B400AFFEE780B400AFFEE792
:1019800080B400AFFEE780B400AFFEE780B400AFE4
:10199000FEE780B400AF00BFBD465DF8047B704732
:1019A00080B500AF024801F0C5F800BF80BD00BFA0
:1019B000544E001080B500AF024801F0BBF800BFE4
:1019C00080BD00BFCC4E001080B500AF024803F0D0
:1019D00027FF00BF80BD00BFCC4D001080B500AF19
:1019E000024804F093FA00BF80BD00BF444F0010CE
:1019F00080B500AF024801F09DF800BF80BD00BF78
:101A0000904F001080B500AF024801F093F800BF7E
:101A100080BD00BF9450001080B400AF0123184671
:101A2000BD465DF8047B704780B582B000AF78603A
:101A3000396008F015FC0246162313604FF0FF339F
:101A400018460837BD4680BD80B582B000AF7860CB
:101A50004FF0FF317868FFF7E7FFFEE780B586B00B
:101A600000AF7860144A154BD31A7B617B693B61E8
:101A7000134B1B68002B02D1114B124A1A60104BFA
:101A80001A687B6813443A699A4207D208F0E8FB67
:101A900002460C2313604FF0FF3309E0084B1B682C
:101AA000FB60074B1A687B681344054A1360FB68A8
:101AB00018461837BD4680BD0080041000040000A1
:101AC00018020010C055001080B500AF224B234A09
:101AD0001A60214B4FF4E1325A601F4B00229A608A
:101AE0001D4B0022DA601C4B00221A611A4B0C229B
:101AF0005A61194B00229A61174B0022DA61164B8A
:101B000000221A62144B00225A62134B00229A627E
:101B1000114804F0FBFB0346002B01D0FFF7EAFC61
:101B200000210D4805F095FB0346002B01D0FFF77F
:101B3000E1FC0021084805F0CAFB0346002B01D058
:101B4000FFF7D8FC044805F04BFB0346002B01D0FF
:101B5000FFF7D0FC00BF80BD0850001000480040D7
:101B600080B58AB000AF786007F1140300221A60D4
:101B70005A609A60DA601A617B681B68494A93422E
:101B800040F08B80484BD3F8E830474A43F4802339
:101B9000C2F8E830444BD3F8E83003F480233B61CB
:101BA0003B69414BD3F8E0303F4A43F00803C2F8A9
:101BB000E0303D4BD3F8E03003F00803FB60FB68F6
:101BC0004FF440737B610223BB610023FB61002360
:101BD0003B6207237B6207F114031946334802F086
:101BE00081FC334B334A1A60314B2D225A60304B03
:101BF00000229A602E4B0022DA602D4B4FF4806257
:101C00001A612B4B00225A61294B00229A61284B02
:101C10000022DA61264B4FF480321A62244B0022F4
:101C20005A62234800F0E8F90346002B01D0FFF781
:101C300061FC7B681E4A9A671D4A7B6893631E4B52
:101C40001E4A1A601C4B2E225A601B4B40229A607F
:101C5000194B0022DA60184B4FF480621A61164B60
:101C600000225A61144B00229A61134B0022DA6160
:101C7000114B4FF480321A620F4B00225A620E4809
:101C800000F0BAF90346002B01D0FFF733FC7B6864
:101C9000094A5A67084A7B68936300BF2837BD46E4
:101CA00080BD00BF0048004000440258000C0258AC
:101CB000904F00104004024094500010580402401D
:101CC000DFF834D0FFF728F9002103E00B4B5B5815
:101CD000435004310A480B4B42189A42F6D30A4A41
:101CE00002E0002342F8043B084B9A42F9D308F083
:101CF000BDFAFFF795FB704700800410E0C11008A3
:101D000000000010FC010010FC010010C055001084
:101D1000FEE7000080B582B000AF284BD3F8D83082
:101D2000264A43F48043C2F8D830244BD3F8D83045
:101D300003F480433B603B68214B1B6823F47F2303
:101D400023F470631E4A43F4014313601C4B1B6869
:101D50001B4A43F001031360032000F006F902F070
:101D6000A7FF0146154B9B691B0A03F00F03154A99
:101D7000D35C03F01F0321FA03F37B600F4B9B69D5
:101D800003F00F030F4AD35C03F01F037A6822FAB3
:101D900003F30D4A13600C4B1B680C4A13600020C0
:101DA000FFF786FD0346002B01D0012302E0FFF779
:101DB00061FD002318460837BD4680BD0044025827
:101DC00000440240F8BE100804000010000000109B
:101DD00080B400AF064B1B781A46064B1B681344B1
:101DE000044A136000BFBD465DF8047B704700BF26
:101DF0000C0000100C51001080B400AF034B1B68A6
:101E00001846BD465DF8047B704700BF0C510010BA
:101E100080B485B000AF78607B6803F00703FB6097
:101E20000C4BDB68BB60BA684FF6FF031340BB6026
:101E3000FB681A02BB68134343F0BF6343F40033EB
:101E4000BB60044ABB68D36000BF1437BD465DF871
:101E5000047B704700ED00E080B400AF044BDB680A
:101E60001B0A03F007031846BD465DF8047B704764
:101E700000ED00E080B483B000AF0346FB80B7F90B
:101E80000630002B0BDBFB8803F01F020749B7F974
:101E900006305B09012000FA02F241F8232000BF5E
:101EA0000C37BD465DF8047B704700BF00E100E0E1
:101EB00080B483B000AF03463960FB80B7F90630C9
:101EC000002B0ADB3B68DAB20C49B7F90630120185
:101ED000D2B20B4483F800230AE03B68DAB2084927
:101EE000FB8803F00F03043B1201D2B20B441A76B5
:101EF00000BF0C37BD465DF8047B704700E100E091
:101F000000ED00E080B489B000AFF860B9607A609D
:101F1000FB6803F00703FB61FB69C3F10703042BB4
:101F200028BF0423BB61FB690433062B02D9FB697C
:101F3000033B00E000237B614FF0FF32BB6902FAF4
:101F400003F3DA43BB681A407B699A404FF0FF31D4
:101F50007B6901FA03F3D9437B680B4013431846AE
:101F60002437BD465DF8047B704780B582B000AF72
:101F700078607868FFF74CFF00BF0837BD4680BD2A
:101F800080B586B000AF0346B9607A60FB81FFF789
:101F900063FF78617A68B9687869FFF7B3FF024632
:101FA000B7F90E3011461846FFF782FF00BF183709
:101FB000BD4680BD80B582B000AF0346FB80B7F957
:101FC00006301846FFF756FF00BF0837BD4680BDF4
:101FD00080B400AF074B1B681B0903F00F03072BEE
:101FE00001D1032300E001231846BD465DF8047BC0
:101FF000704700BF00ED00E080B586B000AF7860AC
:10200000FFF7FAFE38617B68002B01D1012314E34E
:102010007B681B68664A93424AD07B681B68654AA6
:10202000934245D07B681B68634A934240D07B68EB
:102030001B68624A93423BD07B681B68604A9342AC
:1020400036D07B681B685F4A934231D07B681B683F
:102050005D4A93422CD07B681B685C4A934227D030
:102060007B681B685A4A934222D07B681B68594A96
:1020700093421DD07B681B68574A934218D07B68F7
:102080001B68564A934213D07B681B68544A93429C
:102090000ED07B681B68534A934209D07B681B684B
:1020A000514A934204D07B681B68504A934201D145
:1020B000012300E00023002B00F03B817B6800221D
:1020C00083F834207B68022283F835207B681B6804
:1020D000374A93424AD07B681B68364A934245D0C0
:1020E0007B681B68344A934240D07B681B68334A44
:1020F00093423BD07B681B68314A934236D07B6861
:102100001B68304A934231D07B681B682E4A934249
:102110002CD07B681B682D4A934227D07B681B68B4
:102120002B4A934222D07B681B682A4A93421DD0D7
:102130007B681B68284A934218D07B681B68274A33
:10214000934213D07B681B68254A93420ED07B686C
:102150001B68244A934209D07B681B68224A934239
:1021600004D07B681B68214A934208D17B681B68B6
:102170001A687B681B6822F001021A6007E07B681E
:102180001B681A687B681B6822F001021A602FE046
:10219000FFF732FE02463B69D31A052B28D97B682C
:1021A00020225A657B68032283F83520012344E20C
:1021B0001000024028000240400002405800024047
:1021C0007000024088000240A0000240B8000240B7
:1021D0001004024028040240400402405804024017
:1021E0007004024088040240A0040240B804024087
:1021F0007B681B681B6803F00103002BC8D17B6858
:102200001B681B687B617A69844B13407B617B6828
:102210009A687B68DB681A437B681B691A437B6892
:102220005B691A437B689B691A437B68DB691A43C5
:102230007B681B6A13437A6913437B617B685B6A23
:10224000042B07D17B68DA6A7B681B6B13437A69BE
:1022500013437B61724B1B681B0C1B04B3F1005FC3
:1022600028D37B685B68282B03D97B685B682E2B9F
:1022700017D97B685B683E2B03D97B685B68422B70
:102280000FD97B685B68462B03D97B685B68482B5A
:1022900007D97B685B684E2B05D97B685B68522B3E
:1022A00001D8012300E00023002B03D07B6943F415
:1022B00080137B617B681B687A691A607B681B6886
:1022C0005B697B617B6923F007037B617B685B6AE9
:1022D0007A6913437B617B685B6A042B17D17B6847
:1022E0009B6A7A6913437B617B68DB6A002B0ED0A3
:1022F000786801F0FBFB0346002B08D07B68402286
:102300005A657B68012283F83520012395E17B68BB
:102310001B687A695A61786801F036FB0346BB6036
:102320007B68DB6D03F01F033F229A40BB689A6015
:10233000CBE07B681B683B4A934222D07B681B68DA
:10234000394A93421DD07B681B68384A934218D0A3
:102350007B681B68364A934213D07B681B68354AFA
:1023600093420ED07B681B68334A934209D07B6846
:102370001B68324A934204D07B681B68304A934200
:1023800001D1012300E00023002B00F095807B6841
:102390001B68244A934221D07B681B68224A9342DF
:1023A0001CD07B681B68214A934217D07B681B684E
:1023B0001F4A934212D07B681B681E4A93420DD07D
:1023C0007B681B681C4A934208D07B681B681B4AC9
:1023D000934203D07B681B68194A934200BF7B6815
:1023E000002283F834207B68022283F835207B6842
:1023F0001B681B687B617B6923F4FF3323F4F8734C
:102400007B617B689B68402B1CD07B689B68802B22
:1024100002D14FF4804316E0002314E03F8010FE09
:102420000010005C085402581C54025830540258E2
:1024300044540258585402586C540258805402585C
:102440009454025810237A68D268D2081A437B68E1
:102450001B69DB081A437B685B69DB081A437B68EE
:102460009B69DB081A437B68DB69DB081A437B68DE
:102470001B6A1B0913437A6913437B617B681B68E2
:102480007A691A607B681B681A466E4B13446E4A61
:10249000A2FB03231B099A007B68DA65786801F0C8
:1024A00073FA0346FB607B68DB6D03F01F030122B8
:1024B0009A40FB685A6008E07B6840225A657B6856
:1024C000032283F835200123B7E07B681B685F4A4D
:1024D000934272D07B681B685D4A93426DD07B68E3
:1024E0001B685C4A934268D07B681B685A4A9342D7
:1024F00063D07B681B68594A93425ED07B681B6837
:10250000574A934259D07B681B68564A934254D02D
:102510007B681B68544A93424FD07B681B68534AC0
:1025200093424AD07B681B68514A934245D07B68EE
:102530001B68504A934240D07B681B684E4A9342C6
:102540003BD07B681B684D4A934236D07B681B6842
:102550004B4A934231D07B681B684A4A93422CD045
:102560007B681B68484A934227D07B681B68474AB0
:10257000934222D07B681B68454A93421DD07B68FA
:102580001B68444A934218D07B681B68424A9342B6
:1025900013D07B681B68414A93420ED07B681B684E
:1025A0003F4A934209D07B681B683E4A934204D05D
:1025B0007B681B683C4A934201D1012300E0002361
:1025C000002B32D0786801F00DFB7B689B68802B74
:1025D00002D17B6800225A607B685A687B681B6E58
:1025E000D2B21A607B685B6E7A68926E5A607B68C2
:1025F0005B68002B10D07B685B68082B0CD8786870
:1026000001F08AFB7B68DB6E00221A607B681B6F1F
:102610007A68526F5A6008E07B680022DA667B684D
:1026200000221A677B6800225A677B6800225A657D
:102630007B68012283F83520002318461837BD46F1
:1026400080BD00BFF8ABFDA7CDCCCCCC10000240C4
:102650002800024040000240580002407000024042
:1026600088000240A0000240B8000240100402406E
:102670002804024040040240580402407004024012
:1026800088040240A0040240B804024008540258E2
:102690001C5402583054025844540258585402589A
:1026A0006C540258805402589454025880B584B037
:1026B00000AF78607B68002B01D1012305E27B68C5
:1026C00093F83530DBB2022B04D07B6880225A6548
:1026D0000123FAE17B681B688C4A93424AD07B68ED
:1026E0001B688B4A934245D07B681B68894A93429A
:1026F00040D07B681B68884A93423BD07B681B684C
:10270000864A934236D07B681B68854A934231D013
:102710007B681B68834A93422CD07B681B68824A83
:10272000934227D07B681B68804A934222D07B6803
:102730001B687F4A93421DD07B681B687D4A934289
:1027400018D07B681B687C4A934213D07B681B6857
:102750007A4A93420ED07B681B68794A934209D02B
:102760007B681B68774A934204D07B681B68764A73
:10277000934201D1012300E00023002B65D07B6848
:10278000042283F835207B681B68604A93424AD054
:102790007B681B685E4A934245D07B681B685D4A34
:1027A000934240D07B681B685B4A93423BD07B6876
:1027B0001B685A4A934236D07B681B68584A93423A
:1027C00031D07B681B68574A93422CD07B681B68CA
:1027D000554A934227D07B681B68544A934222D0C3
:1027E0007B681B68524A93421DD07B681B68514A24
:1027F000934218D07B681B684F4A934213D07B6882
:102800001B684E4A93420ED07B681B684C4A934229
:1028100009D07B681B684B4A934204D07B681B68D5
:10282000494A934208D17B681B681A687B681B6819
:1028300022F001021A6047E17B681B681A687B6816
:102840001B6822F001021A603EE17B681B681A686F
:102850007B681B6822F00E021A607B681B682B4A9B
:1028600093424AD07B681B68294A934245D07B68D3
:102870001B68284A934240D07B681B68264A9342D3
:102880003BD07B681B68254A934236D07B681B6827
:10289000234A934231D07B681B68224A93422CD052
:1028A0007B681B68204A934227D07B681B681F4ABD
:1028B000934222D07B681B681D4A93421DD07B68DF
:1028C0001B681C4A934218D07B681B681A4A9342C3
:1028D00013D07B681B68194A93420ED07B681B6833
:1028E000174A934209D07B681B68164A934204D06A
:1028F0007B681B68144A934228D17B681B681A685E
:102900007B681B6822F001021A6027E01000024079
:10291000280002404000024058000240700002407F
:1029200088000240A0000240B800024010040240AB
:10293000280402404004024058040240700402404F
:1029400088040240A0040240B80402407B681B686F
:102950001A687B681B6822F001021A607B681B689A
:102960005C4A934272D07B681B685B4A93426DD08D
:102970007B681B68594A934268D07B681B68584A39
:10298000934263D07B681B68564A93425ED07B6853
:102990001B68554A934259D07B681B68534A93423F
:1029A00054D07B681B68524A93424FD07B681B68A7
:1029B000504A93424AD07B681B684F4A934245D0A5
:1029C0007B681B684D4A934240D07B681B684C4A29
:1029D00093423BD07B681B684A4A934236D07B685F
:1029E0001B68494A934231D07B681B68474A93422F
:1029F0002CD07B681B68464A934227D07B681B68B3
:102A0000444A934222D07B681B68434A93421DD0BC
:102A10007B681B68414A934218D07B681B68404A18
:102A2000934213D07B681B683E4A93420ED07B686A
:102A30001B683D4A934209D07B681B683B4A93421E
:102A400004D07B681B683A4A934201D1012300E01D
:102A50000023002B28D07B681B6E1A687B681B6ED6
:102A600022F480721A607B689B6DFB607B68DB6D73
:102A700003F01F0301229A40FB685A607B685B6E7B
:102A80007A68926E5A607B68DB6E002B0CD07B6894
:102A9000DB6E1A687B68DB6E22F480721A607B68DA
:102AA0001B6F7A68526F5A607B68002283F834206B
:102AB0007B68012283F835207B681B6D002B03D0D7
:102AC0007B681B6D78689847002318461037BD4611
:102AD00080BD00BF100002402800024040000240BC
:102AE000580002407000024088000240A0000240EE
:102AF000B800024010040240280402404004024092
:102B0000580402407004024088040240A0040240BD
:102B1000B8040240085402581C5402583054025859
:102B200044540258585402586C5402588054025865
:102B30009454025880B58AB000AF78600023FB60DF
:102B4000674B1B68674AA2FB03239B0A7B627B6877
:102B50009B6D3B627B689B6DFB613B6A1B68BB6145
:102B6000FB691B687B617B681B685F4A93424AD0A4
:102B70007B681B685D4A934245D07B681B685C4A52
:102B8000934240D07B681B685A4A93423BD07B6893
:102B90001B68594A934236D07B681B68574A934258
:102BA00031D07B681B68564A93422CD07B681B68E7
:102BB000544A934227D07B681B68534A934222D0E1
:102BC0007B681B68514A93421DD07B681B68504A42
:102BD000934218D07B681B684E4A934213D07B689F
:102BE0001B684D4A93420ED07B681B684B4A934248
:102BF00009D07B681B684A4A934204D07B681B68F3
:102C0000484A934201D1012300E00023002B00F049
:102C10002B847B68DB6D03F01F0308229A40BB699D
:102C20001340002B00F0A2807B681B682E4A934261
:102C30004AD07B681B682D4A934245D07B681B684D
:102C40002B4A934240D07B681B682A4A93423BD070
:102C50007B681B68284A934236D07B681B68274AEA
:102C6000934231D07B681B68254A93422CD07B6805
:102C70001B68244A934227D07B681B68224A9342F0
:102C800022D07B681B68214A93421DD07B681B6859
:102C90001F4A934218D07B681B681E4A934213D088
:102CA0007B681B681C4A93420ED07B681B681B4ADA
:102CB000934209D07B681B68194A934204D07B6811
:102CC0001B68184A93422FD17B681B681B6803F06E
:102CD0000403002B14BF01230023DBB22EE000BF4E
:102CE00000000010B5814E1B100002402800024079
:102CF000400002405800024070000240880002403C
:102D0000A0000240B8000240100402402804024023
:102D1000400402405804024070040240880402400B
:102D2000A0040240B80402407B681B681B6803F0E3
:102D30000803002B14BF01230023DBB2002B15D0A6
:102D40007B681B681A687B681B6822F004021A60A3
:102D50007B68DB6D03F01F0308229A403B6A9A6090
:102D60007B685B6D43F001027B685A657B68DB6DB5
:102D700003F01F03BA6922FA03F303F00103002BE7
:102D80006ED07B681B68694A93424AD07B681B6897
:102D9000674A934245D07B681B68664A934240D09D
:102DA0007B681B68644A93423BD07B681B68634A1C
:102DB000934236D07B681B68614A934231D07B686E
:102DC0001B68604A93422CD07B681B685E4A934222
:102DD00027D07B681B685D4A934222D07B681B68C2
:102DE0005B4A93421DD07B681B685A4A934218D0B5
:102DF0007B681B68584A934213D07B681B68574A0C
:102E000093420ED07B681B68554A934209D07B6879
:102E10001B68544A934204D07B681B68524A934211
:102E20000AD17B681B685B6903F08003002B14BF29
:102E300001230023DBB203E07B681B681B680023CF
:102E4000002B0DD07B68DB6D03F01F0301229A403D
:102E50003B6A9A607B685B6D43F002027B685A654F
:102E60007B68DB6D03F01F0304229A40BB691340AB
:102E7000002B00F08F807B681B682C4A93424AD05D
:102E80007B681B682A4A934245D07B681B68294AA5
:102E9000934240D07B681B68274A93423BD07B68B3
:102EA0001B68264A934236D07B681B68244A9342AB
:102EB00031D07B681B68234A93422CD07B681B6807
:102EC000214A934227D07B681B68204A934222D034
:102ED0007B681B681E4A93421DD07B681B681D4A95
:102EE000934218D07B681B681B4A934213D07B68BF
:102EF0001B681A4A93420ED07B681B68184A93429B
:102F000009D07B681B68174A934204D07B681B6812
:102F1000154A93422AD17B681B681B6803F00203A1
:102F2000002B14BF01230023DBB223E0100002407A
:102F30002800024040000240580002407000024059
:102F400088000240A0000240B80002401004024085
:102F50002804024040040240580402407004024029
:102F600088040240A0040240B80402407B681B6849
:102F70001B680023002B0DD07B68DB6D03F01F0363
:102F800004229A403B6A9A607B685B6D43F00402BE
:102F90007B685A657B68DB6D03F01F0310229A4043
:102FA000BB691340002B00F0A6807B681B68854A34
:102FB00093424AD07B681B68834A934245D07B6822
:102FC0001B68824A934240D07B681B68804A9342C8
:102FD0003BD07B681B687F4A934236D07B681B6876
:102FE0007D4A934231D07B681B687C4A93422CD047
:102FF0007B681B687A4A934227D07B681B68794AB2
:10300000934222D07B681B68774A93421DD07B682D
:103010001B68764A934218D07B681B68744A9342B7
:1030200013D07B681B68734A93420ED07B681B6881
:10303000714A934209D07B681B68704A934204D05E
:103040007B681B686E4A93420AD17B681B681B68C9
:1030500003F00803002B14BF01230023DBB209E0B7
:103060007B681B681B6803F00403002B14BF01235B
:103070000023DBB2002B3ED07B68DB6D03F01F0327
:1030800010229A403B6A9A607B681B681B6803F4B5
:103090008023002B18D07B681B681B6803F4002377
:1030A000002B08D17B681B6C002B24D07B681B6C29
:1030B000786898471FE07B689B6C002B1BD07B686F
:1030C0009B6C7868984716E07B681B681B6803F464
:1030D0008073002B07D17B681B681A687B681B68AC
:1030E00022F008021A607B681B6C002B03D07B68FF
:1030F0001B6C786898477B68DB6D03F01F03202208
:103100009A40BB691340002B00F010817B681B685C
:103110002C4A93424AD07B681B682B4A934245D085
:103120007B681B68294A934240D07B681B68284A09
:1031300093423BD07B681B68264A934236D07B681B
:103140001B68254A934231D07B681B68234A93420F
:103150002CD07B681B68224A934227D07B681B686F
:10316000204A934222D07B681B681F4A93421DD09D
:103170007B681B681D4A934218D07B681B681C4AF9
:10318000934213D07B681B681A4A93420ED07B6827
:103190001B68194A934209D07B681B68174A9342FF
:1031A00004D07B681B68164A93422BD17B681B684E
:1031B0001B6803F01003002B14BF01230023DBB2B4
:1031C0002AE000BF100002402800024040000240F8
:1031D000580002407000024088000240A0000240F7
:1031E000B80002401004024028040240400402409B
:1031F000580402407004024088040240A0040240C7
:10320000B80402407B681B681B6803F00203002BB4
:1032100014BF01230023DBB2002B00F087807B6802
:10322000DB6D03F01F0320229A403B6A9A607B68A3
:1032300093F83530DBB2042B39D17B681B681A68F0
:103240007B681B6822F016021A607B681B685A694B
:103250007B681B6822F080025A617B681B6C002B24
:1032600003D17B689B6C002B07D07B681B681A68B6
:103270007B681B6822F008021A607B68DB6D03F034
:103280001F033F229A403B6A9A607B68002283F8C2
:1032900034207B68012283F835207B681B6D002B6E
:1032A00000F04A837B681B6D7868984744E37B682D
:1032B0001B681B6803F48023002B18D07B681B68F5
:1032C0001B6803F40023002B08D17B685B6C002B88
:1032D0002CD07B685B6C7868984727E07B68DB6B59
:1032E000002B23D07B68DB6B786898471EE07B68F7
:1032F0001B681B6803F48073002B0FD17B681B686D
:103300001A687B681B6822F010021A607B68002232
:1033100083F834207B68012283F835207B68DB6BDF
:10332000002B03D07B68DB6B786898477B685B6D0C
:10333000002B00F006837B685B6D03F00103002B1C
:1033400000F088807B68042283F835207B681B6846
:103350007A4A93424AD07B681B68794A934245D0A7
:103360007B681B68774A934240D07B681B68764A2B
:1033700093423BD07B681B68744A934236D07B688B
:103380001B68734A934231D07B681B68714A934231
:103390002CD07B681B68704A934227D07B681B68DF
:1033A0006E4A934222D07B681B686D4A93421DD0BF
:1033B0007B681B686B4A934218D07B681B686A4A1B
:1033C000934213D07B681B68684A93420ED07B6897
:1033D0001B68674A934209D07B681B68654A934221
:1033E00004D07B681B68644A934208D17B681B68E1
:1033F0001A687B681B6822F001021A6007E07B688C
:103400001B681A687B681B6822F001021A60FB685F
:103410000133FB607A6A9A4207D37B681B681B689A
:1034200003F00103002BF2D100E000BF7B68002213
:1034300083F834207B681B681B6803F00103002BB2
:1034400004D07B68032283F8352003E07B680122E7
:1034500083F835207B68DB6C002B00F072827B6880
:10346000DB6C786898476CE27B681B68434A934240
:1034700022D07B681B68424A93421DD07B681B6840
:10348000404A934218D07B681B683F4A934213D04E
:103490007B681B683D4A93420ED07B681B683C4AA0
:1034A000934209D07B681B683A4A934204D07B68F8
:1034B0001B68394A934201D1012300E00023002B0D
:1034C00000F03F827B681B681B683B617B68DB6D9B
:1034D00003F01F0304229A407B691340002B00F085
:1034E000CD803B6903F00403002B00F0C7807B68AC
:1034F000DB6D03F01F0304229A40FB695A603B69AD
:1035000003F40043002B49D03B6903F48033002BC4
:1035100009D17B689B6C002B00F010827B689B6C50
:10352000786898470AE27B681B6C002B00F00682E3
:103530007B681B6C7868984700E200BF100002406F
:103540002800024040000240580002407000024043
:1035500088000240A0000240B8000240100402406F
:103560002804024040040240580402407004024013
:1035700088040240A0040240B804024008540258E3
:103580001C5402583054025844540258585402589B
:103590006C54025880540258945402583B6903F00A
:1035A0002003002B60D17B681B688C4A93424AD071
:1035B0007B681B688A4A934245D07B681B68894AAE
:1035C000934240D07B681B68874A93423BD07B681C
:1035D0001B68864A934236D07B681B68844A9342B4
:1035E00031D07B681B68834A93422CD07B681B6870
:1035F000814A934227D07B681B68804A934222D03D
:103600007B681B687E4A93421DD07B681B687D4A9D
:10361000934218D07B681B687B4A934213D07B6827
:103620001B687A4A93420ED07B681B68784A9342A3
:1036300009D07B681B68774A934204D07B681B687B
:10364000754A934208D17B681B681A687B681B68BF
:1036500022F008021A6007E07B681B681A687B6822
:103660001B6822F004021A607B681B6C002B00F0C0
:1036700065817B681B6C786898475FE17B68DB6DD0
:1036800003F01F0302229A407B691340002B00F0D5
:10369000C5803B6903F00203002B00F0BF807B680C
:1036A000DB6D03F01F0302229A40FB695A603B69FD
:1036B00003F40043002B18D03B6903F48033002B44
:1036C00009D17B685B6C002B00F03A817B685B6CF6
:1036D0007868984734E17B68DB6B002B00F0308121
:1036E0007B68DB6B786898472AE13B6903F020032D
:1036F000002B68D17B681B68384A93424AD07B68AC
:103700001B68374A934245D07B681B68354A934211
:1037100040D07B681B68344A93423BD07B681B686F
:10372000324A934236D07B681B68314A934231D08B
:103730007B681B682F4A93422CD07B681B682E4AFB
:10374000934227D07B681B682C4A934222D07B6827
:103750001B682B4A93421DD07B681B68294A934201
:1037600018D07B681B68284A934213D07B681B687B
:10377000264A93420ED07B681B68254A934209D0A3
:103780007B681B68234A934204D07B681B68224AEB
:10379000934208D17B681B681A687B681B6822F01B
:1037A00014021A6007E07B681B681A687B681B6854
:1037B00022F00A021A607B68002283F834207B68BA
:1037C000012283F835207B68DB6B002B00F0B8808A
:1037D0007B68DB6B78689847B2E000BF100002405E
:1037E00028000240400002405800024070000240A1
:1037F00088000240A0000240B800024010040240CD
:103800002804024040040240580402407004024070
:1038100088040240A0040240B80402407B68DB6DCB
:1038200003F01F0308229A407B691340002B00F02D
:1038300088803B6903F00803002B00F082807B68DE
:103840001B68414A93424AD07B681B683F4A9342B7
:1038500045D07B681B683E4A934240D07B681B681A
:103860003C4A93423BD07B681B683B4A934236D02C
:103870007B681B68394A934231D07B681B68384AA1
:1038800093422CD07B681B68364A934227D07B68D2
:103890001B68354A934222D07B681B68334A9342A7
:1038A0001DD07B681B68324A934218D07B681B6826
:1038B000304A934213D07B681B682F4A93420ED044
:1038C0007B681B682D4A934209D07B681B682C4A91
:1038D000934204D07B681B682A4A934208D17B68D4
:1038E0001B681A687B681B6822F01C021A6007E0DC
:1038F0007B681B681A687B681B6822F00E021A60DE
:103900007B68DB6D03F01F0301229A40FB695A605C
:103910007B6801225A657B68002283F834207B682B
:10392000012283F835207B68DB6C002B09D07B6893
:10393000DB6C7868984704E000BF02E000BF00E05D
:1039400000BF2837BD4680BD10000240280002405D
:1039500040000240580002407000024088000240CF
:10396000A0000240B80002401004024028040240B7
:10397000400402405804024070040240880402409F
:10398000A0040240B804024080B485B000AF786063
:103990007B681B68434A93424AD07B681B68424A53
:1039A000934245D07B681B68404A934240D07B6875
:1039B0001B683F4A93423BD07B681B683D4A934259
:1039C00036D07B681B683C4A934231D07B681B68C9
:1039D0003A4A93422CD07B681B68394A934227D0DD
:1039E0007B681B68374A934222D07B681B68364A43
:1039F00093421DD07B681B68344A934218D07B6881
:103A00001B68334A934213D07B681B68314A934248
:103A10000ED07B681B68304A934209D07B681B68D4
:103A20002E4A934204D07B681B682D4A934201D1F1
:103A3000012300E00023002B26D07B681B68DBB24B
:103A4000103B284AA2FB03231B09FB60FB6803F021
:103A50000703254AD35C1A467B68DA65FB68032BAB
:103A600009D97B681B6823F47F7323F003031A1DB5
:103A70007B689A650EE07B681B6823F47F7323F0F4
:103A800003037A68936505E07B681B6823F0FF02F7
:103A90007B689A657B689B6D18461437BD465DF858
:103AA000047B7047100002402800024040000240A2
:103AB000580002407000024088000240A00002400E
:103AC000B8000240100402402804024040040240B2
:103AD000580402407004024088040240A0040240DE
:103AE000B8040240ABAAAAAA08BF100880B485B0E7
:103AF00000AF78600023FB737B689B69002B20D1AB
:103B00007B689B6A032B58D801A252F823F000BFB0
:103B1000213B1008333B1008213B1008BB3B100829
:103B20007B68DB6A03F08073002B48D00123FB73B2
:103B300045E07B68DB6AB3F1C07F42D10123FB73B0
:103B40003FE07B689B69B3F5005F23D17B689B6A8C
:103B5000032B38D801A252F823F000BF6D3B1008A8
:103B6000733B10086D3B1008853B10080123FB7365
:103B700030E07B68DB6A03F08073002B25D00123E3
:103B8000FB7322E07B68DB6AB3F1C07F1FD10123A6
:103B9000FB731CE07B689B6A022B02D9032B03D0CA
:103BA00018E00123FB7315E07B68DB6A03F0807388
:103BB000002B0ED00123FB730BE000BF0AE000BF17
:103BC00008E000BF06E000BF04E000BF02E000BF65
:103BD00000E000BFFB7B18461437BD465DF8047B50
:103BE000704700BF80B485B000AF78607B681B6809
:103BF000BB607B681B683A4A934222D07B681B6893
:103C0000384A93421DD07B681B68374A934218D0CC
:103C10007B681B68354A934213D07B681B68344A23
:103C200093420ED07B681B68324A934209D07B686E
:103C30001B68314A934204D07B681B682F4A934229
:103C400001D1012300E00023002B1CD07B681B68FE
:103C5000DBB2083B2A4AA2FB03231B09FB60FB687B
:103C600003F1B05303F516439B001A467B681A66AE
:103C70007B68244A5A66FB6803F01F0301229A40BE
:103C80007B689A6626E07B681B68DBB2103B1E4AA5
:103C9000A2FB03231B09FB60BB681C4A934206D8A6
:103CA000BB681B4A934202D9FB680833FB60FB6880
:103CB00003F1805303F502439B001A467B681A66A2
:103CC0007B68144A5A66FB6803F01F0301229A407E
:103CD0007B689A6600BF1437BD465DF8047B704769
:103CE000085402581C540258305402584454025884
:103CF000585402586C540258805402589454025834
:103D0000CDCCCCCC80580258ABAAAAAAB8040240A9
:103D10000F0402408008024080B485B000AF786094
:103D20007B685B68DBB2FB60FB68002B4AD0FB68FA
:103D3000082B47D87B681B68254A934222D07B68B2
:103D40001B68244A93421DD07B681B68224A934219
:103D500018D07B681B68214A934213D07B681B688C
:103D60001F4A93420ED07B681B681E4A934209D0BB
:103D70007B681B681C4A934204D07B681B681B4A03
:103D8000934201D1012300E00023002B0AD0FA68FE
:103D9000174B13449B001A467B68DA667B68154A0A
:103DA0001A6709E0FA68144B13449B001A467B68B3
:103DB000DA667B68114A1A67FB68013B01229A4068
:103DC0007B685A6700BF1437BD465DF8047B7047B7
:103DD000085402581C540258305402584454025893
:103DE000585402586C540258805402589454025843
:103DF0003F960016405902583F8200104009024089
:103E000080B598B000AF7860844A07F10C03114682
:103E10004C22184606F04EFA7B68002B01D1012394
:103E2000CAE17B681B687E4A934206D17B681B68A7
:103E300003F580731A467B685A607B6893F8983064
:103E4000DBB2002B06D17B68002283F899207868CA
:103E5000FDF72AF97B681B689A697B681B6822F06A
:103E600010029A61FDF7C8FFF86514E0FDF7C4FF82
:103E70000246FB6DD31A0A2B0DD97B68D3F89C3010
:103E800043F001027B68C3F89C207B68032283F81F
:103E90009820012390E17B681B689B6903F008036D
:103EA000082BE3D07B681B689A697B681B6842F02B
:103EB00001029A61FDF7A0FFF86514E0FDF79CFF91
:103EC0000246FB6DD31A0A2B0DD97B68D3F89C30C0
:103ED00043F001027B68C3F89C207B68032283F8CF
:103EE0009820012368E17B681B689B6903F001034C
:103EF000002BE3D07B681B689A697B681B6842F0E3
:103F000002029A617B681B7C012B08D17B681B68CD
:103F10009A697B681B6822F040029A6107E07B681F
:103F20001B689A697B681B6842F040029A617B6853
:103F30005B7C012B08D17B681B689A697B681B68D6
:103F400042F480429A6107E07B681B689A697B684B
:103F50001B6822F480429A617B689B7C012B08D10C
:103F60007B681B689A697B681B6822F480529A619F
:103F700007E07B681B689A697B681B6842F4805283
:103F80009A617B681B689B6923F440717B689A681F
:103F90007B681B680A439A617B681B689A697B6827
:103FA0001B6822F0A4029A617B681B681A697B680F
:103FB0001B6822F010021A617B68DB68012B08D1B4
:103FC0007B681B689A697B681B6842F004029A61EF
:103FD00030E07B68DB68002B2CD07B68DB68022B31
:103FE00020D07B681B689A697B681B6842F080025E
:103FF0009A617B681B681A697B681B6842F0100233
:104000001A617B68DB68032B14D17B681B689A6993
:104010007B681B6842F020029A610BE078BE1008B2
:1040200000A000407B681B689A697B681B6842F0AF
:1040300020029A617B689B69013B5A067B68DB69B9
:10404000013B1B021A437B681B6A013B42EA0301E6
:104050007B685B69013B1A047B681B680A43DA6171
:104060007B689B68B3F5407F15D17B689B6A5A1EBD
:104070007B68DB6A013B1B021A437B681B6B013BBD
:104080001B0142EA03017B685B6A013B1A047B68FF
:104090001B680A43DA607B681B6E002B0AD07B68C2
:1040A0001B68D3F8C0107B685A6E7B681B680A4394
:1040B000C3F8C0207B68DA6D7B681B6E1344002B4D
:1040C00012D07B681B68D3F8C83023F007017B68E7
:1040D0009B6E9B0007F16002134453F8542C7B68DD
:1040E0001B680A43C3F8C8207B681B6C002B12D0E6
:1040F0007B681B68D3F8BC3023F007017B685B6CDE
:104100009B0007F16002134453F8542C7B681B6832
:104110000A43C3F8BC207B689B6C002B13D07B68E0
:104120001B68D3F8BC3023F070017B68DB6C9B000C
:1041300007F16002134453F8543C1A017B681B6872
:104140000A43C3F8BC207B681B6D002B13D07B682F
:104150001B68D3F8BC3023F4E0617B685B6D9B0087
:1041600007F16002134453F8543C1A027B681B6841
:104170000A43C3F8BC207B681B68114A934207D1ED
:104180007B685B689A687B685B6822F003029A60D0
:104190007B680022C3F894207B680022C3F89C202F
:1041A0007B68012283F89820786800F00BF80346BA
:1041B00087F85B3097F85B3018466037BD4680BDA6
:1041C00000A0004080B485B000AF78607B685B6B76
:1041D000BB607B681B68D3F8843023F47F4323F0F3
:1041E000FC03BA6891007A6812680B43C2F8843005
:1041F0007B681B68D3F8843023F47F017B689B6B5A
:104200001A047B681B680A43C3F884207B689B6B95
:10421000BA681344BB607B681B68D3F8883023F40A
:104220007F4323F0FC03BA6891007A6812680B435D
:10423000C2F888307B681B68D3F8883023F4FE010D
:104240007B68DB6B1A047B681B680A43C3F8882011
:104250007B68DB6B5B00BA681344BB607B681B68E0
:10426000D3F8A03023F47F4323F0FC03BA68910015
:104270007A6812680B43C2F8A0307B681B68D3F8D9
:10428000A03023F4FE017B681B6C1A047B681B685A
:104290000A43C3F8A0207B681B6C7A68526C02FB4F
:1042A00003F3BA681344BB607B681B68D3F8B03073
:1042B00023F47F4323F0FC03BA6891007A68126804
:1042C0000B43C2F8B0307B681B68D3F8B03023F4DE
:1042D000FE017B689B6C1A047B681B680A43C3F869
:1042E000B0207B689B6C7A68D26C02FB03F3BA68DF
:1042F0001344BB607B681B68D3F8AC3023F47F4366
:1043000023F0FC03BA6891007A6812680B43C2F884
:10431000AC307B681B6D7A68526D02FB03F3BA68A0
:104320001344BB607B681B68D3F8F03023F47F43F1
:1043300023F0FC03BA6891007A6812680B43C2F854
:10434000F0307B681B68D3F8F03023F47C117B6875
:104350009B6D1A047B681B680A43C3F8F0207B68D6
:104360009B6D5B00BA681344BB607B681B68D3F825
:10437000C03023F47F4323F0FC03BA6891007A68CD
:1043800012680B43C2F8C0307B681B68D3F8C0309A
:1043900023F47C117B68DB6D1A047B681B680A437D
:1043A000C3F8C0207B681B68D3F8C03023F07C5171
:1043B0007B681B6E1A067B681B680A43C3F8C02023
:1043C0007B685B6B03F1805303F52C539A007B6889
:1043D000DA667B68DA6E7B689B6B9B001A447B68AD
:1043E0001A677B681A6F7B68DB6BDB001A447B689B
:1043F0005A677B685A6F7B681B6C7968496C01FB54
:1044000003F39B001A447B689A677B689A6F7B680A
:104410009B6C7968C96C01FB03F39B001A447B68B1
:10442000DA677B68DA6F7B681B6D7968496D01FB21
:1044300003F39B001A447B68C3F880207B68D3F8A1
:1044400080207B689B6DDB001A447B68C3F8842066
:104450007B68D3F884207B68DB6D7968896E01FB0B
:1044600003F39B001A447B68C3F888207B68D3F869
:1044700088207B681B6E7968896E01FB03F39B00C3
:104480001A447B68C3F890207B68D3F89030144AB4
:1044900093420DD97B68D3F89C3043F020027B68AF
:1044A000C3F89C207B68032283F89820012310E046
:1044B0007B68DB6EFB6005E0FB6800221A60FB682E
:1044C0000433FB607B68D3F89030FA689A42F3D3E8
:1044D000002318461437BD465DF8047B704700BFC3
:1044E000FCD3004080B489B000AF7860396000230D
:1044F000FB61894B7B6194E13B681A680121FB6990
:1045000001FA03F313403B613B69002B00F0868105
:104510003B685B68012B0BD03B685B68022B07D0C4
:104520003B685B68112B03D03B685B68122B30D172
:104530007B689B68BB61FB695B00032202FA03F3A3
:10454000DB43BA691340BB613B68DA68FB695B0017
:1045500002FA03F3BA691343BB617B68BA699A60D4
:104560007B685B68BB610122FB6902FA03F3DB43F2
:10457000BA691340BB613B685B681B0903F0010229
:10458000FB6902FA03F3BA691343BB617B68BA693A
:104590005A607B68DB68BB61FB695B00032202FA3F
:1045A00003F3DB43BA691340BB613B689A68FB695C
:1045B0005B0002FA03F3BA691343BB617B68BA6913
:1045C000DA603B685B68022B03D03B685B68122BA8
:1045D00023D1FB69DA087B68083253F82230BB61CB
:1045E000FB6903F007039B000F2202FA03F3DB438E
:1045F000BA691340BB613B681A69FB6903F00703A2
:104600009B0002FA03F3BA691343BB61FB69DA0842
:104610007B680832B96943F822107B681B68BB616C
:10462000FB695B00032202FA03F3DB43BA69134020
:10463000BB613B685B6803F00302FB695B0002FA45
:1046400003F3BA691343BB617B68BA691A603B68BC
:104650005B6803F08053002B00F0E0802F4BD3F811
:10466000F4302E4A43F00203C2F8F4302B4BD3F857
:10467000F43003F00203FB60FB68294AFB699B08E6
:10468000023352F82330BB61FB6903F003039B0044
:104690000F2202FA03F3DB43BA691340BB617B6864
:1046A000204A934252D07B681F4A934231D07B68A4
:1046B0001E4A93422BD07B681D4A934225D07B68CB
:1046C0001C4A93421FD07B681B4A934219D07B68D7
:1046D0001A4A934213D07B68194A93420DD07B68E3
:1046E000184A934207D07B68174A934201D10923A5
:1046F0002DE00A232BE0082329E0072327E00623E7
:1047000025E0052323E0042321E003231FE0022307
:104710001DE001231BE000BFC00000580044025808
:104720000004005800000258000402580008025813
:10473000000C0258001002580014025800180258C9
:10474000001C025800200258002402580023FA6975
:1047500002F0030292009340BA691343BB613849E7
:10476000FB699B080233BA6941F823207B691B6807
:10477000BB613B69DB43BA691340BB613B685B6863
:1047800003F48033002B03D0BA693B691343BB6148
:104790007B69BA691A607B695B68BB613B69DB4313
:1047A000BA691340BB613B685B6803F40033002BBC
:1047B00003D0BA693B691343BB617B69BA695A602C
:1047C0004FF0B0431B68BB613B69DB43BA691340E0
:1047D000BB613B685B6803F48013002B03D0BA69AC
:1047E0003B691343BB614FF0B042BB6913604FF0AC
:1047F000B0435B68BB613B69DB43BA691340BB6193
:104800003B685B6803F40013002B03D0BA693B6973
:104810001343BB614FF0B042BB695360FB69013386
:10482000FB613B681A68FB6922FA03F3002B7FF4F3
:1048300063AE00BF2437BD465DF8047B704700BF00
:104840000004005880B483B000AF7860054B1A684C
:1048500004497B6813430B6000BF0C37BD465DF80D
:10486000047B70471065025880B582B000AF786055
:104870007B68002B01D1012381E07B6893F84130F4
:10488000DBB2002B06D17B68002283F840207868D9
:10489000FCF724FD7B68242283F841207B681B6899
:1048A0001A687B681B6822F001021A607B685A68EC
:1048B0007B681B6822F070621A617B681B689A68CB
:1048C0007B681B6822F400429A607B68DB68012BDE
:1048D00007D17B689A687B681B6842F400429A6043
:1048E00006E07B689A687B681B6842F404429A6021
:1048F0007B68DB68022B04D17B681B684FF4006285
:104900005A607B681B685B687A68126843F00073C2
:1049100043F4004353607B681B68DA687B681B685C
:1049200022F40042DA607B681A697B685B6942EABC
:1049300003017B689B691A027B681B680A43DA6083
:104940007B68D9697B681A6A7B681B680A431A60AE
:104950007B681B681A687B681B6842F001021A605A
:104960007B6800225A647B68202283F841207B68A0
:1049700000221A637B68002283F842200023184635
:104980000837BD4680BD80B483B000AF7860396021
:104990007B6893F84130DBB2202B38D17B6893F8E9
:1049A0004030012B01D1022332E07B68012283F8E1
:1049B00040207B68242283F841207B681B681A68AA
:1049C0007B681B6822F001021A607B681B681A680A
:1049D0007B681B6822F480521A607B681B68196828
:1049E0007B681B683A680A431A607B681B681A6810
:1049F0007B681B6842F001021A607B68202283F802
:104A000041207B68002283F84020002300E002233D
:104A100018460C37BD465DF8047B704780B485B0FE
:104A200000AF786039607B6893F84130DBB2202BAF
:104A300039D17B6893F84030012B01D1022333E058
:104A40007B68012283F840207B68242283F8412080
:104A50007B681B681A687B681B6822F001021A6079
:104A60007B681B681B68FB60FB6823F47063FB605A
:104A70003B681B02FA681343FB607B681B68FA689B
:104A80001A607B681B681A687B681B6842F0010229
:104A90001A607B68202283F841207B68002283F81B
:104AA0004020002300E0022318461437BD465DF87D
:104AB000047B704780B485B000AF78600D4BD3F8AD
:104AC000F4300C4A43F00203C2F8F430094BD3F837
:104AD000F43003F00203FB60FB68074B5A68064999
:104AE0007B6813434B6000BF1437BD465DF8047B01
:104AF000704700BF004402580004005880B584B0DD
:104B000000AF78607B68002B01D1012338E07B681F
:104B10001B684CF6CC421A607B681B6845F2555204
:104B20001A607B681B687A6852685A607B681B68E9
:104B30007A6892689A60FDF75FF9F86008E0FDF71F
:104B40005BF90246FB68D31A302B01D9032317E027
:104B50007B681B68DB68002BF1D17B681B681A69D6
:104B60007B68DB689A4205D07B681B687A68D268EC
:104B70001A6104E07B681B684AF6AA221A600023C7
:104B800018461037BD4680BD80B483B000AF786052
:104B90007B681B684AF6AA221A60002318460C3765
:104BA000BD465DF8047B704780B584B000AFF86007
:104BB0000B467A60FB72354B1B6823F001023349C8
:104BC000FB6813430B607B68002B21D1FDF700FAD3
:104BD0000346032B54D12D4B1B692C4A23F00103B0
:104BE00013612B4B1B692A4A43F004031361BFF383
:104BF0004F8FBFF36F8FFB7A012B01D130BF00E0E5
:104C000020BF234B1B69224A23F0040313613AE0BF
:104C10007B68012B21D1FDF7DBF90346012B31D154
:104C20001A4B5B69194A23F002035361184B1B6945
:104C3000174A43F004031361BFF34F8FBFF36F8F25
:104C4000FB7A012B01D130BF00E020BF104B1B6964
:104C50000F4A23F00403136115E0FDF7B9F9034689
:104C6000032B06D1094B1B69084A23F00403136187
:104C700009E0064B5B69054A23F00403536102E037
:104C800000BF00E000BF1037BD4680BD004802589D
:104C900000ED00E080B500AFFDF79AF90346032B65
:104CA00001D120BF01E040BF20BF00BF80BD000098
:104CB00080B489B000AFAF4B1B6903F03803182BE9
:104CC00000F24E8101A252F823F000BF314D1008CE
:104CD000614F1008614F1008614F1008614F1008B4
:104CE000614F1008614F1008614F1008574D1008B0
:104CF000614F1008614F1008614F1008614F100894
:104D0000614F1008614F1008614F10085D4D100889
:104D1000614F1008614F1008614F1008614F100873
:104D2000614F1008614F1008614F1008634D100863
:104D3000904B1B6803F02003002B09D08D4B1B68A0
:104D4000DB0803F003038C4A22FA03F3BB610AE198
:104D5000894BBB6107E1894BBB6104E1884BBB61B7
:104D600001E1844B9B6A03F003037B61814B9B6AE7
:104D70001B0903F03F033B617E4BDB6A03F0010339
:104D8000FB607C4B5B6BDB08C3F30C03FA6802FB34
:104D900003F307EE903AF8EE677AC7ED027A3B69C3
:104DA000002B00F0DA807B69012B5AD0012B02D353
:104DB000022B78D099E06F4B1B6803F02003002B87
:104DC0002DD06C4B1B68DB0803F003036A4A22FA00
:104DD00003F37B607B6807EE903AF8EE676A3B6905
:104DE00007EE903AF8EE677A86EEA77A614B1B6B76
:104DF000C3F3080307EE903AF8EE676A97ED026A8C
:104E0000DFED605AC6EE257A76EEA77AF7EE006AF5
:104E100077EEA67A67EE277AC7ED077A87E03B69D7
:104E200007EE903AF8EE677ADFED576A86EEA77ADA
:104E3000504B1B6BC3F3080307EE903AF8EE676A1A
:104E400097ED026ADFED4F5AC6EE257A76EEA77A25
:104E5000F7EE006A77EEA67A67EE277AC7ED077A53
:104E600065E03B6907EE903AF8EE677ADFED476A56
:104E700086EEA77A3F4B1B6BC3F3080307EE903A0D
:104E8000F8EE676A97ED026ADFED3E5AC6EE257AC4
:104E900076EEA77AF7EE006A77EEA67A67EE277AC3
:104EA000C7ED077A43E03B6907EE903AF8EE677A80
:104EB000DFED376A86EEA77A2E4B1B6BC3F3080330
:104EC00007EE903AF8EE676A97ED026ADFED2D5A29
:104ED000C6EE257A76EEA77AF7EE006A77EEA67A26
:104EE00067EE277AC7ED077A21E03B6907EE903A33
:104EF000F8EE677ADFED256A86EEA77A1D4B1B6B0D
:104F0000C3F3080307EE903AF8EE676A97ED026A7A
:104F1000DFED1C5AC6EE257A76EEA77AF7EE006A28
:104F200077EEA67A67EE277AC7ED077A00BF114BB6
:104F30001B6B5B0A03F07F0301333B603B6807EEAA
:104F4000903AB8EE677AD7ED076AC6EE877AFCEE3C
:104F5000E77A17EE903ABB6105E00023BB6102E0FF
:104F6000064BBB6100BFBB6918462437BD465DF8E0
:104F7000047B7047004402580090D00300093D00B4
:104F800040787D01000000460024744C0024744ADF
:104F900020BCBE4B80B582B000AFFFF789FE014652
:104FA000114B9B691B0A03F00F03104AD35C03F0FB
:104FB0001F0321FA03F37B600B4B9B6903F00F0384
:104FC0000A4AD35C03F01F037A6822FA03F3084A03
:104FD0001360074B1B68074A1360054B1B68184694
:104FE0000837BD4680BD00BF00440258F8BE100817
:104FF000040000100000001080B500AFFFF7CAFFEA
:105000000146064BDB691B0903F00703044AD35C26
:1050100003F01F0321FA03F3184680BD0044025831
:10502000F8BE100880B500AFFFF7B4FF0146064B8D
:10503000DB691B0A03F00703044AD35C03F01F0378
:1050400021FA03F3184680BD00440258F8BE100848
:1050500080B483B000AF786039607B683F221A600B
:105060001A4B1B6903F007027B685A60174B9B6958
:1050700003F470627B689A60144B9B6903F00F0223
:105080007B68DA60114B9B6903F070027B681A61E0
:105090000E4BDB6903F070027B685A610B4BDB69D6
:1050A00003F4E0627B689A61084B1B6A03F07002AC
:1050B0007B68DA61064B1B6803F00F023B681A60DD
:1050C00000BF0C37BD465DF8047B704700440258B2
:1050D0000020005280B500AFFFF75CFF0146064B91
:1050E0001B6A1B0903F00703044AD35C03F01F0388
:1050F00021FA03F3184680BD00440258F8BE100898
:1051000080B489B000AF78609D4B9B6A03F00303C5
:10511000BB619B4B9B6A1B0B03F03F037B61984B6E
:10512000DB6A1B0903F001033B61954BDB6BDB087A
:10513000C3F30C033A6902FB03F307EE903AF8EE6F
:10514000677AC7ED037A7B69002B00F00A81BB699F
:10515000012B5AD0012B02D3022B78D099E0884B37
:105160001B6803F02003002B2DD0854B1B68DB0848
:1051700003F00303834A22FA03F3BB60BB6807EE24
:10518000903AF8EE676A7B6907EE903AF8EE677A34
:1051900086EEA77A7A4B9B6BC3F3080307EE903A2F
:1051A000F8EE676A97ED036ADFED775AC6EE257A67
:1051B00076EEA77AF7EE006A77EEA67A67EE277AA0
:1051C000C7ED077A87E07B6907EE903AF8EE677AD9
:1051D000DFED6E6A86EEA77A694B9B6BC3F308031B
:1051E00007EE903AF8EE676A97ED036ADFED665ACC
:1051F000C6EE257A76EEA77AF7EE006A77EEA67A03
:1052000067EE277AC7ED077A65E07B6907EE903A8B
:10521000F8EE677ADFED5E6A86EEA77A584B9B6BF5
:10522000C3F3080307EE903AF8EE676A97ED036A56
:10523000DFED555AC6EE257A76EEA77AF7EE006ACC
:1052400077EEA67A67EE277AC7ED077A43E07B69A7
:1052500007EE903AF8EE677ADFED4E6A86EEA77AAF
:10526000474B9B6BC3F3080307EE903AF8EE676A6F
:1052700097ED036ADFED445AC6EE257A76EEA77AFB
:10528000F7EE006A77EEA67A67EE277AC7ED077A1F
:1052900021E07B6907EE903AF8EE677ADFED3C6A31
:1052A00086EEA77A364B9B6BC3F3080307EE903A62
:1052B000F8EE676A97ED036ADFED335AC6EE257A9A
:1052C00076EEA77AF7EE006A77EEA67A67EE277A8F
:1052D000C7ED077A00BF2A4B9B6B5B0A03F07F0385
:1052E00007EE903AF8EE677AB7EE007A37EE877AF3
:1052F000D7ED076AC6EE877AFCEEE77A17EE902ABA
:105300007B681A601E4B9B6B1B0C03F07F0307EE40
:10531000903AF8EE677AB7EE007A37EE877AD7EDF3
:10532000076AC6EE877AFCEEE77A17EE902A7B686A
:105330005A60134B9B6B1B0E03F07F0307EE903AF2
:10534000F8EE677AB7EE007A37EE877AD7ED076A1C
:10535000C6EE877AFCEEE77A17EE902A7B689A60B1
:1053600008E07B6800221A607B6800225A607B6834
:1053700000229A6000BF2437BD465DF8047B704769
:10538000004402580090D003000000460024744CF2
:105390000024744A20BCBE4B80B489B000AF786052
:1053A0009D4B9B6A03F00303BB619B4B9B6A1B0DE8
:1053B00003F03F037B61984BDB6A1B0A03F0010398
:1053C0003B61954B5B6CDB08C3F30C033A6902FB52
:1053D00003F307EE903AF8EE677AC7ED037A7B693C
:1053E000002B00F00A81BB69012B5AD0012B02D39C
:1053F000022B78D099E0884B1B6803F02003002B28
:105400002DD0854B1B68DB0803F00303834A22FA87
:1054100003F3BB60BB6807EE903AF8EE676A7B69FE
:1054200007EE903AF8EE677A86EEA77A7A4B1B6C15
:10543000C3F3080307EE903AF8EE676A97ED036A44
:10544000DFED775AC6EE257A76EEA77AF7EE006A98
:1054500077EEA67A67EE277AC7ED077A87E07B6951
:1054600007EE903AF8EE677ADFED6E6A86EEA77A7D
:10547000694B1B6CC3F3080307EE903AF8EE676ABA
:1054800097ED036ADFED665AC6EE257A76EEA77AC7
:10549000F7EE006A77EEA67A67EE277AC7ED077A0D
:1054A00065E07B6907EE903AF8EE677ADFED5E6AB9
:1054B00086EEA77A584B1B6CC3F3080307EE903AAD
:1054C000F8EE676A97ED036ADFED555AC6EE257A66
:1054D00076EEA77AF7EE006A77EEA67A67EE277A7D
:1054E000C7ED077A43E07B6907EE903AF8EE677AFA
:1054F000DFED4E6A86EEA77A474B1B6CC3F30803B9
:1055000007EE903AF8EE676A97ED036ADFED445ACA
:10551000C6EE257A76EEA77AF7EE006A77EEA67ADF
:1055200067EE277AC7ED077A21E07B6907EE903AAC
:10553000F8EE677ADFED3C6A86EEA77A364B1B6C95
:10554000C3F3080307EE903AF8EE676A97ED036A33
:10555000DFED335AC6EE257A76EEA77AF7EE006ACB
:1055600077EEA67A67EE277AC7ED077A00BF2A4B57
:105570001B6C5B0A03F07F0307EE903AF8EE677A44
:10558000B7EE007A37EE877AD7ED076AC6EE877AEC
:10559000FCEEE77A17EE902A7B681A601E4B1B6CB4
:1055A0001B0C03F07F0307EE903AF8EE677AB7EE34
:1055B000007A37EE877AD7ED076AC6EE877AFCEE77
:1055C000E77A17EE902A7B685A60134B1B6C1B0E10
:1055D00003F07F0307EE903AF8EE677AB7EE007AB1
:1055E00037EE877AD7ED076AC6EE877AFCEEE77A60
:1055F00017EE902A7B689A6008E07B6800221A60A8
:105600007B6800225A607B6800229A6000BF2437C2
:10561000BD465DF8047B7047004402580090D003FB
:10562000000000460024744C0024744A20BCBE4B89
:1056300080B584B000AF78600023FB607B68002BEE
:1056400001D10123E2E07B6800229A627B681B683B
:10565000704A93420FD07B681B686F4A93420AD00E
:105660007B681B686D4A934205D07B68DB680F2B13
:1056700001D90123CAE0786800F096FBB8607B6826
:105680001B68644A93420CD07B681B68624A934251
:1056900007D07B681B68614A934202D0BB68082B25
:1056A00011D87B681B685B4A934209D07B681B68F2
:1056B000594A934204D07B681B68584A934204D1EC
:1056C000BB68102B01D90123A0E07B6893F88130DF
:1056D000DBB2002B06D17B68002283F8802078683B
:1056E000FBF7B8FF7B68022283F881207B681B6888
:1056F0001A687B681B6822F001021A607B689B694C
:10570000B3F1806F10D17B685B68B3F5800F0BD16C
:105710007B689B6B002B07D17B681B681A687B68D2
:105720001B6842F480521A607B68DA697B689B6A66
:105730001A43FB681A437B68DB6B42EA03017B6810
:10574000DA687B681B680A439A607B685A6B7B68DF
:105750005B6A1A437B689B6B1A437B689B691A439D
:105760007B681B691A437B685B691A437B681B6A09
:105770001A437B685B681A437B68DB6C1A437B685F
:105780009B681A437B689B6C42EA03017B689A6DB5
:105790007B681B680A43DA607B685B68002B13D167
:1057A0007B681B689B6823F4C0527B681B6842F4CB
:1057B00000629A607B681B689B6823F4C0627B6808
:1057C0001B6842F480629A607B681B681A6D7B6874
:1057D0001B6822F001021A657B685B6803F4800392
:1057E000002B0AD07B681B68DB6823F000417B68D4
:1057F0005A6D7B681B680A43DA607B680022C3F835
:1058000084207B68012283F881200023184610370A
:10581000BD4680BD0030014000380040003C0040E3
:1058200080B58AB000AF78607B681B681B693B62FB
:105830007B681B685B69FB613A6AFB691340BB616B
:105840007B681B689B687B6100237B627B6893F8A5
:105850008130FB747B681B683033FB60BB6903F0ED
:105860004003002B13D1BB6903F02003002B0ED1A2
:10587000BB6903F00403002B09D07B685B6F786879
:1058800098477B681B6F7868984701237B62BB69E8
:1058900003F04003002B0FD1BB6903F00103002B81
:1058A0000AD0BB6903F00403002B05D17B681B6F92
:1058B0007868984701237B62BB6903F02003002BC3
:1058C0000FD1BB6903F00203002B0AD0BB6903F0C0
:1058D0000403002B05D17B685B6F78689847012330
:1058E0007B627B6A002B40F07281BB6903F0080386
:1058F000002B00F0A0807B681B689A697B681B689E
:1059000042F008029A617B681B689A697B681B6891
:1059100042F010029A617B681B689A697B681B6879
:1059200042F400629A617B681B681A697B681B6895
:1059300022F008021A617B6903F44043002B0FD068
:10594000FB7C042B04D07B689B6FDB69002B07D0AA
:10595000FB7C032B59D07B68DB6FDB69002B54D1B8
:105960007B681B689B6803F44043002B3DD136E005
:105970007B68DB680F2B0BD97B681A687B685B6ED2
:10598000126B1A607B685B6E1A1D7B685A661DE09D
:105990007B68DB68072B0BD97B685B6EFA68128823
:1059A00092B21A807B685B6E9A1C7B685A660DE027
:1059B0007B681B6803F130027B685B6E1278D2B2A1
:1059C0001A707B685B6E5A1C7B685A667B68B3F8FA
:1059D0006A309BB2013B9AB27B68A3F86A207B686D
:1059E000B3F86A309BB2002BC2D1786800F03CF962
:1059F0007B68012283F881207B68D3F88430002BF8
:105A000003D0786800F00CF9E6E0FB7C052B03D1AD
:105A1000786800F0FBF8DCE0FB7C042B03D17868AD
:105A200000F0EAF8D5E0FB7C032B40F0D2807868E8
:105A300000F0D8F8CDE0FB6903F40063002B0DD033
:105A40003B6A03F00803002B08D07B681B689A6947
:105A50007B681B6842F400629A61BDE0BB6903F495
:105A60005873002B00F0B880BB6903F04003002B93
:105A70000FD07B68D3F8843043F004027B68C3F80E
:105A800084207B681B689A697B681B6842F040022F
:105A90009A61BB6903F40073002B0FD07B68D3F8C5
:105AA000843043F001027B68C3F884207B681B6864
:105AB0009A697B681B6842F400729A61BB6903F4BF
:105AC0008073002B0FD07B68D3F8843043F008023A
:105AD0007B68C3F884207B681B689A697B681B68B5
